{
  "abi": [
    {
      "inputs": [
        {
          "internalType": "uint256",
          "name": "_minimumBet",
          "type": "uint256"
        }
      ],
      "payable": false,
      "stateMutability": "nonpayable",
      "type": "constructor"
    },
    {
      "constant": true,
      "inputs": [],
      "name": "gameId",
      "outputs": [
        {
          "internalType": "uint256",
          "name": "",
          "type": "uint256"
        }
      ],
      "payable": false,
      "stateMutability": "view",
      "type": "function"
    },
    {
      "constant": true,
      "inputs": [
        {
          "internalType": "uint256",
          "name": "id",
          "type": "uint256"
        }
      ],
      "name": "getGameById",
      "outputs": [
        {
          "internalType": "uint8",
          "name": "winningValue",
          "type": "uint8"
        },
        {
          "internalType": "uint256",
          "name": "restBalance",
          "type": "uint256"
        },
        {
          "internalType": "uint256",
          "name": "gameBalance",
          "type": "uint256"
        },
        {
          "internalType": "uint256",
          "name": "minimumBet",
          "type": "uint256"
        }
      ],
      "payable": false,
      "stateMutability": "view",
      "type": "function"
    },
    {
      "constant": true,
      "inputs": [],
      "name": "manager",
      "outputs": [
        {
          "internalType": "address",
          "name": "",
          "type": "address"
        }
      ],
      "payable": false,
      "stateMutability": "view",
      "type": "function"
    },
    {
      "constant": false,
      "inputs": [
        {
          "internalType": "uint8",
          "name": "dice",
          "type": "uint8"
        },
        {
          "internalType": "uint256",
          "name": "_minimumBet",
          "type": "uint256"
        }
      ],
      "name": "newGame",
      "outputs": [
        {
          "internalType": "bool",
          "name": "",
          "type": "bool"
        }
      ],
      "payable": false,
      "stateMutability": "nonpayable",
      "type": "function"
    },
    {
      "constant": false,
      "inputs": [
        {
          "internalType": "uint8",
          "name": "userValue",
          "type": "uint8"
        },
        {
          "internalType": "uint256",
          "name": "_gameId",
          "type": "uint256"
        }
      ],
      "name": "receiveMoney",
      "outputs": [
        {
          "internalType": "bool",
          "name": "",
          "type": "bool"
        }
      ],
      "payable": true,
      "stateMutability": "payable",
      "type": "function"
    },
    {
      "constant": false,
      "inputs": [
        {
          "internalType": "bytes32",
          "name": "hashValue",
          "type": "bytes32"
        }
      ],
      "name": "setUserBetAndHash",
      "outputs": [],
      "payable": true,
      "stateMutability": "payable",
      "type": "function"
    }
  ],
  "devdoc": {
    "methods": {}
  },
  "evm": {
    "assembly": "    /* \"diceGame.sol\":28:4060  contract DiceGame {\r... */\n  mstore(0x40, 0x80)\n    /* \"diceGame.sol\":812:953  constructor(uint _minimumBet) public {\r... */\n  callvalue\n    /* \"--CODEGEN--\":8:17   */\n  dup1\n    /* \"--CODEGEN--\":5:7   */\n  iszero\n  tag_1\n  jumpi\n    /* \"--CODEGEN--\":30:31   */\n  0x00\n    /* \"--CODEGEN--\":27:28   */\n  dup1\n    /* \"--CODEGEN--\":20:32   */\n  revert\n    /* \"--CODEGEN--\":5:7   */\ntag_1:\n    /* \"diceGame.sol\":812:953  constructor(uint _minimumBet) public {\r... */\n  pop\n  mload(0x40)\n  sub(codesize, bytecodeSize)\n  dup1\n  bytecodeSize\n  dup4\n  codecopy\n  dup2\n  dup2\n  add\n  0x40\n  mstore\n    /* \"--CODEGEN--\":13:15   */\n  0x20\n    /* \"--CODEGEN--\":8:11   */\n  dup2\n    /* \"--CODEGEN--\":5:16   */\n  lt\n    /* \"--CODEGEN--\":2:4   */\n  iszero\n  tag_2\n  jumpi\n    /* \"--CODEGEN--\":29:30   */\n  0x00\n    /* \"--CODEGEN--\":26:27   */\n  dup1\n    /* \"--CODEGEN--\":19:31   */\n  revert\n    /* \"--CODEGEN--\":2:4   */\ntag_2:\n    /* \"diceGame.sol\":812:953  constructor(uint _minimumBet) public {\r... */\n  dup2\n  add\n  swap1\n  dup1\n  dup1\n  mload\n  swap1\n  0x20\n  add\n  swap1\n  swap3\n  swap2\n  swap1\n  pop\n  pop\n  pop\n    /* \"diceGame.sol\":882:893  _minimumBet */\n  dup1\n    /* \"diceGame.sol\":860:865  games */\n  0x02\n    /* \"diceGame.sol\":860:868  games[0] */\n  0x00\n    /* \"diceGame.sol\":866:867  0 */\n  dup1\n    /* \"diceGame.sol\":860:868  games[0] */\n  dup2\n  mstore\n  0x20\n  add\n  swap1\n  dup2\n  mstore\n  0x20\n  add\n  0x00\n  keccak256\n    /* \"diceGame.sol\":860:879  games[0].minimumBet */\n  0x07\n  add\n    /* \"diceGame.sol\":860:893  games[0].minimumBet = _minimumBet */\n  dup2\n  swap1\n  sstore\n  pop\n    /* \"diceGame.sol\":914:924  msg.sender */\n  caller\n    /* \"diceGame.sol\":904:911  manager */\n  0x00\n  dup1\n    /* \"diceGame.sol\":904:924  manager = msg.sender */\n  0x0100\n  exp\n  dup2\n  sload\n  dup2\n  0xffffffffffffffffffffffffffffffffffffffff\n  mul\n  not\n  and\n  swap1\n  dup4\n  0xffffffffffffffffffffffffffffffffffffffff\n  and\n  mul\n  or\n  swap1\n  sstore\n  pop\n    /* \"diceGame.sol\":944:945  0 */\n  0x00\n    /* \"diceGame.sol\":935:941  gameId */\n  0x01\n    /* \"diceGame.sol\":935:945  gameId = 0 */\n  dup2\n  swap1\n  sstore\n  pop\n    /* \"diceGame.sol\":812:953  constructor(uint _minimumBet) public {\r... */\n  pop\n    /* \"diceGame.sol\":28:4060  contract DiceGame {\r... */\n  dataSize(sub_0)\n  dup1\n  dataOffset(sub_0)\n  0x00\n  codecopy\n  0x00\n  return\nstop\n\nsub_0: assembly {\n        /* \"diceGame.sol\":28:4060  contract DiceGame {\r... */\n      mstore(0x40, 0x80)\n      jumpi(tag_1, lt(calldatasize, 0x04))\n      shr(0xe0, calldataload(0x00))\n      dup1\n      0x09660513\n      eq\n      tag_2\n      jumpi\n      dup1\n      0x0d0aa44a\n      eq\n      tag_3\n      jumpi\n      dup1\n      0x481c6a75\n      eq\n      tag_4\n      jumpi\n      dup1\n      0x886dc4d3\n      eq\n      tag_5\n      jumpi\n      dup1\n      0xd7c81b55\n      eq\n      tag_6\n      jumpi\n      dup1\n      0xf5e71f1a\n      eq\n      tag_7\n      jumpi\n    tag_1:\n      0x00\n      dup1\n      revert\n        /* \"diceGame.sol\":3753:4057  function getGameById(uint id) public view returns(uint8 winningValue, uint restBalance, uint gameBalance, uint minimumBet) {\r... */\n    tag_2:\n      callvalue\n        /* \"--CODEGEN--\":8:17   */\n      dup1\n        /* \"--CODEGEN--\":5:7   */\n      iszero\n      tag_8\n      jumpi\n        /* \"--CODEGEN--\":30:31   */\n      0x00\n        /* \"--CODEGEN--\":27:28   */\n      dup1\n        /* \"--CODEGEN--\":20:32   */\n      revert\n        /* \"--CODEGEN--\":5:7   */\n    tag_8:\n        /* \"diceGame.sol\":3753:4057  function getGameById(uint id) public view returns(uint8 winningValue, uint restBalance, uint gameBalance, uint minimumBet) {\r... */\n      pop\n      tag_9\n      0x04\n      dup1\n      calldatasize\n      sub\n        /* \"--CODEGEN--\":13:15   */\n      0x20\n        /* \"--CODEGEN--\":8:11   */\n      dup2\n        /* \"--CODEGEN--\":5:16   */\n      lt\n        /* \"--CODEGEN--\":2:4   */\n      iszero\n      tag_10\n      jumpi\n        /* \"--CODEGEN--\":29:30   */\n      0x00\n        /* \"--CODEGEN--\":26:27   */\n      dup1\n        /* \"--CODEGEN--\":19:31   */\n      revert\n        /* \"--CODEGEN--\":2:4   */\n    tag_10:\n        /* \"diceGame.sol\":3753:4057  function getGameById(uint id) public view returns(uint8 winningValue, uint restBalance, uint gameBalance, uint minimumBet) {\r... */\n      dup2\n      add\n      swap1\n      dup1\n      dup1\n      calldataload\n      swap1\n      0x20\n      add\n      swap1\n      swap3\n      swap2\n      swap1\n      pop\n      pop\n      pop\n      tag_11\n      jump\t// in\n    tag_9:\n      mload(0x40)\n      dup1\n      dup6\n      0xff\n      and\n      0xff\n      and\n      dup2\n      mstore\n      0x20\n      add\n      dup5\n      dup2\n      mstore\n      0x20\n      add\n      dup4\n      dup2\n      mstore\n      0x20\n      add\n      dup3\n      dup2\n      mstore\n      0x20\n      add\n      swap5\n      pop\n      pop\n      pop\n      pop\n      pop\n      mload(0x40)\n      dup1\n      swap2\n      sub\n      swap1\n      return\n        /* \"diceGame.sol\":965:1588  function setUserBetAndHash(bytes32 hashValue) public payable {\r... */\n    tag_3:\n      tag_12\n      0x04\n      dup1\n      calldatasize\n      sub\n        /* \"--CODEGEN--\":13:15   */\n      0x20\n        /* \"--CODEGEN--\":8:11   */\n      dup2\n        /* \"--CODEGEN--\":5:16   */\n      lt\n        /* \"--CODEGEN--\":2:4   */\n      iszero\n      tag_13\n      jumpi\n        /* \"--CODEGEN--\":29:30   */\n      0x00\n        /* \"--CODEGEN--\":26:27   */\n      dup1\n        /* \"--CODEGEN--\":19:31   */\n      revert\n        /* \"--CODEGEN--\":2:4   */\n    tag_13:\n        /* \"diceGame.sol\":965:1588  function setUserBetAndHash(bytes32 hashValue) public payable {\r... */\n      dup2\n      add\n      swap1\n      dup1\n      dup1\n      calldataload\n      swap1\n      0x20\n      add\n      swap1\n      swap3\n      swap2\n      swap1\n      pop\n      pop\n      pop\n      tag_14\n      jump\t// in\n    tag_12:\n      stop\n        /* \"diceGame.sol\":53:75  address public manager */\n    tag_4:\n      callvalue\n        /* \"--CODEGEN--\":8:17   */\n      dup1\n        /* \"--CODEGEN--\":5:7   */\n      iszero\n      tag_15\n      jumpi\n        /* \"--CODEGEN--\":30:31   */\n      0x00\n        /* \"--CODEGEN--\":27:28   */\n      dup1\n        /* \"--CODEGEN--\":20:32   */\n      revert\n        /* \"--CODEGEN--\":5:7   */\n    tag_15:\n        /* \"diceGame.sol\":53:75  address public manager */\n      pop\n      tag_16\n      tag_17\n      jump\t// in\n    tag_16:\n      mload(0x40)\n      dup1\n      dup3\n      0xffffffffffffffffffffffffffffffffffffffff\n      and\n      0xffffffffffffffffffffffffffffffffffffffff\n      and\n      dup2\n      mstore\n      0x20\n      add\n      swap2\n      pop\n      pop\n      mload(0x40)\n      dup1\n      swap2\n      sub\n      swap1\n      return\n        /* \"diceGame.sol\":2200:2715  function receiveMoney(uint8 userValue, uint _gameId) public payable returns (bool) {\r... */\n    tag_5:\n      tag_18\n      0x04\n      dup1\n      calldatasize\n      sub\n        /* \"--CODEGEN--\":13:15   */\n      0x40\n        /* \"--CODEGEN--\":8:11   */\n      dup2\n        /* \"--CODEGEN--\":5:16   */\n      lt\n        /* \"--CODEGEN--\":2:4   */\n      iszero\n      tag_19\n      jumpi\n        /* \"--CODEGEN--\":29:30   */\n      0x00\n        /* \"--CODEGEN--\":26:27   */\n      dup1\n        /* \"--CODEGEN--\":19:31   */\n      revert\n        /* \"--CODEGEN--\":2:4   */\n    tag_19:\n        /* \"diceGame.sol\":2200:2715  function receiveMoney(uint8 userValue, uint _gameId) public payable returns (bool) {\r... */\n      dup2\n      add\n      swap1\n      dup1\n      dup1\n      calldataload\n      0xff\n      and\n      swap1\n      0x20\n      add\n      swap1\n      swap3\n      swap2\n      swap1\n      dup1\n      calldataload\n      swap1\n      0x20\n      add\n      swap1\n      swap3\n      swap2\n      swap1\n      pop\n      pop\n      pop\n      tag_20\n      jump\t// in\n    tag_18:\n      mload(0x40)\n      dup1\n      dup3\n      iszero\n      iszero\n      iszero\n      iszero\n      dup2\n      mstore\n      0x20\n      add\n      swap2\n      pop\n      pop\n      mload(0x40)\n      dup1\n      swap2\n      sub\n      swap1\n      return\n        /* \"diceGame.sol\":82:100  uint public gameId */\n    tag_6:\n      callvalue\n        /* \"--CODEGEN--\":8:17   */\n      dup1\n        /* \"--CODEGEN--\":5:7   */\n      iszero\n      tag_21\n      jumpi\n        /* \"--CODEGEN--\":30:31   */\n      0x00\n        /* \"--CODEGEN--\":27:28   */\n      dup1\n        /* \"--CODEGEN--\":20:32   */\n      revert\n        /* \"--CODEGEN--\":5:7   */\n    tag_21:\n        /* \"diceGame.sol\":82:100  uint public gameId */\n      pop\n      tag_22\n      tag_23\n      jump\t// in\n    tag_22:\n      mload(0x40)\n      dup1\n      dup3\n      dup2\n      mstore\n      0x20\n      add\n      swap2\n      pop\n      pop\n      mload(0x40)\n      dup1\n      swap2\n      sub\n      swap1\n      return\n        /* \"diceGame.sol\":3513:3741  function newGame(uint8 dice, uint _minimumBet) public isManager returns (bool) {\r... */\n    tag_7:\n      callvalue\n        /* \"--CODEGEN--\":8:17   */\n      dup1\n        /* \"--CODEGEN--\":5:7   */\n      iszero\n      tag_24\n      jumpi\n        /* \"--CODEGEN--\":30:31   */\n      0x00\n        /* \"--CODEGEN--\":27:28   */\n      dup1\n        /* \"--CODEGEN--\":20:32   */\n      revert\n        /* \"--CODEGEN--\":5:7   */\n    tag_24:\n        /* \"diceGame.sol\":3513:3741  function newGame(uint8 dice, uint _minimumBet) public isManager returns (bool) {\r... */\n      pop\n      tag_25\n      0x04\n      dup1\n      calldatasize\n      sub\n        /* \"--CODEGEN--\":13:15   */\n      0x40\n        /* \"--CODEGEN--\":8:11   */\n      dup2\n        /* \"--CODEGEN--\":5:16   */\n      lt\n        /* \"--CODEGEN--\":2:4   */\n      iszero\n      tag_26\n      jumpi\n        /* \"--CODEGEN--\":29:30   */\n      0x00\n        /* \"--CODEGEN--\":26:27   */\n      dup1\n        /* \"--CODEGEN--\":19:31   */\n      revert\n        /* \"--CODEGEN--\":2:4   */\n    tag_26:\n        /* \"diceGame.sol\":3513:3741  function newGame(uint8 dice, uint _minimumBet) public isManager returns (bool) {\r... */\n      dup2\n      add\n      swap1\n      dup1\n      dup1\n      calldataload\n      0xff\n      and\n      swap1\n      0x20\n      add\n      swap1\n      swap3\n      swap2\n      swap1\n      dup1\n      calldataload\n      swap1\n      0x20\n      add\n      swap1\n      swap3\n      swap2\n      swap1\n      pop\n      pop\n      pop\n      tag_27\n      jump\t// in\n    tag_25:\n      mload(0x40)\n      dup1\n      dup3\n      iszero\n      iszero\n      iszero\n      iszero\n      dup2\n      mstore\n      0x20\n      add\n      swap2\n      pop\n      pop\n      mload(0x40)\n      dup1\n      swap2\n      sub\n      swap1\n      return\n        /* \"diceGame.sol\":3753:4057  function getGameById(uint id) public view returns(uint8 winningValue, uint restBalance, uint gameBalance, uint minimumBet) {\r... */\n    tag_11:\n        /* \"diceGame.sol\":3803:3821  uint8 winningValue */\n      0x00\n        /* \"diceGame.sol\":3823:3839  uint restBalance */\n      dup1\n        /* \"diceGame.sol\":3841:3857  uint gameBalance */\n      0x00\n        /* \"diceGame.sol\":3859:3874  uint minimumBet */\n      dup1\n        /* \"diceGame.sol\":3909:3914  games */\n      0x02\n        /* \"diceGame.sol\":3909:3918  games[id] */\n      0x00\n        /* \"diceGame.sol\":3915:3917  id */\n      dup7\n        /* \"diceGame.sol\":3909:3918  games[id] */\n      dup2\n      mstore\n      0x20\n      add\n      swap1\n      dup2\n      mstore\n      0x20\n      add\n      0x00\n      keccak256\n        /* \"diceGame.sol\":3909:3931  games[id].winningValue */\n      0x02\n      add\n      0x00\n      swap1\n      sload\n      swap1\n      0x0100\n      exp\n      swap1\n      div\n      0xff\n      and\n        /* \"diceGame.sol\":3946:3951  games */\n      0x02\n        /* \"diceGame.sol\":3946:3955  games[id] */\n      0x00\n        /* \"diceGame.sol\":3952:3954  id */\n      dup8\n        /* \"diceGame.sol\":3946:3955  games[id] */\n      dup2\n      mstore\n      0x20\n      add\n      swap1\n      dup2\n      mstore\n      0x20\n      add\n      0x00\n      keccak256\n        /* \"diceGame.sol\":3946:3967  games[id].restBalance */\n      0x05\n      add\n      sload\n        /* \"diceGame.sol\":3982:3987  games */\n      0x02\n        /* \"diceGame.sol\":3982:3991  games[id] */\n      0x00\n        /* \"diceGame.sol\":3988:3990  id */\n      dup9\n        /* \"diceGame.sol\":3982:3991  games[id] */\n      dup2\n      mstore\n      0x20\n      add\n      swap1\n      dup2\n      mstore\n      0x20\n      add\n      0x00\n      keccak256\n        /* \"diceGame.sol\":3982:4003  games[id].gameBalance */\n      0x06\n      add\n      sload\n        /* \"diceGame.sol\":4018:4023  games */\n      0x02\n        /* \"diceGame.sol\":4018:4027  games[id] */\n      0x00\n        /* \"diceGame.sol\":4024:4026  id */\n      dup10\n        /* \"diceGame.sol\":4018:4027  games[id] */\n      dup2\n      mstore\n      0x20\n      add\n      swap1\n      dup2\n      mstore\n      0x20\n      add\n      0x00\n      keccak256\n        /* \"diceGame.sol\":4018:4038  games[id].minimumBet */\n      0x07\n      add\n      sload\n        /* \"diceGame.sol\":3887:4049  return (\r... */\n      swap4\n      pop\n      swap4\n      pop\n      swap4\n      pop\n      swap4\n      pop\n        /* \"diceGame.sol\":3753:4057  function getGameById(uint id) public view returns(uint8 winningValue, uint restBalance, uint gameBalance, uint minimumBet) {\r... */\n      swap2\n      swap4\n      pop\n      swap2\n      swap4\n      jump\t// out\n        /* \"diceGame.sol\":965:1588  function setUserBetAndHash(bytes32 hashValue) public payable {\r... */\n    tag_14:\n        /* \"diceGame.sol\":1037:1058  address senderAddress */\n      0x00\n        /* \"diceGame.sol\":1061:1071  msg.sender */\n      caller\n        /* \"diceGame.sol\":1037:1071  address senderAddress = msg.sender */\n      swap1\n      pop\n        /* \"diceGame.sol\":1107:1114  manager */\n      0x00\n      dup1\n      swap1\n      sload\n      swap1\n      0x0100\n      exp\n      swap1\n      div\n      0xffffffffffffffffffffffffffffffffffffffff\n      and\n        /* \"diceGame.sol\":1090:1114  senderAddress != manager */\n      0xffffffffffffffffffffffffffffffffffffffff\n      and\n        /* \"diceGame.sol\":1090:1103  senderAddress */\n      dup2\n        /* \"diceGame.sol\":1090:1114  senderAddress != manager */\n      0xffffffffffffffffffffffffffffffffffffffff\n      and\n      eq\n      iszero\n        /* \"diceGame.sol\":1082:1145  require(senderAddress != manager, \"Manager cannot bet a value\") */\n      tag_30\n      jumpi\n      mload(0x40)\n      0x08c379a000000000000000000000000000000000000000000000000000000000\n      dup2\n      mstore\n      0x04\n      add\n      dup1\n      dup1\n      0x20\n      add\n      dup3\n      dup2\n      sub\n      dup3\n      mstore\n      0x1a\n      dup2\n      mstore\n      0x20\n      add\n      dup1\n      0x4d616e616765722063616e6e6f742062657420612076616c7565000000000000\n      dup2\n      mstore\n      pop\n      0x20\n      add\n      swap2\n      pop\n      pop\n      mload(0x40)\n      dup1\n      swap2\n      sub\n      swap1\n      revert\n    tag_30:\n        /* \"diceGame.sol\":1214:1215  0 */\n      0x00\n        /* \"diceGame.sol\":1164:1215  games[gameId].players[senderAddress].hashValue == 0 */\n      dup1\n      shl\n        /* \"diceGame.sol\":1164:1169  games */\n      0x02\n        /* \"diceGame.sol\":1164:1177  games[gameId] */\n      0x00\n        /* \"diceGame.sol\":1170:1176  gameId */\n      sload(0x01)\n        /* \"diceGame.sol\":1164:1177  games[gameId] */\n      dup2\n      mstore\n      0x20\n      add\n      swap1\n      dup2\n      mstore\n      0x20\n      add\n      0x00\n      keccak256\n        /* \"diceGame.sol\":1164:1185  games[gameId].players */\n      0x00\n      add\n        /* \"diceGame.sol\":1164:1200  games[gameId].players[senderAddress] */\n      0x00\n        /* \"diceGame.sol\":1186:1199  senderAddress */\n      dup4\n        /* \"diceGame.sol\":1164:1200  games[gameId].players[senderAddress] */\n      0xffffffffffffffffffffffffffffffffffffffff\n      and\n      0xffffffffffffffffffffffffffffffffffffffff\n      and\n      dup2\n      mstore\n      0x20\n      add\n      swap1\n      dup2\n      mstore\n      0x20\n      add\n      0x00\n      keccak256\n        /* \"diceGame.sol\":1164:1210  games[gameId].players[senderAddress].hashValue */\n      0x00\n      add\n      sload\n        /* \"diceGame.sol\":1164:1215  games[gameId].players[senderAddress].hashValue == 0 */\n      eq\n        /* \"diceGame.sol\":1156:1245  require(games[gameId].players[senderAddress].hashValue == 0, \"Player already bet number\") */\n      tag_31\n      jumpi\n      mload(0x40)\n      0x08c379a000000000000000000000000000000000000000000000000000000000\n      dup2\n      mstore\n      0x04\n      add\n      dup1\n      dup1\n      0x20\n      add\n      dup3\n      dup2\n      sub\n      dup3\n      mstore\n      0x19\n      dup2\n      mstore\n      0x20\n      add\n      dup1\n      0x506c6179657220616c726561647920626574206e756d62657200000000000000\n      dup2\n      mstore\n      pop\n      0x20\n      add\n      swap2\n      pop\n      pop\n      mload(0x40)\n      dup1\n      swap2\n      sub\n      swap1\n      revert\n    tag_31:\n        /* \"diceGame.sol\":1277:1282  games */\n      0x02\n        /* \"diceGame.sol\":1277:1290  games[gameId] */\n      0x00\n        /* \"diceGame.sol\":1283:1289  gameId */\n      sload(0x01)\n        /* \"diceGame.sol\":1277:1290  games[gameId] */\n      dup2\n      mstore\n      0x20\n      add\n      swap1\n      dup2\n      mstore\n      0x20\n      add\n      0x00\n      keccak256\n        /* \"diceGame.sol\":1277:1301  games[gameId].minimumBet */\n      0x07\n      add\n      sload\n        /* \"diceGame.sol\":1264:1273  msg.value */\n      callvalue\n        /* \"diceGame.sol\":1264:1301  msg.value >= games[gameId].minimumBet */\n      lt\n      iszero\n        /* \"diceGame.sol\":1256:1334  require(msg.value >= games[gameId].minimumBet, \"You Bet less then minimumBet\") */\n      tag_32\n      jumpi\n      mload(0x40)\n      0x08c379a000000000000000000000000000000000000000000000000000000000\n      dup2\n      mstore\n      0x04\n      add\n      dup1\n      dup1\n      0x20\n      add\n      dup3\n      dup2\n      sub\n      dup3\n      mstore\n      0x1c\n      dup2\n      mstore\n      0x20\n      add\n      dup1\n      0x596f7520426574206c657373207468656e206d696e696d756d42657400000000\n      dup2\n      mstore\n      pop\n      0x20\n      add\n      swap2\n      pop\n      pop\n      mload(0x40)\n      dup1\n      swap2\n      sub\n      swap1\n      revert\n    tag_32:\n        /* \"diceGame.sol\":1394:1403  hashValue */\n      dup2\n        /* \"diceGame.sol\":1345:1350  games */\n      0x02\n        /* \"diceGame.sol\":1345:1358  games[gameId] */\n      0x00\n        /* \"diceGame.sol\":1351:1357  gameId */\n      sload(0x01)\n        /* \"diceGame.sol\":1345:1358  games[gameId] */\n      dup2\n      mstore\n      0x20\n      add\n      swap1\n      dup2\n      mstore\n      0x20\n      add\n      0x00\n      keccak256\n        /* \"diceGame.sol\":1345:1366  games[gameId].players */\n      0x00\n      add\n        /* \"diceGame.sol\":1345:1381  games[gameId].players[senderAddress] */\n      0x00\n        /* \"diceGame.sol\":1367:1380  senderAddress */\n      dup4\n        /* \"diceGame.sol\":1345:1381  games[gameId].players[senderAddress] */\n      0xffffffffffffffffffffffffffffffffffffffff\n      and\n      0xffffffffffffffffffffffffffffffffffffffff\n      and\n      dup2\n      mstore\n      0x20\n      add\n      swap1\n      dup2\n      mstore\n      0x20\n      add\n      0x00\n      keccak256\n        /* \"diceGame.sol\":1345:1391  games[gameId].players[senderAddress].hashValue */\n      0x00\n      add\n        /* \"diceGame.sol\":1345:1403  games[gameId].players[senderAddress].hashValue = hashValue */\n      dup2\n      swap1\n      sstore\n      pop\n        /* \"diceGame.sol\":1462:1471  msg.value */\n      callvalue\n        /* \"diceGame.sol\":1414:1419  games */\n      0x02\n        /* \"diceGame.sol\":1414:1427  games[gameId] */\n      0x00\n        /* \"diceGame.sol\":1420:1426  gameId */\n      sload(0x01)\n        /* \"diceGame.sol\":1414:1427  games[gameId] */\n      dup2\n      mstore\n      0x20\n      add\n      swap1\n      dup2\n      mstore\n      0x20\n      add\n      0x00\n      keccak256\n        /* \"diceGame.sol\":1414:1435  games[gameId].players */\n      0x00\n      add\n        /* \"diceGame.sol\":1414:1450  games[gameId].players[senderAddress] */\n      0x00\n        /* \"diceGame.sol\":1436:1449  senderAddress */\n      dup4\n        /* \"diceGame.sol\":1414:1450  games[gameId].players[senderAddress] */\n      0xffffffffffffffffffffffffffffffffffffffff\n      and\n      0xffffffffffffffffffffffffffffffffffffffff\n      and\n      dup2\n      mstore\n      0x20\n      add\n      swap1\n      dup2\n      mstore\n      0x20\n      add\n      0x00\n      keccak256\n        /* \"diceGame.sol\":1414:1459  games[gameId].players[senderAddress].betValue */\n      0x01\n      add\n        /* \"diceGame.sol\":1414:1471  games[gameId].players[senderAddress].betValue = msg.value */\n      dup2\n      swap1\n      sstore\n      pop\n        /* \"diceGame.sol\":1482:1487  games */\n      0x02\n        /* \"diceGame.sol\":1482:1495  games[gameId] */\n      0x00\n        /* \"diceGame.sol\":1488:1494  gameId */\n      sload(0x01)\n        /* \"diceGame.sol\":1482:1495  games[gameId] */\n      dup2\n      mstore\n      0x20\n      add\n      swap1\n      dup2\n      mstore\n      0x20\n      add\n      0x00\n      keccak256\n        /* \"diceGame.sol\":1482:1511  games[gameId].playerAddresses */\n      0x01\n      add\n        /* \"diceGame.sol\":1517:1530  senderAddress */\n      dup2\n        /* \"diceGame.sol\":1482:1531  games[gameId].playerAddresses.push(senderAddress) */\n      swap1\n      dup1\n        /* \"--CODEGEN--\":39:40   */\n      0x01\n        /* \"--CODEGEN--\":33:36   */\n      dup2\n        /* \"--CODEGEN--\":27:37   */\n      sload\n        /* \"--CODEGEN--\":23:41   */\n      add\n        /* \"--CODEGEN--\":57:67   */\n      dup1\n        /* \"--CODEGEN--\":52:55   */\n      dup3\n        /* \"--CODEGEN--\":45:68   */\n      sstore\n        /* \"--CODEGEN--\":79:89   */\n      dup1\n        /* \"--CODEGEN--\":72:89   */\n      swap2\n      pop\n        /* \"--CODEGEN--\":0:93   */\n      pop\n        /* \"diceGame.sol\":1482:1531  games[gameId].playerAddresses.push(senderAddress) */\n      swap1\n      0x01\n      dup3\n      sub\n      swap1\n      0x00\n      mstore\n      keccak256(0x00, 0x20)\n      add\n      0x00\n      swap1\n      swap2\n      swap3\n      swap1\n      swap2\n      swap1\n      swap2\n      0x0100\n      exp\n      dup2\n      sload\n      dup2\n      0xffffffffffffffffffffffffffffffffffffffff\n      mul\n      not\n      and\n      swap1\n      dup4\n      0xffffffffffffffffffffffffffffffffffffffff\n      and\n      mul\n      or\n      swap1\n      sstore\n      pop\n      pop\n        /* \"diceGame.sol\":1571:1580  msg.value */\n      callvalue\n        /* \"diceGame.sol\":1542:1547  games */\n      0x02\n        /* \"diceGame.sol\":1542:1555  games[gameId] */\n      0x00\n        /* \"diceGame.sol\":1548:1554  gameId */\n      sload(0x01)\n        /* \"diceGame.sol\":1542:1555  games[gameId] */\n      dup2\n      mstore\n      0x20\n      add\n      swap1\n      dup2\n      mstore\n      0x20\n      add\n      0x00\n      keccak256\n        /* \"diceGame.sol\":1542:1567  games[gameId].gameBalance */\n      0x06\n      add\n      0x00\n        /* \"diceGame.sol\":1542:1580  games[gameId].gameBalance += msg.value */\n      dup3\n      dup3\n      sload\n      add\n      swap3\n      pop\n      pop\n      dup2\n      swap1\n      sstore\n      pop\n        /* \"diceGame.sol\":965:1588  function setUserBetAndHash(bytes32 hashValue) public payable {\r... */\n      pop\n      pop\n      jump\t// out\n        /* \"diceGame.sol\":53:75  address public manager */\n    tag_17:\n      0x00\n      dup1\n      swap1\n      sload\n      swap1\n      0x0100\n      exp\n      swap1\n      div\n      0xffffffffffffffffffffffffffffffffffffffff\n      and\n      dup2\n      jump\t// out\n        /* \"diceGame.sol\":2200:2715  function receiveMoney(uint8 userValue, uint _gameId) public payable returns (bool) {\r... */\n    tag_20:\n        /* \"diceGame.sol\":2277:2281  bool */\n      0x00\n        /* \"diceGame.sol\":2298:2332  checkUserValue(userValue, _gameId) */\n      tag_35\n        /* \"diceGame.sol\":2313:2322  userValue */\n      dup4\n        /* \"diceGame.sol\":2324:2331  _gameId */\n      dup4\n        /* \"diceGame.sol\":2298:2312  checkUserValue */\n      tag_36\n        /* \"diceGame.sol\":2298:2332  checkUserValue(userValue, _gameId) */\n      jump\t// in\n    tag_35:\n        /* \"diceGame.sol\":2294:2708  if (checkUserValue(userValue, _gameId)) {\r... */\n      iszero\n      tag_37\n      jumpi\n        /* \"diceGame.sol\":2349:2359  uint money */\n      0x00\n        /* \"diceGame.sol\":2437:2442  games */\n      0x02\n        /* \"diceGame.sol\":2437:2451  games[_gameId] */\n      0x00\n        /* \"diceGame.sol\":2443:2450  _gameId */\n      dup5\n        /* \"diceGame.sol\":2437:2451  games[_gameId] */\n      dup2\n      mstore\n      0x20\n      add\n      swap1\n      dup2\n      mstore\n      0x20\n      add\n      0x00\n      keccak256\n        /* \"diceGame.sol\":2437:2469  games[_gameId].allWinnersBalance */\n      0x04\n      add\n      sload\n        /* \"diceGame.sol\":2408:2413  games */\n      0x02\n        /* \"diceGame.sol\":2408:2422  games[_gameId] */\n      0x00\n        /* \"diceGame.sol\":2414:2421  _gameId */\n      dup6\n        /* \"diceGame.sol\":2408:2422  games[_gameId] */\n      dup2\n      mstore\n      0x20\n      add\n      swap1\n      dup2\n      mstore\n      0x20\n      add\n      0x00\n      keccak256\n        /* \"diceGame.sol\":2408:2434  games[_gameId].gameBalance */\n      0x06\n      add\n      sload\n        /* \"diceGame.sol\":2362:2367  games */\n      0x02\n        /* \"diceGame.sol\":2362:2376  games[_gameId] */\n      0x00\n        /* \"diceGame.sol\":2368:2375  _gameId */\n      dup7\n        /* \"diceGame.sol\":2362:2376  games[_gameId] */\n      dup2\n      mstore\n      0x20\n      add\n      swap1\n      dup2\n      mstore\n      0x20\n      add\n      0x00\n      keccak256\n        /* \"diceGame.sol\":2362:2384  games[_gameId].players */\n      0x00\n      add\n        /* \"diceGame.sol\":2362:2396  games[_gameId].players[msg.sender] */\n      0x00\n        /* \"diceGame.sol\":2385:2395  msg.sender */\n      caller\n        /* \"diceGame.sol\":2362:2396  games[_gameId].players[msg.sender] */\n      0xffffffffffffffffffffffffffffffffffffffff\n      and\n      0xffffffffffffffffffffffffffffffffffffffff\n      and\n      dup2\n      mstore\n      0x20\n      add\n      swap1\n      dup2\n      mstore\n      0x20\n      add\n      0x00\n      keccak256\n        /* \"diceGame.sol\":2362:2405  games[_gameId].players[msg.sender].betValue */\n      0x01\n      add\n      sload\n        /* \"diceGame.sol\":2362:2434  games[_gameId].players[msg.sender].betValue * games[_gameId].gameBalance */\n      mul\n        /* \"diceGame.sol\":2362:2469  games[_gameId].players[msg.sender].betValue * games[_gameId].gameBalance / games[_gameId].allWinnersBalance */\n      dup2\n      tag_38\n      jumpi\n      invalid\n    tag_38:\n      div\n        /* \"diceGame.sol\":2349:2469  uint money = games[_gameId].players[msg.sender].betValue * games[_gameId].gameBalance / games[_gameId].allWinnersBalance */\n      swap1\n      pop\n        /* \"diceGame.sol\":2484:2494  msg.sender */\n      caller\n        /* \"diceGame.sol\":2484:2503  msg.sender.transfer */\n      0xffffffffffffffffffffffffffffffffffffffff\n      and\n        /* \"diceGame.sol\":2484:2510  msg.sender.transfer(money) */\n      0x08fc\n        /* \"diceGame.sol\":2504:2509  money */\n      dup3\n        /* \"diceGame.sol\":2484:2510  msg.sender.transfer(money) */\n      swap1\n      dup2\n      iszero\n      mul\n      swap1\n      mload(0x40)\n      0x00\n      mload(0x40)\n      dup1\n      dup4\n      sub\n      dup2\n      dup6\n      dup9\n      dup9\n      call\n      swap4\n      pop\n      pop\n      pop\n      pop\n      iszero\n        /* \"--CODEGEN--\":8:17   */\n      dup1\n        /* \"--CODEGEN--\":5:7   */\n      iszero\n      tag_39\n      jumpi\n        /* \"--CODEGEN--\":45:61   */\n      returndatasize\n        /* \"--CODEGEN--\":42:43   */\n      0x00\n        /* \"--CODEGEN--\":39:40   */\n      dup1\n        /* \"--CODEGEN--\":24:62   */\n      returndatacopy\n        /* \"--CODEGEN--\":77:93   */\n      returndatasize\n        /* \"--CODEGEN--\":74:75   */\n      0x00\n        /* \"--CODEGEN--\":67:94   */\n      revert\n        /* \"--CODEGEN--\":5:7   */\n    tag_39:\n        /* \"diceGame.sol\":2484:2510  msg.sender.transfer(money) */\n      pop\n        /* \"diceGame.sol\":2555:2560  money */\n      dup1\n        /* \"diceGame.sol\":2525:2530  games */\n      0x02\n        /* \"diceGame.sol\":2525:2539  games[_gameId] */\n      0x00\n        /* \"diceGame.sol\":2531:2538  _gameId */\n      dup6\n        /* \"diceGame.sol\":2525:2539  games[_gameId] */\n      dup2\n      mstore\n      0x20\n      add\n      swap1\n      dup2\n      mstore\n      0x20\n      add\n      0x00\n      keccak256\n        /* \"diceGame.sol\":2525:2551  games[_gameId].restBalance */\n      0x05\n      add\n      0x00\n        /* \"diceGame.sol\":2525:2560  games[_gameId].restBalance -= money */\n      dup3\n      dup3\n      sload\n      sub\n      swap3\n      pop\n      pop\n      dup2\n      swap1\n      sstore\n      pop\n        /* \"diceGame.sol\":2621:2625  true */\n      0x01\n        /* \"diceGame.sol\":2575:2580  games */\n      0x02\n        /* \"diceGame.sol\":2575:2589  games[_gameId] */\n      0x00\n        /* \"diceGame.sol\":2581:2588  _gameId */\n      dup6\n        /* \"diceGame.sol\":2575:2589  games[_gameId] */\n      dup2\n      mstore\n      0x20\n      add\n      swap1\n      dup2\n      mstore\n      0x20\n      add\n      0x00\n      keccak256\n        /* \"diceGame.sol\":2575:2597  games[_gameId].players */\n      0x00\n      add\n        /* \"diceGame.sol\":2575:2609  games[_gameId].players[msg.sender] */\n      0x00\n        /* \"diceGame.sol\":2598:2608  msg.sender */\n      caller\n        /* \"diceGame.sol\":2575:2609  games[_gameId].players[msg.sender] */\n      0xffffffffffffffffffffffffffffffffffffffff\n      and\n      0xffffffffffffffffffffffffffffffffffffffff\n      and\n      dup2\n      mstore\n      0x20\n      add\n      swap1\n      dup2\n      mstore\n      0x20\n      add\n      0x00\n      keccak256\n        /* \"diceGame.sol\":2575:2618  games[_gameId].players[msg.sender].received */\n      0x02\n      add\n      0x00\n        /* \"diceGame.sol\":2575:2625  games[_gameId].players[msg.sender].received = true */\n      0x0100\n      exp\n      dup2\n      sload\n      dup2\n      0xff\n      mul\n      not\n      and\n      swap1\n      dup4\n      iszero\n      iszero\n      mul\n      or\n      swap1\n      sstore\n      pop\n        /* \"diceGame.sol\":2647:2651  true */\n      0x01\n        /* \"diceGame.sol\":2640:2651  return true */\n      swap2\n      pop\n      pop\n      jump(tag_34)\n        /* \"diceGame.sol\":2294:2708  if (checkUserValue(userValue, _gameId)) {\r... */\n    tag_37:\n        /* \"diceGame.sol\":2691:2696  false */\n      0x00\n        /* \"diceGame.sol\":2684:2696  return false */\n      swap1\n      pop\n        /* \"diceGame.sol\":2200:2715  function receiveMoney(uint8 userValue, uint _gameId) public payable returns (bool) {\r... */\n    tag_34:\n      swap3\n      swap2\n      pop\n      pop\n      jump\t// out\n        /* \"diceGame.sol\":82:100  uint public gameId */\n    tag_23:\n      sload(0x01)\n      dup2\n      jump\t// out\n        /* \"diceGame.sol\":3513:3741  function newGame(uint8 dice, uint _minimumBet) public isManager returns (bool) {\r... */\n    tag_27:\n        /* \"diceGame.sol\":3586:3590  bool */\n      0x00\n        /* \"diceGame.sol\":733:740  manager */\n      dup1\n      0x00\n      swap1\n      sload\n      swap1\n      0x0100\n      exp\n      swap1\n      div\n      0xffffffffffffffffffffffffffffffffffffffff\n      and\n        /* \"diceGame.sol\":719:740  msg.sender == manager */\n      0xffffffffffffffffffffffffffffffffffffffff\n      and\n        /* \"diceGame.sol\":719:729  msg.sender */\n      caller\n        /* \"diceGame.sol\":719:740  msg.sender == manager */\n      0xffffffffffffffffffffffffffffffffffffffff\n      and\n      eq\n        /* \"diceGame.sol\":711:780  require(msg.sender == manager, \"Only manager can call this function\") */\n      tag_42\n      jumpi\n      mload(0x40)\n      0x08c379a000000000000000000000000000000000000000000000000000000000\n      dup2\n      mstore\n      0x04\n      add\n      dup1\n      dup1\n      0x20\n      add\n      dup3\n      dup2\n      sub\n      dup3\n      mstore\n      0x23\n      dup2\n      mstore\n      0x20\n      add\n      dup1\n      data_4a8d8e59ed510e06a8e0260cfe413b20861d9f571b155941f3970d9306e4b948\n      0x23\n      swap2\n      codecopy\n      0x40\n      add\n      swap2\n      pop\n      pop\n      mload(0x40)\n      dup1\n      swap2\n      sub\n      swap1\n      revert\n    tag_42:\n        /* \"diceGame.sol\":3603:3623  setServerValue(dice) */\n      tag_44\n        /* \"diceGame.sol\":3618:3622  dice */\n      dup4\n        /* \"diceGame.sol\":3603:3617  setServerValue */\n      tag_45\n        /* \"diceGame.sol\":3603:3623  setServerValue(dice) */\n      jump\t// in\n    tag_44:\n        /* \"diceGame.sol\":3634:3643  setGame() */\n      tag_46\n        /* \"diceGame.sol\":3634:3641  setGame */\n      tag_47\n        /* \"diceGame.sol\":3634:3643  setGame() */\n      jump\t// in\n    tag_46:\n        /* \"diceGame.sol\":3654:3660  gameId */\n      0x01\n      0x00\n        /* \"diceGame.sol\":3654:3662  gameId++ */\n      dup2\n      sload\n      dup1\n      swap3\n      swap2\n      swap1\n      0x01\n      add\n      swap2\n      swap1\n      pop\n      sstore\n      pop\n        /* \"diceGame.sol\":3700:3711  _minimumBet */\n      dup2\n        /* \"diceGame.sol\":3673:3678  games */\n      0x02\n        /* \"diceGame.sol\":3673:3686  games[gameId] */\n      0x00\n        /* \"diceGame.sol\":3679:3685  gameId */\n      sload(0x01)\n        /* \"diceGame.sol\":3673:3686  games[gameId] */\n      dup2\n      mstore\n      0x20\n      add\n      swap1\n      dup2\n      mstore\n      0x20\n      add\n      0x00\n      keccak256\n        /* \"diceGame.sol\":3673:3697  games[gameId].minimumBet */\n      0x07\n      add\n        /* \"diceGame.sol\":3673:3711  games[gameId].minimumBet = _minimumBet */\n      dup2\n      swap1\n      sstore\n      pop\n        /* \"diceGame.sol\":3729:3733  true */\n      0x01\n        /* \"diceGame.sol\":3722:3733  return true */\n      swap1\n      pop\n        /* \"diceGame.sol\":3513:3741  function newGame(uint8 dice, uint _minimumBet) public isManager returns (bool) {\r... */\n      swap3\n      swap2\n      pop\n      pop\n      jump\t// out\n        /* \"diceGame.sol\":1600:2188  function checkUserValue(uint8 userValue, uint _gameId) private view between1and12(userValue) returns (bool) {\r... */\n    tag_36:\n        /* \"diceGame.sol\":1702:1706  bool */\n      0x00\n        /* \"diceGame.sol\":1682:1691  userValue */\n      dup3\n        /* \"diceGame.sol\":533:667  modifier between1and12(uint value) {\r... */\n      0xff\n      and\n        /* \"diceGame.sol\":596:597  2 */\n      0x02\n        /* \"diceGame.sol\":587:592  value */\n      dup2\n        /* \"diceGame.sol\":587:597  value >= 2 */\n      lt\n      iszero\n        /* \"diceGame.sol\":587:612  value >= 2 && value <= 12 */\n      dup1\n      iszero\n      tag_49\n      jumpi\n      pop\n        /* \"diceGame.sol\":610:612  12 */\n      0x0c\n        /* \"diceGame.sol\":601:606  value */\n      dup2\n        /* \"diceGame.sol\":601:612  value <= 12 */\n      gt\n      iszero\n        /* \"diceGame.sol\":587:612  value >= 2 && value <= 12 */\n    tag_49:\n        /* \"diceGame.sol\":579:647  require(value >= 2 && value <= 12, \"The number is not from 1 to 12\") */\n      tag_50\n      jumpi\n      mload(0x40)\n      0x08c379a000000000000000000000000000000000000000000000000000000000\n      dup2\n      mstore\n      0x04\n      add\n      dup1\n      dup1\n      0x20\n      add\n      dup3\n      dup2\n      sub\n      dup3\n      mstore\n      0x1e\n      dup2\n      mstore\n      0x20\n      add\n      dup1\n      0x546865206e756d626572206973206e6f742066726f6d203120746f2031320000\n      dup2\n      mstore\n      pop\n      0x20\n      add\n      swap2\n      pop\n      pop\n      mload(0x40)\n      dup1\n      swap2\n      sub\n      swap1\n      revert\n    tag_50:\n        /* \"diceGame.sol\":1728:1733  games */\n      0x02\n        /* \"diceGame.sol\":1728:1742  games[_gameId] */\n      0x00\n        /* \"diceGame.sol\":1734:1741  _gameId */\n      dup5\n        /* \"diceGame.sol\":1728:1742  games[_gameId] */\n      dup2\n      mstore\n      0x20\n      add\n      swap1\n      dup2\n      mstore\n      0x20\n      add\n      0x00\n      keccak256\n        /* \"diceGame.sol\":1728:1750  games[_gameId].players */\n      0x00\n      add\n        /* \"diceGame.sol\":1728:1762  games[_gameId].players[msg.sender] */\n      0x00\n        /* \"diceGame.sol\":1751:1761  msg.sender */\n      caller\n        /* \"diceGame.sol\":1728:1762  games[_gameId].players[msg.sender] */\n      0xffffffffffffffffffffffffffffffffffffffff\n      and\n      0xffffffffffffffffffffffffffffffffffffffff\n      and\n      dup2\n      mstore\n      0x20\n      add\n      swap1\n      dup2\n      mstore\n      0x20\n      add\n      0x00\n      keccak256\n        /* \"diceGame.sol\":1728:1771  games[_gameId].players[msg.sender].received */\n      0x02\n      add\n      0x00\n      swap1\n      sload\n      swap1\n      0x0100\n      exp\n      swap1\n      div\n      0xff\n      and\n        /* \"diceGame.sol\":1727:1771  !games[_gameId].players[msg.sender].received */\n      iszero\n        /* \"diceGame.sol\":1719:1806  require(!games[_gameId].players[msg.sender].received, \"Player already receive a money\") */\n      tag_52\n      jumpi\n      mload(0x40)\n      0x08c379a000000000000000000000000000000000000000000000000000000000\n      dup2\n      mstore\n      0x04\n      add\n      dup1\n      dup1\n      0x20\n      add\n      dup3\n      dup2\n      sub\n      dup3\n      mstore\n      0x1e\n      dup2\n      mstore\n      0x20\n      add\n      dup1\n      0x506c6179657220616c726561647920726563656976652061206d6f6e65790000\n      dup2\n      mstore\n      pop\n      0x20\n      add\n      swap2\n      pop\n      pop\n      mload(0x40)\n      dup1\n      swap2\n      sub\n      swap1\n      revert\n    tag_52:\n        /* \"diceGame.sol\":1836:1837  0 */\n      0x00\n        /* \"diceGame.sol\":1825:1832  _gameId */\n      dup4\n        /* \"diceGame.sol\":1825:1837  _gameId >= 0 */\n      lt\n      iszero\n        /* \"diceGame.sol\":1825:1857  _gameId >= 0 && _gameId < gameId */\n      dup1\n      iszero\n      tag_53\n      jumpi\n      pop\n        /* \"diceGame.sol\":1851:1857  gameId */\n      sload(0x01)\n        /* \"diceGame.sol\":1841:1848  _gameId */\n      dup4\n        /* \"diceGame.sol\":1841:1857  _gameId < gameId */\n      lt\n        /* \"diceGame.sol\":1825:1857  _gameId >= 0 && _gameId < gameId */\n    tag_53:\n        /* \"diceGame.sol\":1817:1879  require(_gameId >= 0 && _gameId < gameId, \"Game is not ended\") */\n      tag_54\n      jumpi\n      mload(0x40)\n      0x08c379a000000000000000000000000000000000000000000000000000000000\n      dup2\n      mstore\n      0x04\n      add\n      dup1\n      dup1\n      0x20\n      add\n      dup3\n      dup2\n      sub\n      dup3\n      mstore\n      0x11\n      dup2\n      mstore\n      0x20\n      add\n      dup1\n      0x47616d65206973206e6f7420656e646564000000000000000000000000000000\n      dup2\n      mstore\n      pop\n      0x20\n      add\n      swap2\n      pop\n      pop\n      mload(0x40)\n      dup1\n      swap2\n      sub\n      swap1\n      revert\n    tag_54:\n        /* \"diceGame.sol\":1911:1916  games */\n      0x02\n        /* \"diceGame.sol\":1911:1925  games[_gameId] */\n      0x00\n        /* \"diceGame.sol\":1917:1924  _gameId */\n      dup5\n        /* \"diceGame.sol\":1911:1925  games[_gameId] */\n      dup2\n      mstore\n      0x20\n      add\n      swap1\n      dup2\n      mstore\n      0x20\n      add\n      0x00\n      keccak256\n        /* \"diceGame.sol\":1911:1938  games[_gameId].winningValue */\n      0x02\n      add\n      0x00\n      swap1\n      sload\n      swap1\n      0x0100\n      exp\n      swap1\n      div\n      0xff\n      and\n        /* \"diceGame.sol\":1898:1938  userValue == games[_gameId].winningValue */\n      0xff\n      and\n        /* \"diceGame.sol\":1898:1907  userValue */\n      dup5\n        /* \"diceGame.sol\":1898:1938  userValue == games[_gameId].winningValue */\n      0xff\n      and\n      eq\n        /* \"diceGame.sol\":1890:1982  require(userValue == games[_gameId].winningValue, \"User input does not match winning value\") */\n      tag_55\n      jumpi\n      mload(0x40)\n      0x08c379a000000000000000000000000000000000000000000000000000000000\n      dup2\n      mstore\n      0x04\n      add\n      dup1\n      dup1\n      0x20\n      add\n      dup3\n      dup2\n      sub\n      dup3\n      mstore\n      0x27\n      dup2\n      mstore\n      0x20\n      add\n      dup1\n      data_bd091db77c2ecbf6850219e20fb7a75680b72aef5099b1fcc3fa84949d7e6ee7\n      0x27\n      swap2\n      codecopy\n      0x40\n      add\n      swap2\n      pop\n      pop\n      mload(0x40)\n      dup1\n      swap2\n      sub\n      swap1\n      revert\n    tag_55:\n        /* \"diceGame.sol\":1993:2009  bytes32 userHash */\n      0x00\n        /* \"diceGame.sol\":2033:2042  userValue */\n      dup5\n        /* \"diceGame.sol\":2022:2043  abi.encode(userValue) */\n      add(0x20, mload(0x40))\n      dup1\n      dup3\n      0xff\n      and\n      0xff\n      and\n      dup2\n      mstore\n      0x20\n      add\n      swap2\n      pop\n      pop\n      mload(0x40)\n        /* \"--CODEGEN--\":49:53   */\n      0x20\n        /* \"--CODEGEN--\":39:46   */\n      dup2\n        /* \"--CODEGEN--\":30:37   */\n      dup4\n        /* \"--CODEGEN--\":26:47   */\n      sub\n        /* \"--CODEGEN--\":22:54   */\n      sub\n        /* \"--CODEGEN--\":13:20   */\n      dup2\n        /* \"--CODEGEN--\":6:55   */\n      mstore\n        /* \"diceGame.sol\":2022:2043  abi.encode(userValue) */\n      swap1\n      0x40\n      mstore\n        /* \"diceGame.sol\":2012:2044  keccak256(abi.encode(userValue)) */\n      dup1\n      mload\n      swap1\n      0x20\n      add\n      keccak256\n        /* \"diceGame.sol\":1993:2044  bytes32 userHash = keccak256(abi.encode(userValue)) */\n      swap1\n      pop\n        /* \"diceGame.sol\":2075:2080  games */\n      0x02\n        /* \"diceGame.sol\":2075:2089  games[_gameId] */\n      0x00\n        /* \"diceGame.sol\":2081:2088  _gameId */\n      dup6\n        /* \"diceGame.sol\":2075:2089  games[_gameId] */\n      dup2\n      mstore\n      0x20\n      add\n      swap1\n      dup2\n      mstore\n      0x20\n      add\n      0x00\n      keccak256\n        /* \"diceGame.sol\":2075:2097  games[_gameId].players */\n      0x00\n      add\n        /* \"diceGame.sol\":2075:2109  games[_gameId].players[msg.sender] */\n      0x00\n        /* \"diceGame.sol\":2098:2108  msg.sender */\n      caller\n        /* \"diceGame.sol\":2075:2109  games[_gameId].players[msg.sender] */\n      0xffffffffffffffffffffffffffffffffffffffff\n      and\n      0xffffffffffffffffffffffffffffffffffffffff\n      and\n      dup2\n      mstore\n      0x20\n      add\n      swap1\n      dup2\n      mstore\n      0x20\n      add\n      0x00\n      keccak256\n        /* \"diceGame.sol\":2075:2119  games[_gameId].players[msg.sender].hashValue */\n      0x00\n      add\n      sload\n        /* \"diceGame.sol\":2063:2071  userHash */\n      dup2\n        /* \"diceGame.sol\":2063:2119  userHash == games[_gameId].players[msg.sender].hashValue */\n      eq\n        /* \"diceGame.sol\":2055:2158  require(userHash == games[_gameId].players[msg.sender].hashValue, \"User input does not match its hash\") */\n      tag_56\n      jumpi\n      mload(0x40)\n      0x08c379a000000000000000000000000000000000000000000000000000000000\n      dup2\n      mstore\n      0x04\n      add\n      dup1\n      dup1\n      0x20\n      add\n      dup3\n      dup2\n      sub\n      dup3\n      mstore\n      0x22\n      dup2\n      mstore\n      0x20\n      add\n      dup1\n      data_e1d65f7a566c51d9be51927db247995b346b03fc2927af3f18b9c547e16bcc8f\n      0x22\n      swap2\n      codecopy\n      0x40\n      add\n      swap2\n      pop\n      pop\n      mload(0x40)\n      dup1\n      swap2\n      sub\n      swap1\n      revert\n    tag_56:\n        /* \"diceGame.sol\":2176:2180  true */\n      0x01\n        /* \"diceGame.sol\":2169:2180  return true */\n      swap3\n      pop\n      pop\n        /* \"diceGame.sol\":1600:2188  function checkUserValue(uint8 userValue, uint _gameId) private view between1and12(userValue) returns (bool) {\r... */\n      pop\n      swap3\n      swap2\n      pop\n      pop\n      jump\t// out\n        /* \"diceGame.sol\":2727:2843  function setServerValue(uint8 dice) private between1and12(dice) {\r... */\n    tag_45:\n        /* \"diceGame.sol\":2785:2789  dice */\n      dup1\n        /* \"diceGame.sol\":533:667  modifier between1and12(uint value) {\r... */\n      0xff\n      and\n        /* \"diceGame.sol\":596:597  2 */\n      0x02\n        /* \"diceGame.sol\":587:592  value */\n      dup2\n        /* \"diceGame.sol\":587:597  value >= 2 */\n      lt\n      iszero\n        /* \"diceGame.sol\":587:612  value >= 2 && value <= 12 */\n      dup1\n      iszero\n      tag_58\n      jumpi\n      pop\n        /* \"diceGame.sol\":610:612  12 */\n      0x0c\n        /* \"diceGame.sol\":601:606  value */\n      dup2\n        /* \"diceGame.sol\":601:612  value <= 12 */\n      gt\n      iszero\n        /* \"diceGame.sol\":587:612  value >= 2 && value <= 12 */\n    tag_58:\n        /* \"diceGame.sol\":579:647  require(value >= 2 && value <= 12, \"The number is not from 1 to 12\") */\n      tag_59\n      jumpi\n      mload(0x40)\n      0x08c379a000000000000000000000000000000000000000000000000000000000\n      dup2\n      mstore\n      0x04\n      add\n      dup1\n      dup1\n      0x20\n      add\n      dup3\n      dup2\n      sub\n      dup3\n      mstore\n      0x1e\n      dup2\n      mstore\n      0x20\n      add\n      dup1\n      0x546865206e756d626572206973206e6f742066726f6d203120746f2031320000\n      dup2\n      mstore\n      pop\n      0x20\n      add\n      swap2\n      pop\n      pop\n      mload(0x40)\n      dup1\n      swap2\n      sub\n      swap1\n      revert\n    tag_59:\n        /* \"diceGame.sol\":2831:2835  dice */\n      dup2\n        /* \"diceGame.sol\":2802:2807  games */\n      0x02\n        /* \"diceGame.sol\":2802:2815  games[gameId] */\n      0x00\n        /* \"diceGame.sol\":2808:2814  gameId */\n      sload(0x01)\n        /* \"diceGame.sol\":2802:2815  games[gameId] */\n      dup2\n      mstore\n      0x20\n      add\n      swap1\n      dup2\n      mstore\n      0x20\n      add\n      0x00\n      keccak256\n        /* \"diceGame.sol\":2802:2828  games[gameId].winningValue */\n      0x02\n      add\n      0x00\n        /* \"diceGame.sol\":2802:2835  games[gameId].winningValue = dice */\n      0x0100\n      exp\n      dup2\n      sload\n      dup2\n      0xff\n      mul\n      not\n      and\n      swap1\n      dup4\n      0xff\n      and\n      mul\n      or\n      swap1\n      sstore\n      pop\n        /* \"diceGame.sol\":2727:2843  function setServerValue(uint8 dice) private between1and12(dice) {\r... */\n      pop\n      pop\n      jump\t// out\n        /* \"diceGame.sol\":2855:3501  function setGame() private {\r... */\n    tag_47:\n        /* \"diceGame.sol\":2893:2929  address[] storage gamePlayerAdresses */\n      0x00\n        /* \"diceGame.sol\":2932:2937  games */\n      0x02\n        /* \"diceGame.sol\":2932:2945  games[gameId] */\n      0x00\n        /* \"diceGame.sol\":2938:2944  gameId */\n      sload(0x01)\n        /* \"diceGame.sol\":2932:2945  games[gameId] */\n      dup2\n      mstore\n      0x20\n      add\n      swap1\n      dup2\n      mstore\n      0x20\n      add\n      0x00\n      keccak256\n        /* \"diceGame.sol\":2932:2961  games[gameId].playerAddresses */\n      0x01\n      add\n        /* \"diceGame.sol\":2893:2961  address[] storage gamePlayerAdresses = games[gameId].playerAddresses */\n      swap1\n      pop\n        /* \"diceGame.sol\":2972:2983  uint length */\n      0x00\n        /* \"diceGame.sol\":2986:3004  gamePlayerAdresses */\n      dup2\n        /* \"diceGame.sol\":2986:3011  gamePlayerAdresses.length */\n      dup1\n      sload\n      swap1\n      pop\n        /* \"diceGame.sol\":2972:3011  uint length = gamePlayerAdresses.length */\n      swap1\n      pop\n        /* \"diceGame.sol\":3037:3043  uint i */\n      0x00\n        /* \"diceGame.sol\":3046:3047  0 */\n      dup1\n        /* \"diceGame.sol\":3037:3047  uint i = 0 */\n      swap1\n      pop\n        /* \"diceGame.sol\":3032:3420  for (uint i = 0; i < length; i++) {\r... */\n    tag_62:\n        /* \"diceGame.sol\":3053:3059  length */\n      dup2\n        /* \"diceGame.sol\":3049:3050  i */\n      dup2\n        /* \"diceGame.sol\":3049:3059  i < length */\n      lt\n        /* \"diceGame.sol\":3032:3420  for (uint i = 0; i < length; i++) {\r... */\n      iszero\n      tag_63\n      jumpi\n        /* \"diceGame.sol\":3081:3099  bytes32 playerHash */\n      0x00\n        /* \"diceGame.sol\":3102:3107  games */\n      0x02\n        /* \"diceGame.sol\":3102:3115  games[gameId] */\n      0x00\n        /* \"diceGame.sol\":3108:3114  gameId */\n      sload(0x01)\n        /* \"diceGame.sol\":3102:3115  games[gameId] */\n      dup2\n      mstore\n      0x20\n      add\n      swap1\n      dup2\n      mstore\n      0x20\n      add\n      0x00\n      keccak256\n        /* \"diceGame.sol\":3102:3123  games[gameId].players */\n      0x00\n      add\n        /* \"diceGame.sol\":3102:3146  games[gameId].players[gamePlayerAdresses[i]] */\n      0x00\n        /* \"diceGame.sol\":3124:3142  gamePlayerAdresses */\n      dup6\n        /* \"diceGame.sol\":3143:3144  i */\n      dup5\n        /* \"diceGame.sol\":3124:3145  gamePlayerAdresses[i] */\n      dup2\n      sload\n      dup2\n      lt\n      tag_65\n      jumpi\n      invalid\n    tag_65:\n      swap1\n      0x00\n      mstore\n      keccak256(0x00, 0x20)\n      add\n      0x00\n      swap1\n      sload\n      swap1\n      0x0100\n      exp\n      swap1\n      div\n      0xffffffffffffffffffffffffffffffffffffffff\n      and\n        /* \"diceGame.sol\":3102:3146  games[gameId].players[gamePlayerAdresses[i]] */\n      0xffffffffffffffffffffffffffffffffffffffff\n      and\n      0xffffffffffffffffffffffffffffffffffffffff\n      and\n      dup2\n      mstore\n      0x20\n      add\n      swap1\n      dup2\n      mstore\n      0x20\n      add\n      0x00\n      keccak256\n        /* \"diceGame.sol\":3102:3156  games[gameId].players[gamePlayerAdresses[i]].hashValue */\n      0x00\n      add\n      sload\n        /* \"diceGame.sol\":3081:3156  bytes32 playerHash = games[gameId].players[gamePlayerAdresses[i]].hashValue */\n      swap1\n      pop\n        /* \"diceGame.sol\":3210:3215  games */\n      0x02\n        /* \"diceGame.sol\":3210:3223  games[gameId] */\n      0x00\n        /* \"diceGame.sol\":3216:3222  gameId */\n      sload(0x01)\n        /* \"diceGame.sol\":3210:3223  games[gameId] */\n      dup2\n      mstore\n      0x20\n      add\n      swap1\n      dup2\n      mstore\n      0x20\n      add\n      0x00\n      keccak256\n        /* \"diceGame.sol\":3210:3236  games[gameId].winningValue */\n      0x02\n      add\n      0x00\n      swap1\n      sload\n      swap1\n      0x0100\n      exp\n      swap1\n      div\n      0xff\n      and\n        /* \"diceGame.sol\":3199:3237  abi.encode(games[gameId].winningValue) */\n      add(0x20, mload(0x40))\n      dup1\n      dup3\n      0xff\n      and\n      0xff\n      and\n      dup2\n      mstore\n      0x20\n      add\n      swap2\n      pop\n      pop\n      mload(0x40)\n        /* \"--CODEGEN--\":49:53   */\n      0x20\n        /* \"--CODEGEN--\":39:46   */\n      dup2\n        /* \"--CODEGEN--\":30:37   */\n      dup4\n        /* \"--CODEGEN--\":26:47   */\n      sub\n        /* \"--CODEGEN--\":22:54   */\n      sub\n        /* \"--CODEGEN--\":13:20   */\n      dup2\n        /* \"--CODEGEN--\":6:55   */\n      mstore\n        /* \"diceGame.sol\":3199:3237  abi.encode(games[gameId].winningValue) */\n      swap1\n      0x40\n      mstore\n        /* \"diceGame.sol\":3189:3238  keccak256(abi.encode(games[gameId].winningValue)) */\n      dup1\n      mload\n      swap1\n      0x20\n      add\n      keccak256\n        /* \"diceGame.sol\":3175:3185  playerHash */\n      dup2\n        /* \"diceGame.sol\":3175:3238  playerHash == keccak256(abi.encode(games[gameId].winningValue)) */\n      eq\n        /* \"diceGame.sol\":3171:3409  if (playerHash == keccak256(abi.encode(games[gameId].winningValue))) {\r... */\n      iszero\n      tag_67\n      jumpi\n        /* \"diceGame.sol\":3259:3264  games */\n      0x02\n        /* \"diceGame.sol\":3259:3272  games[gameId] */\n      0x00\n        /* \"diceGame.sol\":3265:3271  gameId */\n      sload(0x01)\n        /* \"diceGame.sol\":3259:3272  games[gameId] */\n      dup2\n      mstore\n      0x20\n      add\n      swap1\n      dup2\n      mstore\n      0x20\n      add\n      0x00\n      keccak256\n        /* \"diceGame.sol\":3259:3284  games[gameId].winnerCount */\n      0x03\n      add\n      0x00\n        /* \"diceGame.sol\":3259:3286  games[gameId].winnerCount++ */\n      dup2\n      sload\n      dup1\n      swap3\n      swap2\n      swap1\n      0x01\n      add\n      swap2\n      swap1\n      pop\n      sstore\n      pop\n        /* \"diceGame.sol\":3340:3345  games */\n      0x02\n        /* \"diceGame.sol\":3340:3353  games[gameId] */\n      0x00\n        /* \"diceGame.sol\":3346:3352  gameId */\n      sload(0x01)\n        /* \"diceGame.sol\":3340:3353  games[gameId] */\n      dup2\n      mstore\n      0x20\n      add\n      swap1\n      dup2\n      mstore\n      0x20\n      add\n      0x00\n      keccak256\n        /* \"diceGame.sol\":3340:3361  games[gameId].players */\n      0x00\n      add\n        /* \"diceGame.sol\":3340:3384  games[gameId].players[gamePlayerAdresses[i]] */\n      0x00\n        /* \"diceGame.sol\":3362:3380  gamePlayerAdresses */\n      dup6\n        /* \"diceGame.sol\":3381:3382  i */\n      dup5\n        /* \"diceGame.sol\":3362:3383  gamePlayerAdresses[i] */\n      dup2\n      sload\n      dup2\n      lt\n      tag_68\n      jumpi\n      invalid\n    tag_68:\n      swap1\n      0x00\n      mstore\n      keccak256(0x00, 0x20)\n      add\n      0x00\n      swap1\n      sload\n      swap1\n      0x0100\n      exp\n      swap1\n      div\n      0xffffffffffffffffffffffffffffffffffffffff\n      and\n        /* \"diceGame.sol\":3340:3384  games[gameId].players[gamePlayerAdresses[i]] */\n      0xffffffffffffffffffffffffffffffffffffffff\n      and\n      0xffffffffffffffffffffffffffffffffffffffff\n      and\n      dup2\n      mstore\n      0x20\n      add\n      swap1\n      dup2\n      mstore\n      0x20\n      add\n      0x00\n      keccak256\n        /* \"diceGame.sol\":3340:3393  games[gameId].players[gamePlayerAdresses[i]].betValue */\n      0x01\n      add\n      sload\n        /* \"diceGame.sol\":3305:3310  games */\n      0x02\n        /* \"diceGame.sol\":3305:3318  games[gameId] */\n      0x00\n        /* \"diceGame.sol\":3311:3317  gameId */\n      sload(0x01)\n        /* \"diceGame.sol\":3305:3318  games[gameId] */\n      dup2\n      mstore\n      0x20\n      add\n      swap1\n      dup2\n      mstore\n      0x20\n      add\n      0x00\n      keccak256\n        /* \"diceGame.sol\":3305:3336  games[gameId].allWinnersBalance */\n      0x04\n      add\n      0x00\n        /* \"diceGame.sol\":3305:3393  games[gameId].allWinnersBalance += games[gameId].players[gamePlayerAdresses[i]].betValue */\n      dup3\n      dup3\n      sload\n      add\n      swap3\n      pop\n      pop\n      dup2\n      swap1\n      sstore\n      pop\n        /* \"diceGame.sol\":3171:3409  if (playerHash == keccak256(abi.encode(games[gameId].winningValue))) {\r... */\n    tag_67:\n        /* \"diceGame.sol\":3032:3420  for (uint i = 0; i < length; i++) {\r... */\n      pop\n        /* \"diceGame.sol\":3061:3064  i++ */\n      dup1\n      dup1\n      0x01\n      add\n      swap2\n      pop\n      pop\n        /* \"diceGame.sol\":3032:3420  for (uint i = 0; i < length; i++) {\r... */\n      jump(tag_62)\n    tag_63:\n      pop\n        /* \"diceGame.sol\":3468:3473  games */\n      0x02\n        /* \"diceGame.sol\":3468:3481  games[gameId] */\n      0x00\n        /* \"diceGame.sol\":3474:3480  gameId */\n      sload(0x01)\n        /* \"diceGame.sol\":3468:3481  games[gameId] */\n      dup2\n      mstore\n      0x20\n      add\n      swap1\n      dup2\n      mstore\n      0x20\n      add\n      0x00\n      keccak256\n        /* \"diceGame.sol\":3468:3493  games[gameId].gameBalance */\n      0x06\n      add\n      sload\n        /* \"diceGame.sol\":3440:3445  games */\n      0x02\n        /* \"diceGame.sol\":3440:3453  games[gameId] */\n      0x00\n        /* \"diceGame.sol\":3446:3452  gameId */\n      sload(0x01)\n        /* \"diceGame.sol\":3440:3453  games[gameId] */\n      dup2\n      mstore\n      0x20\n      add\n      swap1\n      dup2\n      mstore\n      0x20\n      add\n      0x00\n      keccak256\n        /* \"diceGame.sol\":3440:3465  games[gameId].restBalance */\n      0x05\n      add\n        /* \"diceGame.sol\":3440:3493  games[gameId].restBalance = games[gameId].gameBalance */\n      dup2\n      swap1\n      sstore\n      pop\n        /* \"diceGame.sol\":2855:3501  function setGame() private {\r... */\n      pop\n      pop\n      jump\t// out\n    stop\n    data_4a8d8e59ed510e06a8e0260cfe413b20861d9f571b155941f3970d9306e4b948 4f6e6c79206d616e616765722063616e2063616c6c20746869732066756e6374696f6e\n    data_bd091db77c2ecbf6850219e20fb7a75680b72aef5099b1fcc3fa84949d7e6ee7 5573657220696e70757420646f6573206e6f74206d617463682077696e6e696e672076616c7565\n    data_e1d65f7a566c51d9be51927db247995b346b03fc2927af3f18b9c547e16bcc8f 5573657220696e70757420646f6573206e6f74206d61746368206974732068617368\n\n    auxdata: 0xa265627a7a72315820bf9f961e9bfc2c53b7c4e2e3d296b743545ac71493cea309c53219b256028f6464736f6c634300050c0032\n}\n",
    "bytecode": {
      "linkReferences": {},
      "object": "608060405234801561001057600080fd5b506040516110833803806110838339818101604052602081101561003357600080fd5b8101908080519060200190929190505050806002600080815260200190815260200160002060070181905550336000806101000a81548173ffffffffffffffffffffffffffffffffffffffff021916908373ffffffffffffffffffffffffffffffffffffffff160217905550600060018190555050610fcc806100b76000396000f3fe6080604052600436106100555760003560e01c8063096605131461005a5780630d0aa44a146100c4578063481c6a75146100f2578063886dc4d314610149578063d7c81b551461019c578063f5e71f1a146101c7575b600080fd5b34801561006657600080fd5b506100936004803603602081101561007d57600080fd5b8101908080359060200190929190505050610227565b604051808560ff1660ff16815260200184815260200183815260200182815260200194505050505060405180910390f35b6100f0600480360360208110156100da57600080fd5b81019080803590602001909291905050506102a5565b005b3480156100fe57600080fd5b5061010761062b565b604051808273ffffffffffffffffffffffffffffffffffffffff1673ffffffffffffffffffffffffffffffffffffffff16815260200191505060405180910390f35b6101826004803603604081101561015f57600080fd5b81019080803560ff16906020019092919080359060200190929190505050610650565b604051808215151515815260200191505060405180910390f35b3480156101a857600080fd5b506101b16107e2565b6040518082815260200191505060405180910390f35b3480156101d357600080fd5b5061020d600480360360408110156101ea57600080fd5b81019080803560ff169060200190929190803590602001909291905050506107e8565b604051808215151515815260200191505060405180910390f35b6000806000806002600086815260200190815260200160002060020160009054906101000a900460ff1660026000878152602001908152602001600020600501546002600088815260200190815260200160002060060154600260008981526020019081526020016000206007015493509350935093509193509193565b60003390506000809054906101000a900473ffffffffffffffffffffffffffffffffffffffff1673ffffffffffffffffffffffffffffffffffffffff168173ffffffffffffffffffffffffffffffffffffffff16141561036d576040517f08c379a000000000000000000000000000000000000000000000000000000000815260040180806020018281038252601a8152602001807f4d616e616765722063616e6e6f742062657420612076616c756500000000000081525060200191505060405180910390fd5b6000801b60026000600154815260200190815260200160002060000160008373ffffffffffffffffffffffffffffffffffffffff1673ffffffffffffffffffffffffffffffffffffffff168152602001908152602001600020600001541461043d576040517f08c379a00000000000000000000000000000000000000000000000000000000081526004018080602001828103825260198152602001807f506c6179657220616c726561647920626574206e756d6265720000000000000081525060200191505060405180910390fd5b600260006001548152602001908152602001600020600701543410156104cb576040517f08c379a000000000000000000000000000000000000000000000000000000000815260040180806020018281038252601c8152602001807f596f7520426574206c657373207468656e206d696e696d756d4265740000000081525060200191505060405180910390fd5b8160026000600154815260200190815260200160002060000160008373ffffffffffffffffffffffffffffffffffffffff1673ffffffffffffffffffffffffffffffffffffffff168152602001908152602001600020600001819055503460026000600154815260200190815260200160002060000160008373ffffffffffffffffffffffffffffffffffffffff1673ffffffffffffffffffffffffffffffffffffffff168152602001908152602001600020600101819055506002600060015481526020019081526020016000206001018190806001815401808255809150509060018203906000526020600020016000909192909190916101000a81548173ffffffffffffffffffffffffffffffffffffffff021916908373ffffffffffffffffffffffffffffffffffffffff1602179055505034600260006001548152602001908152602001600020600601600082825401925050819055505050565b6000809054906101000a900473ffffffffffffffffffffffffffffffffffffffff1681565b600061065c83836108d9565b156107d7576000600260008481526020019081526020016000206004015460026000858152602001908152602001600020600601546002600086815260200190815260200160002060000160003373ffffffffffffffffffffffffffffffffffffffff1673ffffffffffffffffffffffffffffffffffffffff1681526020019081526020016000206001015402816106f057fe5b0490503373ffffffffffffffffffffffffffffffffffffffff166108fc829081150290604051600060405180830381858888f19350505050158015610739573d6000803e3d6000fd5b5080600260008581526020019081526020016000206005016000828254039250508190555060016002600085815260200190815260200160002060000160003373ffffffffffffffffffffffffffffffffffffffff1673ffffffffffffffffffffffffffffffffffffffff16815260200190815260200160002060020160006101000a81548160ff02191690831515021790555060019150506107dc565b600090505b92915050565b60015481565b60008060009054906101000a900473ffffffffffffffffffffffffffffffffffffffff1673ffffffffffffffffffffffffffffffffffffffff163373ffffffffffffffffffffffffffffffffffffffff161461088f576040517f08c379a0000000000000000000000000000000000000000000000000000000008152600401808060200182810382526023815260200180610f2c6023913960400191505060405180910390fd5b61089883610c2a565b6108a0610ce7565b60016000815480929190600101919050555081600260006001548152602001908152602001600020600701819055506001905092915050565b60008260ff16600281101580156108f15750600c8111155b610963576040517f08c379a000000000000000000000000000000000000000000000000000000000815260040180806020018281038252601e8152602001807f546865206e756d626572206973206e6f742066726f6d203120746f203132000081525060200191505060405180910390fd5b6002600084815260200190815260200160002060000160003373ffffffffffffffffffffffffffffffffffffffff1673ffffffffffffffffffffffffffffffffffffffff16815260200190815260200160002060020160009054906101000a900460ff1615610a3a576040517f08c379a000000000000000000000000000000000000000000000000000000000815260040180806020018281038252601e8152602001807f506c6179657220616c726561647920726563656976652061206d6f6e6579000081525060200191505060405180910390fd5b60008310158015610a4c575060015483105b610abe576040517f08c379a00000000000000000000000000000000000000000000000000000000081526004018080602001828103825260118152602001807f47616d65206973206e6f7420656e64656400000000000000000000000000000081525060200191505060405180910390fd5b6002600084815260200190815260200160002060020160009054906101000a900460ff1660ff168460ff1614610b3f576040517f08c379a0000000000000000000000000000000000000000000000000000000008152600401808060200182810382526027815260200180610f4f6027913960400191505060405180910390fd5b600084604051602001808260ff1660ff1681526020019150506040516020818303038152906040528051906020012090506002600085815260200190815260200160002060000160003373ffffffffffffffffffffffffffffffffffffffff1673ffffffffffffffffffffffffffffffffffffffff168152602001908152602001600020600001548114610c1e576040517f08c379a0000000000000000000000000000000000000000000000000000000008152600401808060200182810382526022815260200180610f766022913960400191505060405180910390fd5b60019250505092915050565b8060ff1660028110158015610c405750600c8111155b610cb2576040517f08c379a000000000000000000000000000000000000000000000000000000000815260040180806020018281038252601e8152602001807f546865206e756d626572206973206e6f742066726f6d203120746f203132000081525060200191505060405180910390fd5b8160026000600154815260200190815260200160002060020160006101000a81548160ff021916908360ff1602179055505050565b6000600260006001548152602001908152602001600020600101905060008180549050905060008090505b81811015610ef15760006002600060015481526020019081526020016000206000016000858481548110610d4257fe5b9060005260206000200160009054906101000a900473ffffffffffffffffffffffffffffffffffffffff1673ffffffffffffffffffffffffffffffffffffffff1673ffffffffffffffffffffffffffffffffffffffff16815260200190815260200160002060000154905060026000600154815260200190815260200160002060020160009054906101000a900460ff16604051602001808260ff1660ff16815260200191505060405160208183030381529060405280519060200120811415610ee357600260006001548152602001908152602001600020600301600081548092919060010191905055506002600060015481526020019081526020016000206000016000858481548110610e5457fe5b9060005260206000200160009054906101000a900473ffffffffffffffffffffffffffffffffffffffff1673ffffffffffffffffffffffffffffffffffffffff1673ffffffffffffffffffffffffffffffffffffffff16815260200190815260200160002060010154600260006001548152602001908152602001600020600401600082825401925050819055505b508080600101915050610d12565b506002600060015481526020019081526020016000206006015460026000600154815260200190815260200160002060050181905550505056fe4f6e6c79206d616e616765722063616e2063616c6c20746869732066756e6374696f6e5573657220696e70757420646f6573206e6f74206d617463682077696e6e696e672076616c75655573657220696e70757420646f6573206e6f74206d61746368206974732068617368a265627a7a72315820bf9f961e9bfc2c53b7c4e2e3d296b743545ac71493cea309c53219b256028f6464736f6c634300050c0032",
      "opcodes": "PUSH1 0x80 PUSH1 0x40 MSTORE CALLVALUE DUP1 ISZERO PUSH2 0x10 JUMPI PUSH1 0x0 DUP1 REVERT JUMPDEST POP PUSH1 0x40 MLOAD PUSH2 0x1083 CODESIZE SUB DUP1 PUSH2 0x1083 DUP4 CODECOPY DUP2 DUP2 ADD PUSH1 0x40 MSTORE PUSH1 0x20 DUP2 LT ISZERO PUSH2 0x33 JUMPI PUSH1 0x0 DUP1 REVERT JUMPDEST DUP2 ADD SWAP1 DUP1 DUP1 MLOAD SWAP1 PUSH1 0x20 ADD SWAP1 SWAP3 SWAP2 SWAP1 POP POP POP DUP1 PUSH1 0x2 PUSH1 0x0 DUP1 DUP2 MSTORE PUSH1 0x20 ADD SWAP1 DUP2 MSTORE PUSH1 0x20 ADD PUSH1 0x0 KECCAK256 PUSH1 0x7 ADD DUP2 SWAP1 SSTORE POP CALLER PUSH1 0x0 DUP1 PUSH2 0x100 EXP DUP2 SLOAD DUP2 PUSH20 0xFFFFFFFFFFFFFFFFFFFFFFFFFFFFFFFFFFFFFFFF MUL NOT AND SWAP1 DUP4 PUSH20 0xFFFFFFFFFFFFFFFFFFFFFFFFFFFFFFFFFFFFFFFF AND MUL OR SWAP1 SSTORE POP PUSH1 0x0 PUSH1 0x1 DUP2 SWAP1 SSTORE POP POP PUSH2 0xFCC DUP1 PUSH2 0xB7 PUSH1 0x0 CODECOPY PUSH1 0x0 RETURN INVALID PUSH1 0x80 PUSH1 0x40 MSTORE PUSH1 0x4 CALLDATASIZE LT PUSH2 0x55 JUMPI PUSH1 0x0 CALLDATALOAD PUSH1 0xE0 SHR DUP1 PUSH4 0x9660513 EQ PUSH2 0x5A JUMPI DUP1 PUSH4 0xD0AA44A EQ PUSH2 0xC4 JUMPI DUP1 PUSH4 0x481C6A75 EQ PUSH2 0xF2 JUMPI DUP1 PUSH4 0x886DC4D3 EQ PUSH2 0x149 JUMPI DUP1 PUSH4 0xD7C81B55 EQ PUSH2 0x19C JUMPI DUP1 PUSH4 0xF5E71F1A EQ PUSH2 0x1C7 JUMPI JUMPDEST PUSH1 0x0 DUP1 REVERT JUMPDEST CALLVALUE DUP1 ISZERO PUSH2 0x66 JUMPI PUSH1 0x0 DUP1 REVERT JUMPDEST POP PUSH2 0x93 PUSH1 0x4 DUP1 CALLDATASIZE SUB PUSH1 0x20 DUP2 LT ISZERO PUSH2 0x7D JUMPI PUSH1 0x0 DUP1 REVERT JUMPDEST DUP2 ADD SWAP1 DUP1 DUP1 CALLDATALOAD SWAP1 PUSH1 0x20 ADD SWAP1 SWAP3 SWAP2 SWAP1 POP POP POP PUSH2 0x227 JUMP JUMPDEST PUSH1 0x40 MLOAD DUP1 DUP6 PUSH1 0xFF AND PUSH1 0xFF AND DUP2 MSTORE PUSH1 0x20 ADD DUP5 DUP2 MSTORE PUSH1 0x20 ADD DUP4 DUP2 MSTORE PUSH1 0x20 ADD DUP3 DUP2 MSTORE PUSH1 0x20 ADD SWAP5 POP POP POP POP POP PUSH1 0x40 MLOAD DUP1 SWAP2 SUB SWAP1 RETURN JUMPDEST PUSH2 0xF0 PUSH1 0x4 DUP1 CALLDATASIZE SUB PUSH1 0x20 DUP2 LT ISZERO PUSH2 0xDA JUMPI PUSH1 0x0 DUP1 REVERT JUMPDEST DUP2 ADD SWAP1 DUP1 DUP1 CALLDATALOAD SWAP1 PUSH1 0x20 ADD SWAP1 SWAP3 SWAP2 SWAP1 POP POP POP PUSH2 0x2A5 JUMP JUMPDEST STOP JUMPDEST CALLVALUE DUP1 ISZERO PUSH2 0xFE JUMPI PUSH1 0x0 DUP1 REVERT JUMPDEST POP PUSH2 0x107 PUSH2 0x62B JUMP JUMPDEST PUSH1 0x40 MLOAD DUP1 DUP3 PUSH20 0xFFFFFFFFFFFFFFFFFFFFFFFFFFFFFFFFFFFFFFFF AND PUSH20 0xFFFFFFFFFFFFFFFFFFFFFFFFFFFFFFFFFFFFFFFF AND DUP2 MSTORE PUSH1 0x20 ADD SWAP2 POP POP PUSH1 0x40 MLOAD DUP1 SWAP2 SUB SWAP1 RETURN JUMPDEST PUSH2 0x182 PUSH1 0x4 DUP1 CALLDATASIZE SUB PUSH1 0x40 DUP2 LT ISZERO PUSH2 0x15F JUMPI PUSH1 0x0 DUP1 REVERT JUMPDEST DUP2 ADD SWAP1 DUP1 DUP1 CALLDATALOAD PUSH1 0xFF AND SWAP1 PUSH1 0x20 ADD SWAP1 SWAP3 SWAP2 SWAP1 DUP1 CALLDATALOAD SWAP1 PUSH1 0x20 ADD SWAP1 SWAP3 SWAP2 SWAP1 POP POP POP PUSH2 0x650 JUMP JUMPDEST PUSH1 0x40 MLOAD DUP1 DUP3 ISZERO ISZERO ISZERO ISZERO DUP2 MSTORE PUSH1 0x20 ADD SWAP2 POP POP PUSH1 0x40 MLOAD DUP1 SWAP2 SUB SWAP1 RETURN JUMPDEST CALLVALUE DUP1 ISZERO PUSH2 0x1A8 JUMPI PUSH1 0x0 DUP1 REVERT JUMPDEST POP PUSH2 0x1B1 PUSH2 0x7E2 JUMP JUMPDEST PUSH1 0x40 MLOAD DUP1 DUP3 DUP2 MSTORE PUSH1 0x20 ADD SWAP2 POP POP PUSH1 0x40 MLOAD DUP1 SWAP2 SUB SWAP1 RETURN JUMPDEST CALLVALUE DUP1 ISZERO PUSH2 0x1D3 JUMPI PUSH1 0x0 DUP1 REVERT JUMPDEST POP PUSH2 0x20D PUSH1 0x4 DUP1 CALLDATASIZE SUB PUSH1 0x40 DUP2 LT ISZERO PUSH2 0x1EA JUMPI PUSH1 0x0 DUP1 REVERT JUMPDEST DUP2 ADD SWAP1 DUP1 DUP1 CALLDATALOAD PUSH1 0xFF AND SWAP1 PUSH1 0x20 ADD SWAP1 SWAP3 SWAP2 SWAP1 DUP1 CALLDATALOAD SWAP1 PUSH1 0x20 ADD SWAP1 SWAP3 SWAP2 SWAP1 POP POP POP PUSH2 0x7E8 JUMP JUMPDEST PUSH1 0x40 MLOAD DUP1 DUP3 ISZERO ISZERO ISZERO ISZERO DUP2 MSTORE PUSH1 0x20 ADD SWAP2 POP POP PUSH1 0x40 MLOAD DUP1 SWAP2 SUB SWAP1 RETURN JUMPDEST PUSH1 0x0 DUP1 PUSH1 0x0 DUP1 PUSH1 0x2 PUSH1 0x0 DUP7 DUP2 MSTORE PUSH1 0x20 ADD SWAP1 DUP2 MSTORE PUSH1 0x20 ADD PUSH1 0x0 KECCAK256 PUSH1 0x2 ADD PUSH1 0x0 SWAP1 SLOAD SWAP1 PUSH2 0x100 EXP SWAP1 DIV PUSH1 0xFF AND PUSH1 0x2 PUSH1 0x0 DUP8 DUP2 MSTORE PUSH1 0x20 ADD SWAP1 DUP2 MSTORE PUSH1 0x20 ADD PUSH1 0x0 KECCAK256 PUSH1 0x5 ADD SLOAD PUSH1 0x2 PUSH1 0x0 DUP9 DUP2 MSTORE PUSH1 0x20 ADD SWAP1 DUP2 MSTORE PUSH1 0x20 ADD PUSH1 0x0 KECCAK256 PUSH1 0x6 ADD SLOAD PUSH1 0x2 PUSH1 0x0 DUP10 DUP2 MSTORE PUSH1 0x20 ADD SWAP1 DUP2 MSTORE PUSH1 0x20 ADD PUSH1 0x0 KECCAK256 PUSH1 0x7 ADD SLOAD SWAP4 POP SWAP4 POP SWAP4 POP SWAP4 POP SWAP2 SWAP4 POP SWAP2 SWAP4 JUMP JUMPDEST PUSH1 0x0 CALLER SWAP1 POP PUSH1 0x0 DUP1 SWAP1 SLOAD SWAP1 PUSH2 0x100 EXP SWAP1 DIV PUSH20 0xFFFFFFFFFFFFFFFFFFFFFFFFFFFFFFFFFFFFFFFF AND PUSH20 0xFFFFFFFFFFFFFFFFFFFFFFFFFFFFFFFFFFFFFFFF AND DUP2 PUSH20 0xFFFFFFFFFFFFFFFFFFFFFFFFFFFFFFFFFFFFFFFF AND EQ ISZERO PUSH2 0x36D JUMPI PUSH1 0x40 MLOAD PUSH32 0x8C379A000000000000000000000000000000000000000000000000000000000 DUP2 MSTORE PUSH1 0x4 ADD DUP1 DUP1 PUSH1 0x20 ADD DUP3 DUP2 SUB DUP3 MSTORE PUSH1 0x1A DUP2 MSTORE PUSH1 0x20 ADD DUP1 PUSH32 0x4D616E616765722063616E6E6F742062657420612076616C7565000000000000 DUP2 MSTORE POP PUSH1 0x20 ADD SWAP2 POP POP PUSH1 0x40 MLOAD DUP1 SWAP2 SUB SWAP1 REVERT JUMPDEST PUSH1 0x0 DUP1 SHL PUSH1 0x2 PUSH1 0x0 PUSH1 0x1 SLOAD DUP2 MSTORE PUSH1 0x20 ADD SWAP1 DUP2 MSTORE PUSH1 0x20 ADD PUSH1 0x0 KECCAK256 PUSH1 0x0 ADD PUSH1 0x0 DUP4 PUSH20 0xFFFFFFFFFFFFFFFFFFFFFFFFFFFFFFFFFFFFFFFF AND PUSH20 0xFFFFFFFFFFFFFFFFFFFFFFFFFFFFFFFFFFFFFFFF AND DUP2 MSTORE PUSH1 0x20 ADD SWAP1 DUP2 MSTORE PUSH1 0x20 ADD PUSH1 0x0 KECCAK256 PUSH1 0x0 ADD SLOAD EQ PUSH2 0x43D JUMPI PUSH1 0x40 MLOAD PUSH32 0x8C379A000000000000000000000000000000000000000000000000000000000 DUP2 MSTORE PUSH1 0x4 ADD DUP1 DUP1 PUSH1 0x20 ADD DUP3 DUP2 SUB DUP3 MSTORE PUSH1 0x19 DUP2 MSTORE PUSH1 0x20 ADD DUP1 PUSH32 0x506C6179657220616C726561647920626574206E756D62657200000000000000 DUP2 MSTORE POP PUSH1 0x20 ADD SWAP2 POP POP PUSH1 0x40 MLOAD DUP1 SWAP2 SUB SWAP1 REVERT JUMPDEST PUSH1 0x2 PUSH1 0x0 PUSH1 0x1 SLOAD DUP2 MSTORE PUSH1 0x20 ADD SWAP1 DUP2 MSTORE PUSH1 0x20 ADD PUSH1 0x0 KECCAK256 PUSH1 0x7 ADD SLOAD CALLVALUE LT ISZERO PUSH2 0x4CB JUMPI PUSH1 0x40 MLOAD PUSH32 0x8C379A000000000000000000000000000000000000000000000000000000000 DUP2 MSTORE PUSH1 0x4 ADD DUP1 DUP1 PUSH1 0x20 ADD DUP3 DUP2 SUB DUP3 MSTORE PUSH1 0x1C DUP2 MSTORE PUSH1 0x20 ADD DUP1 PUSH32 0x596F7520426574206C657373207468656E206D696E696D756D42657400000000 DUP2 MSTORE POP PUSH1 0x20 ADD SWAP2 POP POP PUSH1 0x40 MLOAD DUP1 SWAP2 SUB SWAP1 REVERT JUMPDEST DUP2 PUSH1 0x2 PUSH1 0x0 PUSH1 0x1 SLOAD DUP2 MSTORE PUSH1 0x20 ADD SWAP1 DUP2 MSTORE PUSH1 0x20 ADD PUSH1 0x0 KECCAK256 PUSH1 0x0 ADD PUSH1 0x0 DUP4 PUSH20 0xFFFFFFFFFFFFFFFFFFFFFFFFFFFFFFFFFFFFFFFF AND PUSH20 0xFFFFFFFFFFFFFFFFFFFFFFFFFFFFFFFFFFFFFFFF AND DUP2 MSTORE PUSH1 0x20 ADD SWAP1 DUP2 MSTORE PUSH1 0x20 ADD PUSH1 0x0 KECCAK256 PUSH1 0x0 ADD DUP2 SWAP1 SSTORE POP CALLVALUE PUSH1 0x2 PUSH1 0x0 PUSH1 0x1 SLOAD DUP2 MSTORE PUSH1 0x20 ADD SWAP1 DUP2 MSTORE PUSH1 0x20 ADD PUSH1 0x0 KECCAK256 PUSH1 0x0 ADD PUSH1 0x0 DUP4 PUSH20 0xFFFFFFFFFFFFFFFFFFFFFFFFFFFFFFFFFFFFFFFF AND PUSH20 0xFFFFFFFFFFFFFFFFFFFFFFFFFFFFFFFFFFFFFFFF AND DUP2 MSTORE PUSH1 0x20 ADD SWAP1 DUP2 MSTORE PUSH1 0x20 ADD PUSH1 0x0 KECCAK256 PUSH1 0x1 ADD DUP2 SWAP1 SSTORE POP PUSH1 0x2 PUSH1 0x0 PUSH1 0x1 SLOAD DUP2 MSTORE PUSH1 0x20 ADD SWAP1 DUP2 MSTORE PUSH1 0x20 ADD PUSH1 0x0 KECCAK256 PUSH1 0x1 ADD DUP2 SWAP1 DUP1 PUSH1 0x1 DUP2 SLOAD ADD DUP1 DUP3 SSTORE DUP1 SWAP2 POP POP SWAP1 PUSH1 0x1 DUP3 SUB SWAP1 PUSH1 0x0 MSTORE PUSH1 0x20 PUSH1 0x0 KECCAK256 ADD PUSH1 0x0 SWAP1 SWAP2 SWAP3 SWAP1 SWAP2 SWAP1 SWAP2 PUSH2 0x100 EXP DUP2 SLOAD DUP2 PUSH20 0xFFFFFFFFFFFFFFFFFFFFFFFFFFFFFFFFFFFFFFFF MUL NOT AND SWAP1 DUP4 PUSH20 0xFFFFFFFFFFFFFFFFFFFFFFFFFFFFFFFFFFFFFFFF AND MUL OR SWAP1 SSTORE POP POP CALLVALUE PUSH1 0x2 PUSH1 0x0 PUSH1 0x1 SLOAD DUP2 MSTORE PUSH1 0x20 ADD SWAP1 DUP2 MSTORE PUSH1 0x20 ADD PUSH1 0x0 KECCAK256 PUSH1 0x6 ADD PUSH1 0x0 DUP3 DUP3 SLOAD ADD SWAP3 POP POP DUP2 SWAP1 SSTORE POP POP POP JUMP JUMPDEST PUSH1 0x0 DUP1 SWAP1 SLOAD SWAP1 PUSH2 0x100 EXP SWAP1 DIV PUSH20 0xFFFFFFFFFFFFFFFFFFFFFFFFFFFFFFFFFFFFFFFF AND DUP2 JUMP JUMPDEST PUSH1 0x0 PUSH2 0x65C DUP4 DUP4 PUSH2 0x8D9 JUMP JUMPDEST ISZERO PUSH2 0x7D7 JUMPI PUSH1 0x0 PUSH1 0x2 PUSH1 0x0 DUP5 DUP2 MSTORE PUSH1 0x20 ADD SWAP1 DUP2 MSTORE PUSH1 0x20 ADD PUSH1 0x0 KECCAK256 PUSH1 0x4 ADD SLOAD PUSH1 0x2 PUSH1 0x0 DUP6 DUP2 MSTORE PUSH1 0x20 ADD SWAP1 DUP2 MSTORE PUSH1 0x20 ADD PUSH1 0x0 KECCAK256 PUSH1 0x6 ADD SLOAD PUSH1 0x2 PUSH1 0x0 DUP7 DUP2 MSTORE PUSH1 0x20 ADD SWAP1 DUP2 MSTORE PUSH1 0x20 ADD PUSH1 0x0 KECCAK256 PUSH1 0x0 ADD PUSH1 0x0 CALLER PUSH20 0xFFFFFFFFFFFFFFFFFFFFFFFFFFFFFFFFFFFFFFFF AND PUSH20 0xFFFFFFFFFFFFFFFFFFFFFFFFFFFFFFFFFFFFFFFF AND DUP2 MSTORE PUSH1 0x20 ADD SWAP1 DUP2 MSTORE PUSH1 0x20 ADD PUSH1 0x0 KECCAK256 PUSH1 0x1 ADD SLOAD MUL DUP2 PUSH2 0x6F0 JUMPI INVALID JUMPDEST DIV SWAP1 POP CALLER PUSH20 0xFFFFFFFFFFFFFFFFFFFFFFFFFFFFFFFFFFFFFFFF AND PUSH2 0x8FC DUP3 SWAP1 DUP2 ISZERO MUL SWAP1 PUSH1 0x40 MLOAD PUSH1 0x0 PUSH1 0x40 MLOAD DUP1 DUP4 SUB DUP2 DUP6 DUP9 DUP9 CALL SWAP4 POP POP POP POP ISZERO DUP1 ISZERO PUSH2 0x739 JUMPI RETURNDATASIZE PUSH1 0x0 DUP1 RETURNDATACOPY RETURNDATASIZE PUSH1 0x0 REVERT JUMPDEST POP DUP1 PUSH1 0x2 PUSH1 0x0 DUP6 DUP2 MSTORE PUSH1 0x20 ADD SWAP1 DUP2 MSTORE PUSH1 0x20 ADD PUSH1 0x0 KECCAK256 PUSH1 0x5 ADD PUSH1 0x0 DUP3 DUP3 SLOAD SUB SWAP3 POP POP DUP2 SWAP1 SSTORE POP PUSH1 0x1 PUSH1 0x2 PUSH1 0x0 DUP6 DUP2 MSTORE PUSH1 0x20 ADD SWAP1 DUP2 MSTORE PUSH1 0x20 ADD PUSH1 0x0 KECCAK256 PUSH1 0x0 ADD PUSH1 0x0 CALLER PUSH20 0xFFFFFFFFFFFFFFFFFFFFFFFFFFFFFFFFFFFFFFFF AND PUSH20 0xFFFFFFFFFFFFFFFFFFFFFFFFFFFFFFFFFFFFFFFF AND DUP2 MSTORE PUSH1 0x20 ADD SWAP1 DUP2 MSTORE PUSH1 0x20 ADD PUSH1 0x0 KECCAK256 PUSH1 0x2 ADD PUSH1 0x0 PUSH2 0x100 EXP DUP2 SLOAD DUP2 PUSH1 0xFF MUL NOT AND SWAP1 DUP4 ISZERO ISZERO MUL OR SWAP1 SSTORE POP PUSH1 0x1 SWAP2 POP POP PUSH2 0x7DC JUMP JUMPDEST PUSH1 0x0 SWAP1 POP JUMPDEST SWAP3 SWAP2 POP POP JUMP JUMPDEST PUSH1 0x1 SLOAD DUP2 JUMP JUMPDEST PUSH1 0x0 DUP1 PUSH1 0x0 SWAP1 SLOAD SWAP1 PUSH2 0x100 EXP SWAP1 DIV PUSH20 0xFFFFFFFFFFFFFFFFFFFFFFFFFFFFFFFFFFFFFFFF AND PUSH20 0xFFFFFFFFFFFFFFFFFFFFFFFFFFFFFFFFFFFFFFFF AND CALLER PUSH20 0xFFFFFFFFFFFFFFFFFFFFFFFFFFFFFFFFFFFFFFFF AND EQ PUSH2 0x88F JUMPI PUSH1 0x40 MLOAD PUSH32 0x8C379A000000000000000000000000000000000000000000000000000000000 DUP2 MSTORE PUSH1 0x4 ADD DUP1 DUP1 PUSH1 0x20 ADD DUP3 DUP2 SUB DUP3 MSTORE PUSH1 0x23 DUP2 MSTORE PUSH1 0x20 ADD DUP1 PUSH2 0xF2C PUSH1 0x23 SWAP2 CODECOPY PUSH1 0x40 ADD SWAP2 POP POP PUSH1 0x40 MLOAD DUP1 SWAP2 SUB SWAP1 REVERT JUMPDEST PUSH2 0x898 DUP4 PUSH2 0xC2A JUMP JUMPDEST PUSH2 0x8A0 PUSH2 0xCE7 JUMP JUMPDEST PUSH1 0x1 PUSH1 0x0 DUP2 SLOAD DUP1 SWAP3 SWAP2 SWAP1 PUSH1 0x1 ADD SWAP2 SWAP1 POP SSTORE POP DUP2 PUSH1 0x2 PUSH1 0x0 PUSH1 0x1 SLOAD DUP2 MSTORE PUSH1 0x20 ADD SWAP1 DUP2 MSTORE PUSH1 0x20 ADD PUSH1 0x0 KECCAK256 PUSH1 0x7 ADD DUP2 SWAP1 SSTORE POP PUSH1 0x1 SWAP1 POP SWAP3 SWAP2 POP POP JUMP JUMPDEST PUSH1 0x0 DUP3 PUSH1 0xFF AND PUSH1 0x2 DUP2 LT ISZERO DUP1 ISZERO PUSH2 0x8F1 JUMPI POP PUSH1 0xC DUP2 GT ISZERO JUMPDEST PUSH2 0x963 JUMPI PUSH1 0x40 MLOAD PUSH32 0x8C379A000000000000000000000000000000000000000000000000000000000 DUP2 MSTORE PUSH1 0x4 ADD DUP1 DUP1 PUSH1 0x20 ADD DUP3 DUP2 SUB DUP3 MSTORE PUSH1 0x1E DUP2 MSTORE PUSH1 0x20 ADD DUP1 PUSH32 0x546865206E756D626572206973206E6F742066726F6D203120746F2031320000 DUP2 MSTORE POP PUSH1 0x20 ADD SWAP2 POP POP PUSH1 0x40 MLOAD DUP1 SWAP2 SUB SWAP1 REVERT JUMPDEST PUSH1 0x2 PUSH1 0x0 DUP5 DUP2 MSTORE PUSH1 0x20 ADD SWAP1 DUP2 MSTORE PUSH1 0x20 ADD PUSH1 0x0 KECCAK256 PUSH1 0x0 ADD PUSH1 0x0 CALLER PUSH20 0xFFFFFFFFFFFFFFFFFFFFFFFFFFFFFFFFFFFFFFFF AND PUSH20 0xFFFFFFFFFFFFFFFFFFFFFFFFFFFFFFFFFFFFFFFF AND DUP2 MSTORE PUSH1 0x20 ADD SWAP1 DUP2 MSTORE PUSH1 0x20 ADD PUSH1 0x0 KECCAK256 PUSH1 0x2 ADD PUSH1 0x0 SWAP1 SLOAD SWAP1 PUSH2 0x100 EXP SWAP1 DIV PUSH1 0xFF AND ISZERO PUSH2 0xA3A JUMPI PUSH1 0x40 MLOAD PUSH32 0x8C379A000000000000000000000000000000000000000000000000000000000 DUP2 MSTORE PUSH1 0x4 ADD DUP1 DUP1 PUSH1 0x20 ADD DUP3 DUP2 SUB DUP3 MSTORE PUSH1 0x1E DUP2 MSTORE PUSH1 0x20 ADD DUP1 PUSH32 0x506C6179657220616C726561647920726563656976652061206D6F6E65790000 DUP2 MSTORE POP PUSH1 0x20 ADD SWAP2 POP POP PUSH1 0x40 MLOAD DUP1 SWAP2 SUB SWAP1 REVERT JUMPDEST PUSH1 0x0 DUP4 LT ISZERO DUP1 ISZERO PUSH2 0xA4C JUMPI POP PUSH1 0x1 SLOAD DUP4 LT JUMPDEST PUSH2 0xABE JUMPI PUSH1 0x40 MLOAD PUSH32 0x8C379A000000000000000000000000000000000000000000000000000000000 DUP2 MSTORE PUSH1 0x4 ADD DUP1 DUP1 PUSH1 0x20 ADD DUP3 DUP2 SUB DUP3 MSTORE PUSH1 0x11 DUP2 MSTORE PUSH1 0x20 ADD DUP1 PUSH32 0x47616D65206973206E6F7420656E646564000000000000000000000000000000 DUP2 MSTORE POP PUSH1 0x20 ADD SWAP2 POP POP PUSH1 0x40 MLOAD DUP1 SWAP2 SUB SWAP1 REVERT JUMPDEST PUSH1 0x2 PUSH1 0x0 DUP5 DUP2 MSTORE PUSH1 0x20 ADD SWAP1 DUP2 MSTORE PUSH1 0x20 ADD PUSH1 0x0 KECCAK256 PUSH1 0x2 ADD PUSH1 0x0 SWAP1 SLOAD SWAP1 PUSH2 0x100 EXP SWAP1 DIV PUSH1 0xFF AND PUSH1 0xFF AND DUP5 PUSH1 0xFF AND EQ PUSH2 0xB3F JUMPI PUSH1 0x40 MLOAD PUSH32 0x8C379A000000000000000000000000000000000000000000000000000000000 DUP2 MSTORE PUSH1 0x4 ADD DUP1 DUP1 PUSH1 0x20 ADD DUP3 DUP2 SUB DUP3 MSTORE PUSH1 0x27 DUP2 MSTORE PUSH1 0x20 ADD DUP1 PUSH2 0xF4F PUSH1 0x27 SWAP2 CODECOPY PUSH1 0x40 ADD SWAP2 POP POP PUSH1 0x40 MLOAD DUP1 SWAP2 SUB SWAP1 REVERT JUMPDEST PUSH1 0x0 DUP5 PUSH1 0x40 MLOAD PUSH1 0x20 ADD DUP1 DUP3 PUSH1 0xFF AND PUSH1 0xFF AND DUP2 MSTORE PUSH1 0x20 ADD SWAP2 POP POP PUSH1 0x40 MLOAD PUSH1 0x20 DUP2 DUP4 SUB SUB DUP2 MSTORE SWAP1 PUSH1 0x40 MSTORE DUP1 MLOAD SWAP1 PUSH1 0x20 ADD KECCAK256 SWAP1 POP PUSH1 0x2 PUSH1 0x0 DUP6 DUP2 MSTORE PUSH1 0x20 ADD SWAP1 DUP2 MSTORE PUSH1 0x20 ADD PUSH1 0x0 KECCAK256 PUSH1 0x0 ADD PUSH1 0x0 CALLER PUSH20 0xFFFFFFFFFFFFFFFFFFFFFFFFFFFFFFFFFFFFFFFF AND PUSH20 0xFFFFFFFFFFFFFFFFFFFFFFFFFFFFFFFFFFFFFFFF AND DUP2 MSTORE PUSH1 0x20 ADD SWAP1 DUP2 MSTORE PUSH1 0x20 ADD PUSH1 0x0 KECCAK256 PUSH1 0x0 ADD SLOAD DUP2 EQ PUSH2 0xC1E JUMPI PUSH1 0x40 MLOAD PUSH32 0x8C379A000000000000000000000000000000000000000000000000000000000 DUP2 MSTORE PUSH1 0x4 ADD DUP1 DUP1 PUSH1 0x20 ADD DUP3 DUP2 SUB DUP3 MSTORE PUSH1 0x22 DUP2 MSTORE PUSH1 0x20 ADD DUP1 PUSH2 0xF76 PUSH1 0x22 SWAP2 CODECOPY PUSH1 0x40 ADD SWAP2 POP POP PUSH1 0x40 MLOAD DUP1 SWAP2 SUB SWAP1 REVERT JUMPDEST PUSH1 0x1 SWAP3 POP POP POP SWAP3 SWAP2 POP POP JUMP JUMPDEST DUP1 PUSH1 0xFF AND PUSH1 0x2 DUP2 LT ISZERO DUP1 ISZERO PUSH2 0xC40 JUMPI POP PUSH1 0xC DUP2 GT ISZERO JUMPDEST PUSH2 0xCB2 JUMPI PUSH1 0x40 MLOAD PUSH32 0x8C379A000000000000000000000000000000000000000000000000000000000 DUP2 MSTORE PUSH1 0x4 ADD DUP1 DUP1 PUSH1 0x20 ADD DUP3 DUP2 SUB DUP3 MSTORE PUSH1 0x1E DUP2 MSTORE PUSH1 0x20 ADD DUP1 PUSH32 0x546865206E756D626572206973206E6F742066726F6D203120746F2031320000 DUP2 MSTORE POP PUSH1 0x20 ADD SWAP2 POP POP PUSH1 0x40 MLOAD DUP1 SWAP2 SUB SWAP1 REVERT JUMPDEST DUP2 PUSH1 0x2 PUSH1 0x0 PUSH1 0x1 SLOAD DUP2 MSTORE PUSH1 0x20 ADD SWAP1 DUP2 MSTORE PUSH1 0x20 ADD PUSH1 0x0 KECCAK256 PUSH1 0x2 ADD PUSH1 0x0 PUSH2 0x100 EXP DUP2 SLOAD DUP2 PUSH1 0xFF MUL NOT AND SWAP1 DUP4 PUSH1 0xFF AND MUL OR SWAP1 SSTORE POP POP POP JUMP JUMPDEST PUSH1 0x0 PUSH1 0x2 PUSH1 0x0 PUSH1 0x1 SLOAD DUP2 MSTORE PUSH1 0x20 ADD SWAP1 DUP2 MSTORE PUSH1 0x20 ADD PUSH1 0x0 KECCAK256 PUSH1 0x1 ADD SWAP1 POP PUSH1 0x0 DUP2 DUP1 SLOAD SWAP1 POP SWAP1 POP PUSH1 0x0 DUP1 SWAP1 POP JUMPDEST DUP2 DUP2 LT ISZERO PUSH2 0xEF1 JUMPI PUSH1 0x0 PUSH1 0x2 PUSH1 0x0 PUSH1 0x1 SLOAD DUP2 MSTORE PUSH1 0x20 ADD SWAP1 DUP2 MSTORE PUSH1 0x20 ADD PUSH1 0x0 KECCAK256 PUSH1 0x0 ADD PUSH1 0x0 DUP6 DUP5 DUP2 SLOAD DUP2 LT PUSH2 0xD42 JUMPI INVALID JUMPDEST SWAP1 PUSH1 0x0 MSTORE PUSH1 0x20 PUSH1 0x0 KECCAK256 ADD PUSH1 0x0 SWAP1 SLOAD SWAP1 PUSH2 0x100 EXP SWAP1 DIV PUSH20 0xFFFFFFFFFFFFFFFFFFFFFFFFFFFFFFFFFFFFFFFF AND PUSH20 0xFFFFFFFFFFFFFFFFFFFFFFFFFFFFFFFFFFFFFFFF AND PUSH20 0xFFFFFFFFFFFFFFFFFFFFFFFFFFFFFFFFFFFFFFFF AND DUP2 MSTORE PUSH1 0x20 ADD SWAP1 DUP2 MSTORE PUSH1 0x20 ADD PUSH1 0x0 KECCAK256 PUSH1 0x0 ADD SLOAD SWAP1 POP PUSH1 0x2 PUSH1 0x0 PUSH1 0x1 SLOAD DUP2 MSTORE PUSH1 0x20 ADD SWAP1 DUP2 MSTORE PUSH1 0x20 ADD PUSH1 0x0 KECCAK256 PUSH1 0x2 ADD PUSH1 0x0 SWAP1 SLOAD SWAP1 PUSH2 0x100 EXP SWAP1 DIV PUSH1 0xFF AND PUSH1 0x40 MLOAD PUSH1 0x20 ADD DUP1 DUP3 PUSH1 0xFF AND PUSH1 0xFF AND DUP2 MSTORE PUSH1 0x20 ADD SWAP2 POP POP PUSH1 0x40 MLOAD PUSH1 0x20 DUP2 DUP4 SUB SUB DUP2 MSTORE SWAP1 PUSH1 0x40 MSTORE DUP1 MLOAD SWAP1 PUSH1 0x20 ADD KECCAK256 DUP2 EQ ISZERO PUSH2 0xEE3 JUMPI PUSH1 0x2 PUSH1 0x0 PUSH1 0x1 SLOAD DUP2 MSTORE PUSH1 0x20 ADD SWAP1 DUP2 MSTORE PUSH1 0x20 ADD PUSH1 0x0 KECCAK256 PUSH1 0x3 ADD PUSH1 0x0 DUP2 SLOAD DUP1 SWAP3 SWAP2 SWAP1 PUSH1 0x1 ADD SWAP2 SWAP1 POP SSTORE POP PUSH1 0x2 PUSH1 0x0 PUSH1 0x1 SLOAD DUP2 MSTORE PUSH1 0x20 ADD SWAP1 DUP2 MSTORE PUSH1 0x20 ADD PUSH1 0x0 KECCAK256 PUSH1 0x0 ADD PUSH1 0x0 DUP6 DUP5 DUP2 SLOAD DUP2 LT PUSH2 0xE54 JUMPI INVALID JUMPDEST SWAP1 PUSH1 0x0 MSTORE PUSH1 0x20 PUSH1 0x0 KECCAK256 ADD PUSH1 0x0 SWAP1 SLOAD SWAP1 PUSH2 0x100 EXP SWAP1 DIV PUSH20 0xFFFFFFFFFFFFFFFFFFFFFFFFFFFFFFFFFFFFFFFF AND PUSH20 0xFFFFFFFFFFFFFFFFFFFFFFFFFFFFFFFFFFFFFFFF AND PUSH20 0xFFFFFFFFFFFFFFFFFFFFFFFFFFFFFFFFFFFFFFFF AND DUP2 MSTORE PUSH1 0x20 ADD SWAP1 DUP2 MSTORE PUSH1 0x20 ADD PUSH1 0x0 KECCAK256 PUSH1 0x1 ADD SLOAD PUSH1 0x2 PUSH1 0x0 PUSH1 0x1 SLOAD DUP2 MSTORE PUSH1 0x20 ADD SWAP1 DUP2 MSTORE PUSH1 0x20 ADD PUSH1 0x0 KECCAK256 PUSH1 0x4 ADD PUSH1 0x0 DUP3 DUP3 SLOAD ADD SWAP3 POP POP DUP2 SWAP1 SSTORE POP JUMPDEST POP DUP1 DUP1 PUSH1 0x1 ADD SWAP2 POP POP PUSH2 0xD12 JUMP JUMPDEST POP PUSH1 0x2 PUSH1 0x0 PUSH1 0x1 SLOAD DUP2 MSTORE PUSH1 0x20 ADD SWAP1 DUP2 MSTORE PUSH1 0x20 ADD PUSH1 0x0 KECCAK256 PUSH1 0x6 ADD SLOAD PUSH1 0x2 PUSH1 0x0 PUSH1 0x1 SLOAD DUP2 MSTORE PUSH1 0x20 ADD SWAP1 DUP2 MSTORE PUSH1 0x20 ADD PUSH1 0x0 KECCAK256 PUSH1 0x5 ADD DUP2 SWAP1 SSTORE POP POP POP JUMP INVALID 0x4f PUSH15 0x6C79206D616E616765722063616E20 PUSH4 0x616C6C20 PUSH21 0x6869732066756E6374696F6E5573657220696E7075 PUSH21 0x20646F6573206E6F74206D617463682077696E6E69 PUSH15 0x672076616C75655573657220696E70 PUSH22 0x7420646F6573206E6F74206D61746368206974732068 PUSH2 0x7368 LOG2 PUSH6 0x627A7A723158 KECCAK256 0xbf SWAP16 SWAP7 0x1e SWAP12 0xfc 0x2c MSTORE8 0xb7 0xc4 0xe2 0xe3 0xd2 SWAP7 0xb7 NUMBER SLOAD GAS 0xc7 EQ SWAP4 0xce LOG3 MULMOD 0xc5 ORIGIN NOT 0xb2 JUMP MUL DUP16 PUSH5 0x64736F6C63 NUMBER STOP SDIV 0xc STOP ORIGIN "
    },
    "gasEstimates": {
      "creation": {
        "codeDepositCost": "808800",
        "executionCost": "infinite",
        "totalCost": "infinite"
      },
      "external": {
        "gameId()": "471",
        "getGameById(uint256)": "1561",
        "manager()": "475",
        "newGame(uint8,uint256)": "infinite",
        "receiveMoney(uint8,uint256)": "infinite",
        "setUserBetAndHash(bytes32)": "103782"
      },
      "internal": {
        "checkUserValue(uint8,uint256)": "infinite",
        "setGame()": "infinite",
        "setServerValue(uint8)": "infinite"
      }
    },
    "methodIdentifiers": {
      "gameId()": "d7c81b55",
      "getGameById(uint256)": "09660513",
      "manager()": "481c6a75",
      "newGame(uint8,uint256)": "f5e71f1a",
      "receiveMoney(uint8,uint256)": "886dc4d3",
      "setUserBetAndHash(bytes32)": "0d0aa44a"
    }
  },
  "userdoc": {
    "methods": {}
  }
}