{
    "abi": [
        {
            "inputs": [
                {
                    "internalType": "uint256",
                    "name": "_minimumBet",
                    "type": "uint256"
                }
            ],
            "payable": false,
            "stateMutability": "nonpayable",
            "type": "constructor"
        },
        {
            "constant": true,
            "inputs": [],
            "name": "gameId",
            "outputs": [
                {
                    "internalType": "uint256",
                    "name": "",
                    "type": "uint256"
                }
            ],
            "payable": false,
            "stateMutability": "view",
            "type": "function"
        },
        {
            "constant": true,
            "inputs": [
                {
                    "internalType": "uint256",
                    "name": "id",
                    "type": "uint256"
                }
            ],
            "name": "getGameById",
            "outputs": [
                {
                    "internalType": "uint8",
                    "name": "winningValue",
                    "type": "uint8"
                },
                {
                    "internalType": "uint256",
                    "name": "restBalance",
                    "type": "uint256"
                },
                {
                    "internalType": "uint256",
                    "name": "gameBalance",
                    "type": "uint256"
                },
                {
                    "internalType": "uint256",
                    "name": "minimumBet",
                    "type": "uint256"
                }
            ],
            "payable": false,
            "stateMutability": "view",
            "type": "function"
        },
        {
            "constant": true,
            "inputs": [],
            "name": "manager",
            "outputs": [
                {
                    "internalType": "address",
                    "name": "",
                    "type": "address"
                }
            ],
            "payable": false,
            "stateMutability": "view",
            "type": "function"
        },
        {
            "constant": false,
            "inputs": [
                {
                    "internalType": "uint8",
                    "name": "dice",
                    "type": "uint8"
                },
                {
                    "internalType": "uint256",
                    "name": "_minimumBet",
                    "type": "uint256"
                }
            ],
            "name": "newGame",
            "outputs": [
                {
                    "internalType": "bool",
                    "name": "",
                    "type": "bool"
                }
            ],
            "payable": false,
            "stateMutability": "nonpayable",
            "type": "function"
        },
        {
            "constant": false,
            "inputs": [
                {
                    "internalType": "uint8",
                    "name": "userValue",
                    "type": "uint8"
                },
                {
                    "internalType": "uint256",
                    "name": "_gameId",
                    "type": "uint256"
                }
            ],
            "name": "receiveMoney",
            "outputs": [
                {
                    "internalType": "bool",
                    "name": "",
                    "type": "bool"
                }
            ],
            "payable": true,
            "stateMutability": "payable",
            "type": "function"
        },
        {
            "constant": false,
            "inputs": [
                {
                    "internalType": "bytes32",
                    "name": "hashValue",
                    "type": "bytes32"
                }
            ],
            "name": "setUserBetAndHash",
            "outputs": [],
            "payable": true,
            "stateMutability": "payable",
            "type": "function"
        }
    ],
    "devdoc": {
        "methods": {}
    },
    "evm": {
        "assembly": "    /* \"diceGame.sol\":28:4087  contract DiceGame {\r... */\n  mstore(0x40, 0x80)\n    /* \"diceGame.sol\":845:986  constructor(uint _minimumBet) public {\r... */\n  callvalue\n    /* \"--CODEGEN--\":8:17   */\n  dup1\n    /* \"--CODEGEN--\":5:7   */\n  iszero\n  tag_1\n  jumpi\n    /* \"--CODEGEN--\":30:31   */\n  0x00\n    /* \"--CODEGEN--\":27:28   */\n  dup1\n    /* \"--CODEGEN--\":20:32   */\n  revert\n    /* \"--CODEGEN--\":5:7   */\ntag_1:\n    /* \"diceGame.sol\":845:986  constructor(uint _minimumBet) public {\r... */\n  pop\n  mload(0x40)\n  sub(codesize, bytecodeSize)\n  dup1\n  bytecodeSize\n  dup4\n  codecopy\n  dup2\n  dup2\n  add\n  0x40\n  mstore\n    /* \"--CODEGEN--\":13:15   */\n  0x20\n    /* \"--CODEGEN--\":8:11   */\n  dup2\n    /* \"--CODEGEN--\":5:16   */\n  lt\n    /* \"--CODEGEN--\":2:4   */\n  iszero\n  tag_2\n  jumpi\n    /* \"--CODEGEN--\":29:30   */\n  0x00\n    /* \"--CODEGEN--\":26:27   */\n  dup1\n    /* \"--CODEGEN--\":19:31   */\n  revert\n    /* \"--CODEGEN--\":2:4   */\ntag_2:\n    /* \"diceGame.sol\":845:986  constructor(uint _minimumBet) public {\r... */\n  dup2\n  add\n  swap1\n  dup1\n  dup1\n  mload\n  swap1\n  0x20\n  add\n  swap1\n  swap3\n  swap2\n  swap1\n  pop\n  pop\n  pop\n    /* \"diceGame.sol\":915:926  _minimumBet */\n  dup1\n    /* \"diceGame.sol\":893:898  games */\n  0x02\n    /* \"diceGame.sol\":893:901  games[0] */\n  0x00\n    /* \"diceGame.sol\":899:900  0 */\n  dup1\n    /* \"diceGame.sol\":893:901  games[0] */\n  dup2\n  mstore\n  0x20\n  add\n  swap1\n  dup2\n  mstore\n  0x20\n  add\n  0x00\n  keccak256\n    /* \"diceGame.sol\":893:912  games[0].minimumBet */\n  0x07\n  add\n    /* \"diceGame.sol\":893:926  games[0].minimumBet = _minimumBet */\n  dup2\n  swap1\n  sstore\n  pop\n    /* \"diceGame.sol\":947:957  msg.sender */\n  caller\n    /* \"diceGame.sol\":937:944  manager */\n  0x00\n  dup1\n    /* \"diceGame.sol\":937:957  manager = msg.sender */\n  0x0100\n  exp\n  dup2\n  sload\n  dup2\n  0xffffffffffffffffffffffffffffffffffffffff\n  mul\n  not\n  and\n  swap1\n  dup4\n  0xffffffffffffffffffffffffffffffffffffffff\n  and\n  mul\n  or\n  swap1\n  sstore\n  pop\n    /* \"diceGame.sol\":977:978  0 */\n  0x00\n    /* \"diceGame.sol\":968:974  gameId */\n  0x01\n    /* \"diceGame.sol\":968:978  gameId = 0 */\n  dup2\n  swap1\n  sstore\n  pop\n    /* \"diceGame.sol\":845:986  constructor(uint _minimumBet) public {\r... */\n  pop\n    /* \"diceGame.sol\":28:4087  contract DiceGame {\r... */\n  dataSize(sub_0)\n  dup1\n  dataOffset(sub_0)\n  0x00\n  codecopy\n  0x00\n  return\nstop\n\nsub_0: assembly {\n        /* \"diceGame.sol\":28:4087  contract DiceGame {\r... */\n      mstore(0x40, 0x80)\n      jumpi(tag_1, lt(calldatasize, 0x04))\n      shr(0xe0, calldataload(0x00))\n      dup1\n      0x09660513\n      eq\n      tag_2\n      jumpi\n      dup1\n      0x0d0aa44a\n      eq\n      tag_3\n      jumpi\n      dup1\n      0x481c6a75\n      eq\n      tag_4\n      jumpi\n      dup1\n      0x886dc4d3\n      eq\n      tag_5\n      jumpi\n      dup1\n      0xd7c81b55\n      eq\n      tag_6\n      jumpi\n      dup1\n      0xf5e71f1a\n      eq\n      tag_7\n      jumpi\n    tag_1:\n      0x00\n      dup1\n      revert\n        /* \"diceGame.sol\":3780:4084  function getGameById(uint id) public view returns(uint8 winningValue, uint restBalance, uint gameBalance, uint minimumBet) {\r... */\n    tag_2:\n      callvalue\n        /* \"--CODEGEN--\":8:17   */\n      dup1\n        /* \"--CODEGEN--\":5:7   */\n      iszero\n      tag_8\n      jumpi\n        /* \"--CODEGEN--\":30:31   */\n      0x00\n        /* \"--CODEGEN--\":27:28   */\n      dup1\n        /* \"--CODEGEN--\":20:32   */\n      revert\n        /* \"--CODEGEN--\":5:7   */\n    tag_8:\n        /* \"diceGame.sol\":3780:4084  function getGameById(uint id) public view returns(uint8 winningValue, uint restBalance, uint gameBalance, uint minimumBet) {\r... */\n      pop\n      tag_9\n      0x04\n      dup1\n      calldatasize\n      sub\n        /* \"--CODEGEN--\":13:15   */\n      0x20\n        /* \"--CODEGEN--\":8:11   */\n      dup2\n        /* \"--CODEGEN--\":5:16   */\n      lt\n        /* \"--CODEGEN--\":2:4   */\n      iszero\n      tag_10\n      jumpi\n        /* \"--CODEGEN--\":29:30   */\n      0x00\n        /* \"--CODEGEN--\":26:27   */\n      dup1\n        /* \"--CODEGEN--\":19:31   */\n      revert\n        /* \"--CODEGEN--\":2:4   */\n    tag_10:\n        /* \"diceGame.sol\":3780:4084  function getGameById(uint id) public view returns(uint8 winningValue, uint restBalance, uint gameBalance, uint minimumBet) {\r... */\n      dup2\n      add\n      swap1\n      dup1\n      dup1\n      calldataload\n      swap1\n      0x20\n      add\n      swap1\n      swap3\n      swap2\n      swap1\n      pop\n      pop\n      pop\n      tag_11\n      jump\t// in\n    tag_9:\n      mload(0x40)\n      dup1\n      dup6\n      0xff\n      and\n      0xff\n      and\n      dup2\n      mstore\n      0x20\n      add\n      dup5\n      dup2\n      mstore\n      0x20\n      add\n      dup4\n      dup2\n      mstore\n      0x20\n      add\n      dup3\n      dup2\n      mstore\n      0x20\n      add\n      swap5\n      pop\n      pop\n      pop\n      pop\n      pop\n      mload(0x40)\n      dup1\n      swap2\n      sub\n      swap1\n      return\n        /* \"diceGame.sol\":998:1620  function setUserBetAndHash(bytes32 hashValue) public payable {\r... */\n    tag_3:\n      tag_12\n      0x04\n      dup1\n      calldatasize\n      sub\n        /* \"--CODEGEN--\":13:15   */\n      0x20\n        /* \"--CODEGEN--\":8:11   */\n      dup2\n        /* \"--CODEGEN--\":5:16   */\n      lt\n        /* \"--CODEGEN--\":2:4   */\n      iszero\n      tag_13\n      jumpi\n        /* \"--CODEGEN--\":29:30   */\n      0x00\n        /* \"--CODEGEN--\":26:27   */\n      dup1\n        /* \"--CODEGEN--\":19:31   */\n      revert\n        /* \"--CODEGEN--\":2:4   */\n    tag_13:\n        /* \"diceGame.sol\":998:1620  function setUserBetAndHash(bytes32 hashValue) public payable {\r... */\n      dup2\n      add\n      swap1\n      dup1\n      dup1\n      calldataload\n      swap1\n      0x20\n      add\n      swap1\n      swap3\n      swap2\n      swap1\n      pop\n      pop\n      pop\n      tag_14\n      jump\t// in\n    tag_12:\n      stop\n        /* \"diceGame.sol\":53:75  address public manager */\n    tag_4:\n      callvalue\n        /* \"--CODEGEN--\":8:17   */\n      dup1\n        /* \"--CODEGEN--\":5:7   */\n      iszero\n      tag_15\n      jumpi\n        /* \"--CODEGEN--\":30:31   */\n      0x00\n        /* \"--CODEGEN--\":27:28   */\n      dup1\n        /* \"--CODEGEN--\":20:32   */\n      revert\n        /* \"--CODEGEN--\":5:7   */\n    tag_15:\n        /* \"diceGame.sol\":53:75  address public manager */\n      pop\n      tag_16\n      tag_17\n      jump\t// in\n    tag_16:\n      mload(0x40)\n      dup1\n      dup3\n      0xffffffffffffffffffffffffffffffffffffffff\n      and\n      0xffffffffffffffffffffffffffffffffffffffff\n      and\n      dup2\n      mstore\n      0x20\n      add\n      swap2\n      pop\n      pop\n      mload(0x40)\n      dup1\n      swap2\n      sub\n      swap1\n      return\n        /* \"diceGame.sol\":2232:2682  function receiveMoney(uint8 userValue, uint _gameId) public payable returns (bool) {\r... */\n    tag_5:\n      tag_18\n      0x04\n      dup1\n      calldatasize\n      sub\n        /* \"--CODEGEN--\":13:15   */\n      0x40\n        /* \"--CODEGEN--\":8:11   */\n      dup2\n        /* \"--CODEGEN--\":5:16   */\n      lt\n        /* \"--CODEGEN--\":2:4   */\n      iszero\n      tag_19\n      jumpi\n        /* \"--CODEGEN--\":29:30   */\n      0x00\n        /* \"--CODEGEN--\":26:27   */\n      dup1\n        /* \"--CODEGEN--\":19:31   */\n      revert\n        /* \"--CODEGEN--\":2:4   */\n    tag_19:\n        /* \"diceGame.sol\":2232:2682  function receiveMoney(uint8 userValue, uint _gameId) public payable returns (bool) {\r... */\n      dup2\n      add\n      swap1\n      dup1\n      dup1\n      calldataload\n      0xff\n      and\n      swap1\n      0x20\n      add\n      swap1\n      swap3\n      swap2\n      swap1\n      dup1\n      calldataload\n      swap1\n      0x20\n      add\n      swap1\n      swap3\n      swap2\n      swap1\n      pop\n      pop\n      pop\n      tag_20\n      jump\t// in\n    tag_18:\n      mload(0x40)\n      dup1\n      dup3\n      iszero\n      iszero\n      iszero\n      iszero\n      dup2\n      mstore\n      0x20\n      add\n      swap2\n      pop\n      pop\n      mload(0x40)\n      dup1\n      swap2\n      sub\n      swap1\n      return\n        /* \"diceGame.sol\":82:100  uint public gameId */\n    tag_6:\n      callvalue\n        /* \"--CODEGEN--\":8:17   */\n      dup1\n        /* \"--CODEGEN--\":5:7   */\n      iszero\n      tag_21\n      jumpi\n        /* \"--CODEGEN--\":30:31   */\n      0x00\n        /* \"--CODEGEN--\":27:28   */\n      dup1\n        /* \"--CODEGEN--\":20:32   */\n      revert\n        /* \"--CODEGEN--\":5:7   */\n    tag_21:\n        /* \"diceGame.sol\":82:100  uint public gameId */\n      pop\n      tag_22\n      tag_23\n      jump\t// in\n    tag_22:\n      mload(0x40)\n      dup1\n      dup3\n      dup2\n      mstore\n      0x20\n      add\n      swap2\n      pop\n      pop\n      mload(0x40)\n      dup1\n      swap2\n      sub\n      swap1\n      return\n        /* \"diceGame.sol\":3480:3768  function newGame(uint8 dice, uint _minimumBet) public isManager returns (bool) {\r... */\n    tag_7:\n      callvalue\n        /* \"--CODEGEN--\":8:17   */\n      dup1\n        /* \"--CODEGEN--\":5:7   */\n      iszero\n      tag_24\n      jumpi\n        /* \"--CODEGEN--\":30:31   */\n      0x00\n        /* \"--CODEGEN--\":27:28   */\n      dup1\n        /* \"--CODEGEN--\":20:32   */\n      revert\n        /* \"--CODEGEN--\":5:7   */\n    tag_24:\n        /* \"diceGame.sol\":3480:3768  function newGame(uint8 dice, uint _minimumBet) public isManager returns (bool) {\r... */\n      pop\n      tag_25\n      0x04\n      dup1\n      calldatasize\n      sub\n        /* \"--CODEGEN--\":13:15   */\n      0x40\n        /* \"--CODEGEN--\":8:11   */\n      dup2\n        /* \"--CODEGEN--\":5:16   */\n      lt\n        /* \"--CODEGEN--\":2:4   */\n      iszero\n      tag_26\n      jumpi\n        /* \"--CODEGEN--\":29:30   */\n      0x00\n        /* \"--CODEGEN--\":26:27   */\n      dup1\n        /* \"--CODEGEN--\":19:31   */\n      revert\n        /* \"--CODEGEN--\":2:4   */\n    tag_26:\n        /* \"diceGame.sol\":3480:3768  function newGame(uint8 dice, uint _minimumBet) public isManager returns (bool) {\r... */\n      dup2\n      add\n      swap1\n      dup1\n      dup1\n      calldataload\n      0xff\n      and\n      swap1\n      0x20\n      add\n      swap1\n      swap3\n      swap2\n      swap1\n      dup1\n      calldataload\n      swap1\n      0x20\n      add\n      swap1\n      swap3\n      swap2\n      swap1\n      pop\n      pop\n      pop\n      tag_27\n      jump\t// in\n    tag_25:\n      mload(0x40)\n      dup1\n      dup3\n      iszero\n      iszero\n      iszero\n      iszero\n      dup2\n      mstore\n      0x20\n      add\n      swap2\n      pop\n      pop\n      mload(0x40)\n      dup1\n      swap2\n      sub\n      swap1\n      return\n        /* \"diceGame.sol\":3780:4084  function getGameById(uint id) public view returns(uint8 winningValue, uint restBalance, uint gameBalance, uint minimumBet) {\r... */\n    tag_11:\n        /* \"diceGame.sol\":3830:3848  uint8 winningValue */\n      0x00\n        /* \"diceGame.sol\":3850:3866  uint restBalance */\n      dup1\n        /* \"diceGame.sol\":3868:3884  uint gameBalance */\n      0x00\n        /* \"diceGame.sol\":3886:3901  uint minimumBet */\n      dup1\n        /* \"diceGame.sol\":3936:3941  games */\n      0x02\n        /* \"diceGame.sol\":3936:3945  games[id] */\n      0x00\n        /* \"diceGame.sol\":3942:3944  id */\n      dup7\n        /* \"diceGame.sol\":3936:3945  games[id] */\n      dup2\n      mstore\n      0x20\n      add\n      swap1\n      dup2\n      mstore\n      0x20\n      add\n      0x00\n      keccak256\n        /* \"diceGame.sol\":3936:3958  games[id].winningValue */\n      0x02\n      add\n      0x00\n      swap1\n      sload\n      swap1\n      0x0100\n      exp\n      swap1\n      div\n      0xff\n      and\n        /* \"diceGame.sol\":3973:3978  games */\n      0x02\n        /* \"diceGame.sol\":3973:3982  games[id] */\n      0x00\n        /* \"diceGame.sol\":3979:3981  id */\n      dup8\n        /* \"diceGame.sol\":3973:3982  games[id] */\n      dup2\n      mstore\n      0x20\n      add\n      swap1\n      dup2\n      mstore\n      0x20\n      add\n      0x00\n      keccak256\n        /* \"diceGame.sol\":3973:3994  games[id].restBalance */\n      0x05\n      add\n      sload\n        /* \"diceGame.sol\":4009:4014  games */\n      0x02\n        /* \"diceGame.sol\":4009:4018  games[id] */\n      0x00\n        /* \"diceGame.sol\":4015:4017  id */\n      dup9\n        /* \"diceGame.sol\":4009:4018  games[id] */\n      dup2\n      mstore\n      0x20\n      add\n      swap1\n      dup2\n      mstore\n      0x20\n      add\n      0x00\n      keccak256\n        /* \"diceGame.sol\":4009:4030  games[id].gameBalance */\n      0x06\n      add\n      sload\n        /* \"diceGame.sol\":4045:4050  games */\n      0x02\n        /* \"diceGame.sol\":4045:4054  games[id] */\n      0x00\n        /* \"diceGame.sol\":4051:4053  id */\n      dup10\n        /* \"diceGame.sol\":4045:4054  games[id] */\n      dup2\n      mstore\n      0x20\n      add\n      swap1\n      dup2\n      mstore\n      0x20\n      add\n      0x00\n      keccak256\n        /* \"diceGame.sol\":4045:4065  games[id].minimumBet */\n      0x07\n      add\n      sload\n        /* \"diceGame.sol\":3914:4076  return (\r... */\n      swap4\n      pop\n      swap4\n      pop\n      swap4\n      pop\n      swap4\n      pop\n        /* \"diceGame.sol\":3780:4084  function getGameById(uint id) public view returns(uint8 winningValue, uint restBalance, uint gameBalance, uint minimumBet) {\r... */\n      swap2\n      swap4\n      pop\n      swap2\n      swap4\n      jump\t// out\n        /* \"diceGame.sol\":998:1620  function setUserBetAndHash(bytes32 hashValue) public payable {\r... */\n    tag_14:\n        /* \"diceGame.sol\":1070:1091  address senderAddress */\n      0x00\n        /* \"diceGame.sol\":1094:1104  msg.sender */\n      caller\n        /* \"diceGame.sol\":1070:1104  address senderAddress = msg.sender */\n      swap1\n      pop\n        /* \"diceGame.sol\":1140:1147  manager */\n      0x00\n      dup1\n      swap1\n      sload\n      swap1\n      0x0100\n      exp\n      swap1\n      div\n      0xffffffffffffffffffffffffffffffffffffffff\n      and\n        /* \"diceGame.sol\":1123:1147  senderAddress != manager */\n      0xffffffffffffffffffffffffffffffffffffffff\n      and\n        /* \"diceGame.sol\":1123:1136  senderAddress */\n      dup2\n        /* \"diceGame.sol\":1123:1147  senderAddress != manager */\n      0xffffffffffffffffffffffffffffffffffffffff\n      and\n      eq\n      iszero\n        /* \"diceGame.sol\":1115:1178  require(senderAddress != manager, \"Manager cannot bet a value\") */\n      tag_30\n      jumpi\n      mload(0x40)\n      0x08c379a000000000000000000000000000000000000000000000000000000000\n      dup2\n      mstore\n      0x04\n      add\n      dup1\n      dup1\n      0x20\n      add\n      dup3\n      dup2\n      sub\n      dup3\n      mstore\n      0x1a\n      dup2\n      mstore\n      0x20\n      add\n      dup1\n      0x4d616e616765722063616e6e6f742062657420612076616c7565000000000000\n      dup2\n      mstore\n      pop\n      0x20\n      add\n      swap2\n      pop\n      pop\n      mload(0x40)\n      dup1\n      swap2\n      sub\n      swap1\n      revert\n    tag_30:\n        /* \"diceGame.sol\":1247:1248  0 */\n      0x00\n        /* \"diceGame.sol\":1197:1248  games[gameId].players[senderAddress].hashValue == 0 */\n      dup1\n      shl\n        /* \"diceGame.sol\":1197:1202  games */\n      0x02\n        /* \"diceGame.sol\":1197:1210  games[gameId] */\n      0x00\n        /* \"diceGame.sol\":1203:1209  gameId */\n      sload(0x01)\n        /* \"diceGame.sol\":1197:1210  games[gameId] */\n      dup2\n      mstore\n      0x20\n      add\n      swap1\n      dup2\n      mstore\n      0x20\n      add\n      0x00\n      keccak256\n        /* \"diceGame.sol\":1197:1218  games[gameId].players */\n      0x00\n      add\n        /* \"diceGame.sol\":1197:1233  games[gameId].players[senderAddress] */\n      0x00\n        /* \"diceGame.sol\":1219:1232  senderAddress */\n      dup4\n        /* \"diceGame.sol\":1197:1233  games[gameId].players[senderAddress] */\n      0xffffffffffffffffffffffffffffffffffffffff\n      and\n      0xffffffffffffffffffffffffffffffffffffffff\n      and\n      dup2\n      mstore\n      0x20\n      add\n      swap1\n      dup2\n      mstore\n      0x20\n      add\n      0x00\n      keccak256\n        /* \"diceGame.sol\":1197:1243  games[gameId].players[senderAddress].hashValue */\n      0x00\n      add\n      sload\n        /* \"diceGame.sol\":1197:1248  games[gameId].players[senderAddress].hashValue == 0 */\n      eq\n        /* \"diceGame.sol\":1189:1278  require(games[gameId].players[senderAddress].hashValue == 0, \"Player already bet number\") */\n      tag_31\n      jumpi\n      mload(0x40)\n      0x08c379a000000000000000000000000000000000000000000000000000000000\n      dup2\n      mstore\n      0x04\n      add\n      dup1\n      dup1\n      0x20\n      add\n      dup3\n      dup2\n      sub\n      dup3\n      mstore\n      0x19\n      dup2\n      mstore\n      0x20\n      add\n      dup1\n      0x506c6179657220616c726561647920626574206e756d62657200000000000000\n      dup2\n      mstore\n      pop\n      0x20\n      add\n      swap2\n      pop\n      pop\n      mload(0x40)\n      dup1\n      swap2\n      sub\n      swap1\n      revert\n    tag_31:\n        /* \"diceGame.sol\":1309:1314  games */\n      0x02\n        /* \"diceGame.sol\":1309:1322  games[gameId] */\n      0x00\n        /* \"diceGame.sol\":1315:1321  gameId */\n      sload(0x01)\n        /* \"diceGame.sol\":1309:1322  games[gameId] */\n      dup2\n      mstore\n      0x20\n      add\n      swap1\n      dup2\n      mstore\n      0x20\n      add\n      0x00\n      keccak256\n        /* \"diceGame.sol\":1309:1333  games[gameId].minimumBet */\n      0x07\n      add\n      sload\n        /* \"diceGame.sol\":1297:1306  msg.value */\n      callvalue\n        /* \"diceGame.sol\":1297:1333  msg.value > games[gameId].minimumBet */\n      gt\n        /* \"diceGame.sol\":1289:1366  require(msg.value > games[gameId].minimumBet, \"You Bet less then minimumBet\") */\n      tag_32\n      jumpi\n      mload(0x40)\n      0x08c379a000000000000000000000000000000000000000000000000000000000\n      dup2\n      mstore\n      0x04\n      add\n      dup1\n      dup1\n      0x20\n      add\n      dup3\n      dup2\n      sub\n      dup3\n      mstore\n      0x1c\n      dup2\n      mstore\n      0x20\n      add\n      dup1\n      0x596f7520426574206c657373207468656e206d696e696d756d42657400000000\n      dup2\n      mstore\n      pop\n      0x20\n      add\n      swap2\n      pop\n      pop\n      mload(0x40)\n      dup1\n      swap2\n      sub\n      swap1\n      revert\n    tag_32:\n        /* \"diceGame.sol\":1426:1435  hashValue */\n      dup2\n        /* \"diceGame.sol\":1377:1382  games */\n      0x02\n        /* \"diceGame.sol\":1377:1390  games[gameId] */\n      0x00\n        /* \"diceGame.sol\":1383:1389  gameId */\n      sload(0x01)\n        /* \"diceGame.sol\":1377:1390  games[gameId] */\n      dup2\n      mstore\n      0x20\n      add\n      swap1\n      dup2\n      mstore\n      0x20\n      add\n      0x00\n      keccak256\n        /* \"diceGame.sol\":1377:1398  games[gameId].players */\n      0x00\n      add\n        /* \"diceGame.sol\":1377:1413  games[gameId].players[senderAddress] */\n      0x00\n        /* \"diceGame.sol\":1399:1412  senderAddress */\n      dup4\n        /* \"diceGame.sol\":1377:1413  games[gameId].players[senderAddress] */\n      0xffffffffffffffffffffffffffffffffffffffff\n      and\n      0xffffffffffffffffffffffffffffffffffffffff\n      and\n      dup2\n      mstore\n      0x20\n      add\n      swap1\n      dup2\n      mstore\n      0x20\n      add\n      0x00\n      keccak256\n        /* \"diceGame.sol\":1377:1423  games[gameId].players[senderAddress].hashValue */\n      0x00\n      add\n        /* \"diceGame.sol\":1377:1435  games[gameId].players[senderAddress].hashValue = hashValue */\n      dup2\n      swap1\n      sstore\n      pop\n        /* \"diceGame.sol\":1494:1503  msg.value */\n      callvalue\n        /* \"diceGame.sol\":1446:1451  games */\n      0x02\n        /* \"diceGame.sol\":1446:1459  games[gameId] */\n      0x00\n        /* \"diceGame.sol\":1452:1458  gameId */\n      sload(0x01)\n        /* \"diceGame.sol\":1446:1459  games[gameId] */\n      dup2\n      mstore\n      0x20\n      add\n      swap1\n      dup2\n      mstore\n      0x20\n      add\n      0x00\n      keccak256\n        /* \"diceGame.sol\":1446:1467  games[gameId].players */\n      0x00\n      add\n        /* \"diceGame.sol\":1446:1482  games[gameId].players[senderAddress] */\n      0x00\n        /* \"diceGame.sol\":1468:1481  senderAddress */\n      dup4\n        /* \"diceGame.sol\":1446:1482  games[gameId].players[senderAddress] */\n      0xffffffffffffffffffffffffffffffffffffffff\n      and\n      0xffffffffffffffffffffffffffffffffffffffff\n      and\n      dup2\n      mstore\n      0x20\n      add\n      swap1\n      dup2\n      mstore\n      0x20\n      add\n      0x00\n      keccak256\n        /* \"diceGame.sol\":1446:1491  games[gameId].players[senderAddress].betValue */\n      0x01\n      add\n        /* \"diceGame.sol\":1446:1503  games[gameId].players[senderAddress].betValue = msg.value */\n      dup2\n      swap1\n      sstore\n      pop\n        /* \"diceGame.sol\":1514:1519  games */\n      0x02\n        /* \"diceGame.sol\":1514:1527  games[gameId] */\n      0x00\n        /* \"diceGame.sol\":1520:1526  gameId */\n      sload(0x01)\n        /* \"diceGame.sol\":1514:1527  games[gameId] */\n      dup2\n      mstore\n      0x20\n      add\n      swap1\n      dup2\n      mstore\n      0x20\n      add\n      0x00\n      keccak256\n        /* \"diceGame.sol\":1514:1543  games[gameId].playerAddresses */\n      0x01\n      add\n        /* \"diceGame.sol\":1549:1562  senderAddress */\n      dup2\n        /* \"diceGame.sol\":1514:1563  games[gameId].playerAddresses.push(senderAddress) */\n      swap1\n      dup1\n        /* \"--CODEGEN--\":39:40   */\n      0x01\n        /* \"--CODEGEN--\":33:36   */\n      dup2\n        /* \"--CODEGEN--\":27:37   */\n      sload\n        /* \"--CODEGEN--\":23:41   */\n      add\n        /* \"--CODEGEN--\":57:67   */\n      dup1\n        /* \"--CODEGEN--\":52:55   */\n      dup3\n        /* \"--CODEGEN--\":45:68   */\n      sstore\n        /* \"--CODEGEN--\":79:89   */\n      dup1\n        /* \"--CODEGEN--\":72:89   */\n      swap2\n      pop\n        /* \"--CODEGEN--\":0:93   */\n      pop\n        /* \"diceGame.sol\":1514:1563  games[gameId].playerAddresses.push(senderAddress) */\n      swap1\n      0x01\n      dup3\n      sub\n      swap1\n      0x00\n      mstore\n      keccak256(0x00, 0x20)\n      add\n      0x00\n      swap1\n      swap2\n      swap3\n      swap1\n      swap2\n      swap1\n      swap2\n      0x0100\n      exp\n      dup2\n      sload\n      dup2\n      0xffffffffffffffffffffffffffffffffffffffff\n      mul\n      not\n      and\n      swap1\n      dup4\n      0xffffffffffffffffffffffffffffffffffffffff\n      and\n      mul\n      or\n      swap1\n      sstore\n      pop\n      pop\n        /* \"diceGame.sol\":1603:1612  msg.value */\n      callvalue\n        /* \"diceGame.sol\":1574:1579  games */\n      0x02\n        /* \"diceGame.sol\":1574:1587  games[gameId] */\n      0x00\n        /* \"diceGame.sol\":1580:1586  gameId */\n      sload(0x01)\n        /* \"diceGame.sol\":1574:1587  games[gameId] */\n      dup2\n      mstore\n      0x20\n      add\n      swap1\n      dup2\n      mstore\n      0x20\n      add\n      0x00\n      keccak256\n        /* \"diceGame.sol\":1574:1599  games[gameId].gameBalance */\n      0x06\n      add\n      0x00\n        /* \"diceGame.sol\":1574:1612  games[gameId].gameBalance += msg.value */\n      dup3\n      dup3\n      sload\n      add\n      swap3\n      pop\n      pop\n      dup2\n      swap1\n      sstore\n      pop\n        /* \"diceGame.sol\":998:1620  function setUserBetAndHash(bytes32 hashValue) public payable {\r... */\n      pop\n      pop\n      jump\t// out\n        /* \"diceGame.sol\":53:75  address public manager */\n    tag_17:\n      0x00\n      dup1\n      swap1\n      sload\n      swap1\n      0x0100\n      exp\n      swap1\n      div\n      0xffffffffffffffffffffffffffffffffffffffff\n      and\n      dup2\n      jump\t// out\n        /* \"diceGame.sol\":2232:2682  function receiveMoney(uint8 userValue, uint _gameId) public payable returns (bool) {\r... */\n    tag_20:\n        /* \"diceGame.sol\":2309:2313  bool */\n      0x00\n        /* \"diceGame.sol\":2330:2364  checkUserValue(userValue, _gameId) */\n      tag_35\n        /* \"diceGame.sol\":2345:2354  userValue */\n      dup4\n        /* \"diceGame.sol\":2356:2363  _gameId */\n      dup4\n        /* \"diceGame.sol\":2330:2344  checkUserValue */\n      tag_36\n        /* \"diceGame.sol\":2330:2364  checkUserValue(userValue, _gameId) */\n      jump\t// in\n    tag_35:\n        /* \"diceGame.sol\":2326:2675  if (checkUserValue(userValue, _gameId)) {\r... */\n      iszero\n      tag_37\n      jumpi\n        /* \"diceGame.sol\":2381:2391  uint money */\n      0x00\n        /* \"diceGame.sol\":2469:2474  games */\n      0x02\n        /* \"diceGame.sol\":2469:2483  games[_gameId] */\n      0x00\n        /* \"diceGame.sol\":2475:2482  _gameId */\n      dup5\n        /* \"diceGame.sol\":2469:2483  games[_gameId] */\n      dup2\n      mstore\n      0x20\n      add\n      swap1\n      dup2\n      mstore\n      0x20\n      add\n      0x00\n      keccak256\n        /* \"diceGame.sol\":2469:2501  games[_gameId].allWinnersBalance */\n      0x04\n      add\n      sload\n        /* \"diceGame.sol\":2440:2445  games */\n      0x02\n        /* \"diceGame.sol\":2440:2454  games[_gameId] */\n      0x00\n        /* \"diceGame.sol\":2446:2453  _gameId */\n      dup6\n        /* \"diceGame.sol\":2440:2454  games[_gameId] */\n      dup2\n      mstore\n      0x20\n      add\n      swap1\n      dup2\n      mstore\n      0x20\n      add\n      0x00\n      keccak256\n        /* \"diceGame.sol\":2440:2466  games[_gameId].gameBalance */\n      0x06\n      add\n      sload\n        /* \"diceGame.sol\":2394:2399  games */\n      0x02\n        /* \"diceGame.sol\":2394:2408  games[_gameId] */\n      0x00\n        /* \"diceGame.sol\":2400:2407  _gameId */\n      dup7\n        /* \"diceGame.sol\":2394:2408  games[_gameId] */\n      dup2\n      mstore\n      0x20\n      add\n      swap1\n      dup2\n      mstore\n      0x20\n      add\n      0x00\n      keccak256\n        /* \"diceGame.sol\":2394:2416  games[_gameId].players */\n      0x00\n      add\n        /* \"diceGame.sol\":2394:2428  games[_gameId].players[msg.sender] */\n      0x00\n        /* \"diceGame.sol\":2417:2427  msg.sender */\n      caller\n        /* \"diceGame.sol\":2394:2428  games[_gameId].players[msg.sender] */\n      0xffffffffffffffffffffffffffffffffffffffff\n      and\n      0xffffffffffffffffffffffffffffffffffffffff\n      and\n      dup2\n      mstore\n      0x20\n      add\n      swap1\n      dup2\n      mstore\n      0x20\n      add\n      0x00\n      keccak256\n        /* \"diceGame.sol\":2394:2437  games[_gameId].players[msg.sender].betValue */\n      0x01\n      add\n      sload\n        /* \"diceGame.sol\":2394:2466  games[_gameId].players[msg.sender].betValue * games[_gameId].gameBalance */\n      mul\n        /* \"diceGame.sol\":2394:2501  games[_gameId].players[msg.sender].betValue * games[_gameId].gameBalance / games[_gameId].allWinnersBalance */\n      dup2\n      tag_38\n      jumpi\n      invalid\n    tag_38:\n      div\n        /* \"diceGame.sol\":2381:2501  uint money = games[_gameId].players[msg.sender].betValue * games[_gameId].gameBalance / games[_gameId].allWinnersBalance */\n      swap1\n      pop\n        /* \"diceGame.sol\":2516:2526  msg.sender */\n      caller\n        /* \"diceGame.sol\":2516:2535  msg.sender.transfer */\n      0xffffffffffffffffffffffffffffffffffffffff\n      and\n        /* \"diceGame.sol\":2516:2542  msg.sender.transfer(money) */\n      0x08fc\n        /* \"diceGame.sol\":2536:2541  money */\n      dup3\n        /* \"diceGame.sol\":2516:2542  msg.sender.transfer(money) */\n      swap1\n      dup2\n      iszero\n      mul\n      swap1\n      mload(0x40)\n      0x00\n      mload(0x40)\n      dup1\n      dup4\n      sub\n      dup2\n      dup6\n      dup9\n      dup9\n      call\n      swap4\n      pop\n      pop\n      pop\n      pop\n      iszero\n        /* \"--CODEGEN--\":8:17   */\n      dup1\n        /* \"--CODEGEN--\":5:7   */\n      iszero\n      tag_39\n      jumpi\n        /* \"--CODEGEN--\":45:61   */\n      returndatasize\n        /* \"--CODEGEN--\":42:43   */\n      0x00\n        /* \"--CODEGEN--\":39:40   */\n      dup1\n        /* \"--CODEGEN--\":24:62   */\n      returndatacopy\n        /* \"--CODEGEN--\":77:93   */\n      returndatasize\n        /* \"--CODEGEN--\":74:75   */\n      0x00\n        /* \"--CODEGEN--\":67:94   */\n      revert\n        /* \"--CODEGEN--\":5:7   */\n    tag_39:\n        /* \"diceGame.sol\":2516:2542  msg.sender.transfer(money) */\n      pop\n        /* \"diceGame.sol\":2587:2592  money */\n      dup1\n        /* \"diceGame.sol\":2557:2562  games */\n      0x02\n        /* \"diceGame.sol\":2557:2571  games[_gameId] */\n      0x00\n        /* \"diceGame.sol\":2563:2570  _gameId */\n      dup6\n        /* \"diceGame.sol\":2557:2571  games[_gameId] */\n      dup2\n      mstore\n      0x20\n      add\n      swap1\n      dup2\n      mstore\n      0x20\n      add\n      0x00\n      keccak256\n        /* \"diceGame.sol\":2557:2583  games[_gameId].restBalance */\n      0x05\n      add\n      0x00\n        /* \"diceGame.sol\":2557:2592  games[_gameId].restBalance -= money */\n      dup3\n      dup3\n      sload\n      sub\n      swap3\n      pop\n      pop\n      dup2\n      swap1\n      sstore\n      pop\n        /* \"diceGame.sol\":2614:2618  true */\n      0x01\n        /* \"diceGame.sol\":2607:2618  return true */\n      swap2\n      pop\n      pop\n      jump(tag_34)\n        /* \"diceGame.sol\":2326:2675  if (checkUserValue(userValue, _gameId)) {\r... */\n    tag_37:\n        /* \"diceGame.sol\":2658:2663  false */\n      0x00\n        /* \"diceGame.sol\":2651:2663  return false */\n      swap1\n      pop\n        /* \"diceGame.sol\":2232:2682  function receiveMoney(uint8 userValue, uint _gameId) public payable returns (bool) {\r... */\n    tag_34:\n      swap3\n      swap2\n      pop\n      pop\n      jump\t// out\n        /* \"diceGame.sol\":82:100  uint public gameId */\n    tag_23:\n      sload(0x01)\n      dup2\n      jump\t// out\n        /* \"diceGame.sol\":3480:3768  function newGame(uint8 dice, uint _minimumBet) public isManager returns (bool) {\r... */\n    tag_27:\n        /* \"diceGame.sol\":3553:3557  bool */\n      0x00\n        /* \"diceGame.sol\":766:773  manager */\n      dup1\n      0x00\n      swap1\n      sload\n      swap1\n      0x0100\n      exp\n      swap1\n      div\n      0xffffffffffffffffffffffffffffffffffffffff\n      and\n        /* \"diceGame.sol\":752:773  msg.sender == manager */\n      0xffffffffffffffffffffffffffffffffffffffff\n      and\n        /* \"diceGame.sol\":752:762  msg.sender */\n      caller\n        /* \"diceGame.sol\":752:773  msg.sender == manager */\n      0xffffffffffffffffffffffffffffffffffffffff\n      and\n      eq\n        /* \"diceGame.sol\":744:813  require(msg.sender == manager, \"Only manager can call this function\") */\n      tag_42\n      jumpi\n      mload(0x40)\n      0x08c379a000000000000000000000000000000000000000000000000000000000\n      dup2\n      mstore\n      0x04\n      add\n      dup1\n      dup1\n      0x20\n      add\n      dup3\n      dup2\n      sub\n      dup3\n      mstore\n      0x23\n      dup2\n      mstore\n      0x20\n      add\n      dup1\n      data_4a8d8e59ed510e06a8e0260cfe413b20861d9f571b155941f3970d9306e4b948\n      0x23\n      swap2\n      codecopy\n      0x40\n      add\n      swap2\n      pop\n      pop\n      mload(0x40)\n      dup1\n      swap2\n      sub\n      swap1\n      revert\n    tag_42:\n        /* \"diceGame.sol\":3630:3650  setServerValue(dice) */\n      tag_44\n        /* \"diceGame.sol\":3645:3649  dice */\n      dup4\n        /* \"diceGame.sol\":3630:3644  setServerValue */\n      tag_45\n        /* \"diceGame.sol\":3630:3650  setServerValue(dice) */\n      jump\t// in\n    tag_44:\n        /* \"diceGame.sol\":3661:3670  setGame() */\n      tag_46\n        /* \"diceGame.sol\":3661:3668  setGame */\n      tag_47\n        /* \"diceGame.sol\":3661:3670  setGame() */\n      jump\t// in\n    tag_46:\n        /* \"diceGame.sol\":3681:3687  gameId */\n      0x01\n      0x00\n        /* \"diceGame.sol\":3681:3689  gameId++ */\n      dup2\n      sload\n      dup1\n      swap3\n      swap2\n      swap1\n      0x01\n      add\n      swap2\n      swap1\n      pop\n      sstore\n      pop\n        /* \"diceGame.sol\":3727:3738  _minimumBet */\n      dup2\n        /* \"diceGame.sol\":3700:3705  games */\n      0x02\n        /* \"diceGame.sol\":3700:3713  games[gameId] */\n      0x00\n        /* \"diceGame.sol\":3706:3712  gameId */\n      sload(0x01)\n        /* \"diceGame.sol\":3700:3713  games[gameId] */\n      dup2\n      mstore\n      0x20\n      add\n      swap1\n      dup2\n      mstore\n      0x20\n      add\n      0x00\n      keccak256\n        /* \"diceGame.sol\":3700:3724  games[gameId].minimumBet */\n      0x07\n      add\n        /* \"diceGame.sol\":3700:3738  games[gameId].minimumBet = _minimumBet */\n      dup2\n      swap1\n      sstore\n      pop\n        /* \"diceGame.sol\":3756:3760  true */\n      0x01\n        /* \"diceGame.sol\":3749:3760  return true */\n      swap1\n      pop\n        /* \"diceGame.sol\":3480:3768  function newGame(uint8 dice, uint _minimumBet) public isManager returns (bool) {\r... */\n      swap3\n      swap2\n      pop\n      pop\n      jump\t// out\n        /* \"diceGame.sol\":1632:2220  function checkUserValue(uint8 userValue, uint _gameId) private view between1and12(userValue) returns (bool) {\r... */\n    tag_36:\n        /* \"diceGame.sol\":1734:1738  bool */\n      0x00\n        /* \"diceGame.sol\":1714:1723  userValue */\n      dup3\n        /* \"diceGame.sol\":566:700  modifier between1and12(uint value) {\r... */\n      0xff\n      and\n        /* \"diceGame.sol\":629:630  1 */\n      0x01\n        /* \"diceGame.sol\":620:625  value */\n      dup2\n        /* \"diceGame.sol\":620:630  value >= 1 */\n      lt\n      iszero\n        /* \"diceGame.sol\":620:645  value >= 1 && value <= 12 */\n      dup1\n      iszero\n      tag_49\n      jumpi\n      pop\n        /* \"diceGame.sol\":643:645  12 */\n      0x0c\n        /* \"diceGame.sol\":634:639  value */\n      dup2\n        /* \"diceGame.sol\":634:645  value <= 12 */\n      gt\n      iszero\n        /* \"diceGame.sol\":620:645  value >= 1 && value <= 12 */\n    tag_49:\n        /* \"diceGame.sol\":612:680  require(value >= 1 && value <= 12, \"The number is not from 1 to 12\") */\n      tag_50\n      jumpi\n      mload(0x40)\n      0x08c379a000000000000000000000000000000000000000000000000000000000\n      dup2\n      mstore\n      0x04\n      add\n      dup1\n      dup1\n      0x20\n      add\n      dup3\n      dup2\n      sub\n      dup3\n      mstore\n      0x1e\n      dup2\n      mstore\n      0x20\n      add\n      dup1\n      0x546865206e756d626572206973206e6f742066726f6d203120746f2031320000\n      dup2\n      mstore\n      pop\n      0x20\n      add\n      swap2\n      pop\n      pop\n      mload(0x40)\n      dup1\n      swap2\n      sub\n      swap1\n      revert\n    tag_50:\n        /* \"diceGame.sol\":1760:1765  games */\n      0x02\n        /* \"diceGame.sol\":1760:1774  games[_gameId] */\n      0x00\n        /* \"diceGame.sol\":1766:1773  _gameId */\n      dup5\n        /* \"diceGame.sol\":1760:1774  games[_gameId] */\n      dup2\n      mstore\n      0x20\n      add\n      swap1\n      dup2\n      mstore\n      0x20\n      add\n      0x00\n      keccak256\n        /* \"diceGame.sol\":1760:1782  games[_gameId].players */\n      0x00\n      add\n        /* \"diceGame.sol\":1760:1794  games[_gameId].players[msg.sender] */\n      0x00\n        /* \"diceGame.sol\":1783:1793  msg.sender */\n      caller\n        /* \"diceGame.sol\":1760:1794  games[_gameId].players[msg.sender] */\n      0xffffffffffffffffffffffffffffffffffffffff\n      and\n      0xffffffffffffffffffffffffffffffffffffffff\n      and\n      dup2\n      mstore\n      0x20\n      add\n      swap1\n      dup2\n      mstore\n      0x20\n      add\n      0x00\n      keccak256\n        /* \"diceGame.sol\":1760:1803  games[_gameId].players[msg.sender].received */\n      0x02\n      add\n      0x00\n      swap1\n      sload\n      swap1\n      0x0100\n      exp\n      swap1\n      div\n      0xff\n      and\n        /* \"diceGame.sol\":1759:1803  !games[_gameId].players[msg.sender].received */\n      iszero\n        /* \"diceGame.sol\":1751:1838  require(!games[_gameId].players[msg.sender].received, \"Player already receive a money\") */\n      tag_52\n      jumpi\n      mload(0x40)\n      0x08c379a000000000000000000000000000000000000000000000000000000000\n      dup2\n      mstore\n      0x04\n      add\n      dup1\n      dup1\n      0x20\n      add\n      dup3\n      dup2\n      sub\n      dup3\n      mstore\n      0x1e\n      dup2\n      mstore\n      0x20\n      add\n      dup1\n      0x506c6179657220616c726561647920726563656976652061206d6f6e65790000\n      dup2\n      mstore\n      pop\n      0x20\n      add\n      swap2\n      pop\n      pop\n      mload(0x40)\n      dup1\n      swap2\n      sub\n      swap1\n      revert\n    tag_52:\n        /* \"diceGame.sol\":1868:1869  0 */\n      0x00\n        /* \"diceGame.sol\":1857:1864  _gameId */\n      dup4\n        /* \"diceGame.sol\":1857:1869  _gameId >= 0 */\n      lt\n      iszero\n        /* \"diceGame.sol\":1857:1889  _gameId >= 0 && _gameId < gameId */\n      dup1\n      iszero\n      tag_53\n      jumpi\n      pop\n        /* \"diceGame.sol\":1883:1889  gameId */\n      sload(0x01)\n        /* \"diceGame.sol\":1873:1880  _gameId */\n      dup4\n        /* \"diceGame.sol\":1873:1889  _gameId < gameId */\n      lt\n        /* \"diceGame.sol\":1857:1889  _gameId >= 0 && _gameId < gameId */\n    tag_53:\n        /* \"diceGame.sol\":1849:1911  require(_gameId >= 0 && _gameId < gameId, \"Game is not ended\") */\n      tag_54\n      jumpi\n      mload(0x40)\n      0x08c379a000000000000000000000000000000000000000000000000000000000\n      dup2\n      mstore\n      0x04\n      add\n      dup1\n      dup1\n      0x20\n      add\n      dup3\n      dup2\n      sub\n      dup3\n      mstore\n      0x11\n      dup2\n      mstore\n      0x20\n      add\n      dup1\n      0x47616d65206973206e6f7420656e646564000000000000000000000000000000\n      dup2\n      mstore\n      pop\n      0x20\n      add\n      swap2\n      pop\n      pop\n      mload(0x40)\n      dup1\n      swap2\n      sub\n      swap1\n      revert\n    tag_54:\n        /* \"diceGame.sol\":1943:1948  games */\n      0x02\n        /* \"diceGame.sol\":1943:1957  games[_gameId] */\n      0x00\n        /* \"diceGame.sol\":1949:1956  _gameId */\n      dup5\n        /* \"diceGame.sol\":1943:1957  games[_gameId] */\n      dup2\n      mstore\n      0x20\n      add\n      swap1\n      dup2\n      mstore\n      0x20\n      add\n      0x00\n      keccak256\n        /* \"diceGame.sol\":1943:1970  games[_gameId].winningValue */\n      0x02\n      add\n      0x00\n      swap1\n      sload\n      swap1\n      0x0100\n      exp\n      swap1\n      div\n      0xff\n      and\n        /* \"diceGame.sol\":1930:1970  userValue == games[_gameId].winningValue */\n      0xff\n      and\n        /* \"diceGame.sol\":1930:1939  userValue */\n      dup5\n        /* \"diceGame.sol\":1930:1970  userValue == games[_gameId].winningValue */\n      0xff\n      and\n      eq\n        /* \"diceGame.sol\":1922:2014  require(userValue == games[_gameId].winningValue, \"User input does not match winning value\") */\n      tag_55\n      jumpi\n      mload(0x40)\n      0x08c379a000000000000000000000000000000000000000000000000000000000\n      dup2\n      mstore\n      0x04\n      add\n      dup1\n      dup1\n      0x20\n      add\n      dup3\n      dup2\n      sub\n      dup3\n      mstore\n      0x27\n      dup2\n      mstore\n      0x20\n      add\n      dup1\n      data_bd091db77c2ecbf6850219e20fb7a75680b72aef5099b1fcc3fa84949d7e6ee7\n      0x27\n      swap2\n      codecopy\n      0x40\n      add\n      swap2\n      pop\n      pop\n      mload(0x40)\n      dup1\n      swap2\n      sub\n      swap1\n      revert\n    tag_55:\n        /* \"diceGame.sol\":2025:2041  bytes32 userHash */\n      0x00\n        /* \"diceGame.sol\":2065:2074  userValue */\n      dup5\n        /* \"diceGame.sol\":2054:2075  abi.encode(userValue) */\n      add(0x20, mload(0x40))\n      dup1\n      dup3\n      0xff\n      and\n      0xff\n      and\n      dup2\n      mstore\n      0x20\n      add\n      swap2\n      pop\n      pop\n      mload(0x40)\n        /* \"--CODEGEN--\":49:53   */\n      0x20\n        /* \"--CODEGEN--\":39:46   */\n      dup2\n        /* \"--CODEGEN--\":30:37   */\n      dup4\n        /* \"--CODEGEN--\":26:47   */\n      sub\n        /* \"--CODEGEN--\":22:54   */\n      sub\n        /* \"--CODEGEN--\":13:20   */\n      dup2\n        /* \"--CODEGEN--\":6:55   */\n      mstore\n        /* \"diceGame.sol\":2054:2075  abi.encode(userValue) */\n      swap1\n      0x40\n      mstore\n        /* \"diceGame.sol\":2044:2076  keccak256(abi.encode(userValue)) */\n      dup1\n      mload\n      swap1\n      0x20\n      add\n      keccak256\n        /* \"diceGame.sol\":2025:2076  bytes32 userHash = keccak256(abi.encode(userValue)) */\n      swap1\n      pop\n        /* \"diceGame.sol\":2107:2112  games */\n      0x02\n        /* \"diceGame.sol\":2107:2121  games[_gameId] */\n      0x00\n        /* \"diceGame.sol\":2113:2120  _gameId */\n      dup6\n        /* \"diceGame.sol\":2107:2121  games[_gameId] */\n      dup2\n      mstore\n      0x20\n      add\n      swap1\n      dup2\n      mstore\n      0x20\n      add\n      0x00\n      keccak256\n        /* \"diceGame.sol\":2107:2129  games[_gameId].players */\n      0x00\n      add\n        /* \"diceGame.sol\":2107:2141  games[_gameId].players[msg.sender] */\n      0x00\n        /* \"diceGame.sol\":2130:2140  msg.sender */\n      caller\n        /* \"diceGame.sol\":2107:2141  games[_gameId].players[msg.sender] */\n      0xffffffffffffffffffffffffffffffffffffffff\n      and\n      0xffffffffffffffffffffffffffffffffffffffff\n      and\n      dup2\n      mstore\n      0x20\n      add\n      swap1\n      dup2\n      mstore\n      0x20\n      add\n      0x00\n      keccak256\n        /* \"diceGame.sol\":2107:2151  games[_gameId].players[msg.sender].hashValue */\n      0x00\n      add\n      sload\n        /* \"diceGame.sol\":2095:2103  userHash */\n      dup2\n        /* \"diceGame.sol\":2095:2151  userHash == games[_gameId].players[msg.sender].hashValue */\n      eq\n        /* \"diceGame.sol\":2087:2190  require(userHash == games[_gameId].players[msg.sender].hashValue, \"User input does not match its hash\") */\n      tag_56\n      jumpi\n      mload(0x40)\n      0x08c379a000000000000000000000000000000000000000000000000000000000\n      dup2\n      mstore\n      0x04\n      add\n      dup1\n      dup1\n      0x20\n      add\n      dup3\n      dup2\n      sub\n      dup3\n      mstore\n      0x22\n      dup2\n      mstore\n      0x20\n      add\n      dup1\n      data_e1d65f7a566c51d9be51927db247995b346b03fc2927af3f18b9c547e16bcc8f\n      0x22\n      swap2\n      codecopy\n      0x40\n      add\n      swap2\n      pop\n      pop\n      mload(0x40)\n      dup1\n      swap2\n      sub\n      swap1\n      revert\n    tag_56:\n        /* \"diceGame.sol\":2208:2212  true */\n      0x01\n        /* \"diceGame.sol\":2201:2212  return true */\n      swap3\n      pop\n      pop\n        /* \"diceGame.sol\":1632:2220  function checkUserValue(uint8 userValue, uint _gameId) private view between1and12(userValue) returns (bool) {\r... */\n      pop\n      swap3\n      swap2\n      pop\n      pop\n      jump\t// out\n        /* \"diceGame.sol\":2694:2810  function setServerValue(uint8 dice) private between1and12(dice) {\r... */\n    tag_45:\n        /* \"diceGame.sol\":2752:2756  dice */\n      dup1\n        /* \"diceGame.sol\":566:700  modifier between1and12(uint value) {\r... */\n      0xff\n      and\n        /* \"diceGame.sol\":629:630  1 */\n      0x01\n        /* \"diceGame.sol\":620:625  value */\n      dup2\n        /* \"diceGame.sol\":620:630  value >= 1 */\n      lt\n      iszero\n        /* \"diceGame.sol\":620:645  value >= 1 && value <= 12 */\n      dup1\n      iszero\n      tag_58\n      jumpi\n      pop\n        /* \"diceGame.sol\":643:645  12 */\n      0x0c\n        /* \"diceGame.sol\":634:639  value */\n      dup2\n        /* \"diceGame.sol\":634:645  value <= 12 */\n      gt\n      iszero\n        /* \"diceGame.sol\":620:645  value >= 1 && value <= 12 */\n    tag_58:\n        /* \"diceGame.sol\":612:680  require(value >= 1 && value <= 12, \"The number is not from 1 to 12\") */\n      tag_59\n      jumpi\n      mload(0x40)\n      0x08c379a000000000000000000000000000000000000000000000000000000000\n      dup2\n      mstore\n      0x04\n      add\n      dup1\n      dup1\n      0x20\n      add\n      dup3\n      dup2\n      sub\n      dup3\n      mstore\n      0x1e\n      dup2\n      mstore\n      0x20\n      add\n      dup1\n      0x546865206e756d626572206973206e6f742066726f6d203120746f2031320000\n      dup2\n      mstore\n      pop\n      0x20\n      add\n      swap2\n      pop\n      pop\n      mload(0x40)\n      dup1\n      swap2\n      sub\n      swap1\n      revert\n    tag_59:\n        /* \"diceGame.sol\":2798:2802  dice */\n      dup2\n        /* \"diceGame.sol\":2769:2774  games */\n      0x02\n        /* \"diceGame.sol\":2769:2782  games[gameId] */\n      0x00\n        /* \"diceGame.sol\":2775:2781  gameId */\n      sload(0x01)\n        /* \"diceGame.sol\":2769:2782  games[gameId] */\n      dup2\n      mstore\n      0x20\n      add\n      swap1\n      dup2\n      mstore\n      0x20\n      add\n      0x00\n      keccak256\n        /* \"diceGame.sol\":2769:2795  games[gameId].winningValue */\n      0x02\n      add\n      0x00\n        /* \"diceGame.sol\":2769:2802  games[gameId].winningValue = dice */\n      0x0100\n      exp\n      dup2\n      sload\n      dup2\n      0xff\n      mul\n      not\n      and\n      swap1\n      dup4\n      0xff\n      and\n      mul\n      or\n      swap1\n      sstore\n      pop\n        /* \"diceGame.sol\":2694:2810  function setServerValue(uint8 dice) private between1and12(dice) {\r... */\n      pop\n      pop\n      jump\t// out\n        /* \"diceGame.sol\":2822:3468  function setGame() private {\r... */\n    tag_47:\n        /* \"diceGame.sol\":2860:2896  address[] storage gamePlayerAdresses */\n      0x00\n        /* \"diceGame.sol\":2899:2904  games */\n      0x02\n        /* \"diceGame.sol\":2899:2912  games[gameId] */\n      0x00\n        /* \"diceGame.sol\":2905:2911  gameId */\n      sload(0x01)\n        /* \"diceGame.sol\":2899:2912  games[gameId] */\n      dup2\n      mstore\n      0x20\n      add\n      swap1\n      dup2\n      mstore\n      0x20\n      add\n      0x00\n      keccak256\n        /* \"diceGame.sol\":2899:2928  games[gameId].playerAddresses */\n      0x01\n      add\n        /* \"diceGame.sol\":2860:2928  address[] storage gamePlayerAdresses = games[gameId].playerAddresses */\n      swap1\n      pop\n        /* \"diceGame.sol\":2939:2950  uint length */\n      0x00\n        /* \"diceGame.sol\":2953:2971  gamePlayerAdresses */\n      dup2\n        /* \"diceGame.sol\":2953:2978  gamePlayerAdresses.length */\n      dup1\n      sload\n      swap1\n      pop\n        /* \"diceGame.sol\":2939:2978  uint length = gamePlayerAdresses.length */\n      swap1\n      pop\n        /* \"diceGame.sol\":3004:3010  uint i */\n      0x00\n        /* \"diceGame.sol\":3013:3014  0 */\n      dup1\n        /* \"diceGame.sol\":3004:3014  uint i = 0 */\n      swap1\n      pop\n        /* \"diceGame.sol\":2999:3387  for (uint i = 0; i < length; i++) {\r... */\n    tag_62:\n        /* \"diceGame.sol\":3020:3026  length */\n      dup2\n        /* \"diceGame.sol\":3016:3017  i */\n      dup2\n        /* \"diceGame.sol\":3016:3026  i < length */\n      lt\n        /* \"diceGame.sol\":2999:3387  for (uint i = 0; i < length; i++) {\r... */\n      iszero\n      tag_63\n      jumpi\n        /* \"diceGame.sol\":3048:3066  bytes32 playerHash */\n      0x00\n        /* \"diceGame.sol\":3069:3074  games */\n      0x02\n        /* \"diceGame.sol\":3069:3082  games[gameId] */\n      0x00\n        /* \"diceGame.sol\":3075:3081  gameId */\n      sload(0x01)\n        /* \"diceGame.sol\":3069:3082  games[gameId] */\n      dup2\n      mstore\n      0x20\n      add\n      swap1\n      dup2\n      mstore\n      0x20\n      add\n      0x00\n      keccak256\n        /* \"diceGame.sol\":3069:3090  games[gameId].players */\n      0x00\n      add\n        /* \"diceGame.sol\":3069:3113  games[gameId].players[gamePlayerAdresses[i]] */\n      0x00\n        /* \"diceGame.sol\":3091:3109  gamePlayerAdresses */\n      dup6\n        /* \"diceGame.sol\":3110:3111  i */\n      dup5\n        /* \"diceGame.sol\":3091:3112  gamePlayerAdresses[i] */\n      dup2\n      sload\n      dup2\n      lt\n      tag_65\n      jumpi\n      invalid\n    tag_65:\n      swap1\n      0x00\n      mstore\n      keccak256(0x00, 0x20)\n      add\n      0x00\n      swap1\n      sload\n      swap1\n      0x0100\n      exp\n      swap1\n      div\n      0xffffffffffffffffffffffffffffffffffffffff\n      and\n        /* \"diceGame.sol\":3069:3113  games[gameId].players[gamePlayerAdresses[i]] */\n      0xffffffffffffffffffffffffffffffffffffffff\n      and\n      0xffffffffffffffffffffffffffffffffffffffff\n      and\n      dup2\n      mstore\n      0x20\n      add\n      swap1\n      dup2\n      mstore\n      0x20\n      add\n      0x00\n      keccak256\n        /* \"diceGame.sol\":3069:3123  games[gameId].players[gamePlayerAdresses[i]].hashValue */\n      0x00\n      add\n      sload\n        /* \"diceGame.sol\":3048:3123  bytes32 playerHash = games[gameId].players[gamePlayerAdresses[i]].hashValue */\n      swap1\n      pop\n        /* \"diceGame.sol\":3177:3182  games */\n      0x02\n        /* \"diceGame.sol\":3177:3190  games[gameId] */\n      0x00\n        /* \"diceGame.sol\":3183:3189  gameId */\n      sload(0x01)\n        /* \"diceGame.sol\":3177:3190  games[gameId] */\n      dup2\n      mstore\n      0x20\n      add\n      swap1\n      dup2\n      mstore\n      0x20\n      add\n      0x00\n      keccak256\n        /* \"diceGame.sol\":3177:3203  games[gameId].winningValue */\n      0x02\n      add\n      0x00\n      swap1\n      sload\n      swap1\n      0x0100\n      exp\n      swap1\n      div\n      0xff\n      and\n        /* \"diceGame.sol\":3166:3204  abi.encode(games[gameId].winningValue) */\n      add(0x20, mload(0x40))\n      dup1\n      dup3\n      0xff\n      and\n      0xff\n      and\n      dup2\n      mstore\n      0x20\n      add\n      swap2\n      pop\n      pop\n      mload(0x40)\n        /* \"--CODEGEN--\":49:53   */\n      0x20\n        /* \"--CODEGEN--\":39:46   */\n      dup2\n        /* \"--CODEGEN--\":30:37   */\n      dup4\n        /* \"--CODEGEN--\":26:47   */\n      sub\n        /* \"--CODEGEN--\":22:54   */\n      sub\n        /* \"--CODEGEN--\":13:20   */\n      dup2\n        /* \"--CODEGEN--\":6:55   */\n      mstore\n        /* \"diceGame.sol\":3166:3204  abi.encode(games[gameId].winningValue) */\n      swap1\n      0x40\n      mstore\n        /* \"diceGame.sol\":3156:3205  keccak256(abi.encode(games[gameId].winningValue)) */\n      dup1\n      mload\n      swap1\n      0x20\n      add\n      keccak256\n        /* \"diceGame.sol\":3142:3152  playerHash */\n      dup2\n        /* \"diceGame.sol\":3142:3205  playerHash == keccak256(abi.encode(games[gameId].winningValue)) */\n      eq\n        /* \"diceGame.sol\":3138:3376  if (playerHash == keccak256(abi.encode(games[gameId].winningValue))) {\r... */\n      iszero\n      tag_67\n      jumpi\n        /* \"diceGame.sol\":3226:3231  games */\n      0x02\n        /* \"diceGame.sol\":3226:3239  games[gameId] */\n      0x00\n        /* \"diceGame.sol\":3232:3238  gameId */\n      sload(0x01)\n        /* \"diceGame.sol\":3226:3239  games[gameId] */\n      dup2\n      mstore\n      0x20\n      add\n      swap1\n      dup2\n      mstore\n      0x20\n      add\n      0x00\n      keccak256\n        /* \"diceGame.sol\":3226:3251  games[gameId].winnerCount */\n      0x03\n      add\n      0x00\n        /* \"diceGame.sol\":3226:3253  games[gameId].winnerCount++ */\n      dup2\n      sload\n      dup1\n      swap3\n      swap2\n      swap1\n      0x01\n      add\n      swap2\n      swap1\n      pop\n      sstore\n      pop\n        /* \"diceGame.sol\":3307:3312  games */\n      0x02\n        /* \"diceGame.sol\":3307:3320  games[gameId] */\n      0x00\n        /* \"diceGame.sol\":3313:3319  gameId */\n      sload(0x01)\n        /* \"diceGame.sol\":3307:3320  games[gameId] */\n      dup2\n      mstore\n      0x20\n      add\n      swap1\n      dup2\n      mstore\n      0x20\n      add\n      0x00\n      keccak256\n        /* \"diceGame.sol\":3307:3328  games[gameId].players */\n      0x00\n      add\n        /* \"diceGame.sol\":3307:3351  games[gameId].players[gamePlayerAdresses[i]] */\n      0x00\n        /* \"diceGame.sol\":3329:3347  gamePlayerAdresses */\n      dup6\n        /* \"diceGame.sol\":3348:3349  i */\n      dup5\n        /* \"diceGame.sol\":3329:3350  gamePlayerAdresses[i] */\n      dup2\n      sload\n      dup2\n      lt\n      tag_68\n      jumpi\n      invalid\n    tag_68:\n      swap1\n      0x00\n      mstore\n      keccak256(0x00, 0x20)\n      add\n      0x00\n      swap1\n      sload\n      swap1\n      0x0100\n      exp\n      swap1\n      div\n      0xffffffffffffffffffffffffffffffffffffffff\n      and\n        /* \"diceGame.sol\":3307:3351  games[gameId].players[gamePlayerAdresses[i]] */\n      0xffffffffffffffffffffffffffffffffffffffff\n      and\n      0xffffffffffffffffffffffffffffffffffffffff\n      and\n      dup2\n      mstore\n      0x20\n      add\n      swap1\n      dup2\n      mstore\n      0x20\n      add\n      0x00\n      keccak256\n        /* \"diceGame.sol\":3307:3360  games[gameId].players[gamePlayerAdresses[i]].betValue */\n      0x01\n      add\n      sload\n        /* \"diceGame.sol\":3272:3277  games */\n      0x02\n        /* \"diceGame.sol\":3272:3285  games[gameId] */\n      0x00\n        /* \"diceGame.sol\":3278:3284  gameId */\n      sload(0x01)\n        /* \"diceGame.sol\":3272:3285  games[gameId] */\n      dup2\n      mstore\n      0x20\n      add\n      swap1\n      dup2\n      mstore\n      0x20\n      add\n      0x00\n      keccak256\n        /* \"diceGame.sol\":3272:3303  games[gameId].allWinnersBalance */\n      0x04\n      add\n      0x00\n        /* \"diceGame.sol\":3272:3360  games[gameId].allWinnersBalance += games[gameId].players[gamePlayerAdresses[i]].betValue */\n      dup3\n      dup3\n      sload\n      add\n      swap3\n      pop\n      pop\n      dup2\n      swap1\n      sstore\n      pop\n        /* \"diceGame.sol\":3138:3376  if (playerHash == keccak256(abi.encode(games[gameId].winningValue))) {\r... */\n    tag_67:\n        /* \"diceGame.sol\":2999:3387  for (uint i = 0; i < length; i++) {\r... */\n      pop\n        /* \"diceGame.sol\":3028:3031  i++ */\n      dup1\n      dup1\n      0x01\n      add\n      swap2\n      pop\n      pop\n        /* \"diceGame.sol\":2999:3387  for (uint i = 0; i < length; i++) {\r... */\n      jump(tag_62)\n    tag_63:\n      pop\n        /* \"diceGame.sol\":3435:3440  games */\n      0x02\n        /* \"diceGame.sol\":3435:3448  games[gameId] */\n      0x00\n        /* \"diceGame.sol\":3441:3447  gameId */\n      sload(0x01)\n        /* \"diceGame.sol\":3435:3448  games[gameId] */\n      dup2\n      mstore\n      0x20\n      add\n      swap1\n      dup2\n      mstore\n      0x20\n      add\n      0x00\n      keccak256\n        /* \"diceGame.sol\":3435:3460  games[gameId].gameBalance */\n      0x06\n      add\n      sload\n        /* \"diceGame.sol\":3407:3412  games */\n      0x02\n        /* \"diceGame.sol\":3407:3420  games[gameId] */\n      0x00\n        /* \"diceGame.sol\":3413:3419  gameId */\n      sload(0x01)\n        /* \"diceGame.sol\":3407:3420  games[gameId] */\n      dup2\n      mstore\n      0x20\n      add\n      swap1\n      dup2\n      mstore\n      0x20\n      add\n      0x00\n      keccak256\n        /* \"diceGame.sol\":3407:3432  games[gameId].restBalance */\n      0x05\n      add\n        /* \"diceGame.sol\":3407:3460  games[gameId].restBalance = games[gameId].gameBalance */\n      dup2\n      swap1\n      sstore\n      pop\n        /* \"diceGame.sol\":2822:3468  function setGame() private {\r... */\n      pop\n      pop\n      jump\t// out\n    stop\n    data_4a8d8e59ed510e06a8e0260cfe413b20861d9f571b155941f3970d9306e4b948 4f6e6c79206d616e616765722063616e2063616c6c20746869732066756e6374696f6e\n    data_bd091db77c2ecbf6850219e20fb7a75680b72aef5099b1fcc3fa84949d7e6ee7 5573657220696e70757420646f6573206e6f74206d617463682077696e6e696e672076616c7565\n    data_e1d65f7a566c51d9be51927db247995b346b03fc2927af3f18b9c547e16bcc8f 5573657220696e70757420646f6573206e6f74206d61746368206974732068617368\n\n    auxdata: 0xa265627a7a7231582028c9b25cca4b8fa41d923267e10e4d0a0a2b675c2e31c075e1e29a7f9d9fe49164736f6c634300050c0032\n}\n",
        "bytecode": {
            "linkReferences": {},
            "object": "608060405234801561001057600080fd5b506040516110133803806110138339818101604052602081101561003357600080fd5b8101908080519060200190929190505050806002600080815260200190815260200160002060070181905550336000806101000a81548173ffffffffffffffffffffffffffffffffffffffff021916908373ffffffffffffffffffffffffffffffffffffffff160217905550600060018190555050610f5c806100b76000396000f3fe6080604052600436106100555760003560e01c8063096605131461005a5780630d0aa44a146100c4578063481c6a75146100f2578063886dc4d314610149578063d7c81b551461019c578063f5e71f1a146101c7575b600080fd5b34801561006657600080fd5b506100936004803603602081101561007d57600080fd5b8101908080359060200190929190505050610227565b604051808560ff1660ff16815260200184815260200183815260200182815260200194505050505060405180910390f35b6100f0600480360360208110156100da57600080fd5b81019080803590602001909291905050506102a5565b005b3480156100fe57600080fd5b5061010761062a565b604051808273ffffffffffffffffffffffffffffffffffffffff1673ffffffffffffffffffffffffffffffffffffffff16815260200191505060405180910390f35b6101826004803603604081101561015f57600080fd5b81019080803560ff1690602001909291908035906020019092919050505061064f565b604051808215151515815260200191505060405180910390f35b3480156101a857600080fd5b506101b1610772565b6040518082815260200191505060405180910390f35b3480156101d357600080fd5b5061020d600480360360408110156101ea57600080fd5b81019080803560ff16906020019092919080359060200190929190505050610778565b604051808215151515815260200191505060405180910390f35b6000806000806002600086815260200190815260200160002060020160009054906101000a900460ff1660026000878152602001908152602001600020600501546002600088815260200190815260200160002060060154600260008981526020019081526020016000206007015493509350935093509193509193565b60003390506000809054906101000a900473ffffffffffffffffffffffffffffffffffffffff1673ffffffffffffffffffffffffffffffffffffffff168173ffffffffffffffffffffffffffffffffffffffff16141561036d576040517f08c379a000000000000000000000000000000000000000000000000000000000815260040180806020018281038252601a8152602001807f4d616e616765722063616e6e6f742062657420612076616c756500000000000081525060200191505060405180910390fd5b6000801b60026000600154815260200190815260200160002060000160008373ffffffffffffffffffffffffffffffffffffffff1673ffffffffffffffffffffffffffffffffffffffff168152602001908152602001600020600001541461043d576040517f08c379a00000000000000000000000000000000000000000000000000000000081526004018080602001828103825260198152602001807f506c6179657220616c726561647920626574206e756d6265720000000000000081525060200191505060405180910390fd5b6002600060015481526020019081526020016000206007015434116104ca576040517f08c379a000000000000000000000000000000000000000000000000000000000815260040180806020018281038252601c8152602001807f596f7520426574206c657373207468656e206d696e696d756d4265740000000081525060200191505060405180910390fd5b8160026000600154815260200190815260200160002060000160008373ffffffffffffffffffffffffffffffffffffffff1673ffffffffffffffffffffffffffffffffffffffff168152602001908152602001600020600001819055503460026000600154815260200190815260200160002060000160008373ffffffffffffffffffffffffffffffffffffffff1673ffffffffffffffffffffffffffffffffffffffff168152602001908152602001600020600101819055506002600060015481526020019081526020016000206001018190806001815401808255809150509060018203906000526020600020016000909192909190916101000a81548173ffffffffffffffffffffffffffffffffffffffff021916908373ffffffffffffffffffffffffffffffffffffffff1602179055505034600260006001548152602001908152602001600020600601600082825401925050819055505050565b6000809054906101000a900473ffffffffffffffffffffffffffffffffffffffff1681565b600061065b8383610869565b15610767576000600260008481526020019081526020016000206004015460026000858152602001908152602001600020600601546002600086815260200190815260200160002060000160003373ffffffffffffffffffffffffffffffffffffffff1673ffffffffffffffffffffffffffffffffffffffff1681526020019081526020016000206001015402816106ef57fe5b0490503373ffffffffffffffffffffffffffffffffffffffff166108fc829081150290604051600060405180830381858888f19350505050158015610738573d6000803e3d6000fd5b50806002600085815260200190815260200160002060050160008282540392505081905550600191505061076c565b600090505b92915050565b60015481565b60008060009054906101000a900473ffffffffffffffffffffffffffffffffffffffff1673ffffffffffffffffffffffffffffffffffffffff163373ffffffffffffffffffffffffffffffffffffffff161461081f576040517f08c379a0000000000000000000000000000000000000000000000000000000008152600401808060200182810382526023815260200180610ebc6023913960400191505060405180910390fd5b61082883610bba565b610830610c77565b60016000815480929190600101919050555081600260006001548152602001908152602001600020600701819055506001905092915050565b60008260ff16600181101580156108815750600c8111155b6108f3576040517f08c379a000000000000000000000000000000000000000000000000000000000815260040180806020018281038252601e8152602001807f546865206e756d626572206973206e6f742066726f6d203120746f203132000081525060200191505060405180910390fd5b6002600084815260200190815260200160002060000160003373ffffffffffffffffffffffffffffffffffffffff1673ffffffffffffffffffffffffffffffffffffffff16815260200190815260200160002060020160009054906101000a900460ff16156109ca576040517f08c379a000000000000000000000000000000000000000000000000000000000815260040180806020018281038252601e8152602001807f506c6179657220616c726561647920726563656976652061206d6f6e6579000081525060200191505060405180910390fd5b600083101580156109dc575060015483105b610a4e576040517f08c379a00000000000000000000000000000000000000000000000000000000081526004018080602001828103825260118152602001807f47616d65206973206e6f7420656e64656400000000000000000000000000000081525060200191505060405180910390fd5b6002600084815260200190815260200160002060020160009054906101000a900460ff1660ff168460ff1614610acf576040517f08c379a0000000000000000000000000000000000000000000000000000000008152600401808060200182810382526027815260200180610edf6027913960400191505060405180910390fd5b600084604051602001808260ff1660ff1681526020019150506040516020818303038152906040528051906020012090506002600085815260200190815260200160002060000160003373ffffffffffffffffffffffffffffffffffffffff1673ffffffffffffffffffffffffffffffffffffffff168152602001908152602001600020600001548114610bae576040517f08c379a0000000000000000000000000000000000000000000000000000000008152600401808060200182810382526022815260200180610f066022913960400191505060405180910390fd5b60019250505092915050565b8060ff1660018110158015610bd05750600c8111155b610c42576040517f08c379a000000000000000000000000000000000000000000000000000000000815260040180806020018281038252601e8152602001807f546865206e756d626572206973206e6f742066726f6d203120746f203132000081525060200191505060405180910390fd5b8160026000600154815260200190815260200160002060020160006101000a81548160ff021916908360ff1602179055505050565b6000600260006001548152602001908152602001600020600101905060008180549050905060008090505b81811015610e815760006002600060015481526020019081526020016000206000016000858481548110610cd257fe5b9060005260206000200160009054906101000a900473ffffffffffffffffffffffffffffffffffffffff1673ffffffffffffffffffffffffffffffffffffffff1673ffffffffffffffffffffffffffffffffffffffff16815260200190815260200160002060000154905060026000600154815260200190815260200160002060020160009054906101000a900460ff16604051602001808260ff1660ff16815260200191505060405160208183030381529060405280519060200120811415610e7357600260006001548152602001908152602001600020600301600081548092919060010191905055506002600060015481526020019081526020016000206000016000858481548110610de457fe5b9060005260206000200160009054906101000a900473ffffffffffffffffffffffffffffffffffffffff1673ffffffffffffffffffffffffffffffffffffffff1673ffffffffffffffffffffffffffffffffffffffff16815260200190815260200160002060010154600260006001548152602001908152602001600020600401600082825401925050819055505b508080600101915050610ca2565b506002600060015481526020019081526020016000206006015460026000600154815260200190815260200160002060050181905550505056fe4f6e6c79206d616e616765722063616e2063616c6c20746869732066756e6374696f6e5573657220696e70757420646f6573206e6f74206d617463682077696e6e696e672076616c75655573657220696e70757420646f6573206e6f74206d61746368206974732068617368a265627a7a7231582028c9b25cca4b8fa41d923267e10e4d0a0a2b675c2e31c075e1e29a7f9d9fe49164736f6c634300050c0032",
            "opcodes": "PUSH1 0x80 PUSH1 0x40 MSTORE CALLVALUE DUP1 ISZERO PUSH2 0x10 JUMPI PUSH1 0x0 DUP1 REVERT JUMPDEST POP PUSH1 0x40 MLOAD PUSH2 0x1013 CODESIZE SUB DUP1 PUSH2 0x1013 DUP4 CODECOPY DUP2 DUP2 ADD PUSH1 0x40 MSTORE PUSH1 0x20 DUP2 LT ISZERO PUSH2 0x33 JUMPI PUSH1 0x0 DUP1 REVERT JUMPDEST DUP2 ADD SWAP1 DUP1 DUP1 MLOAD SWAP1 PUSH1 0x20 ADD SWAP1 SWAP3 SWAP2 SWAP1 POP POP POP DUP1 PUSH1 0x2 PUSH1 0x0 DUP1 DUP2 MSTORE PUSH1 0x20 ADD SWAP1 DUP2 MSTORE PUSH1 0x20 ADD PUSH1 0x0 KECCAK256 PUSH1 0x7 ADD DUP2 SWAP1 SSTORE POP CALLER PUSH1 0x0 DUP1 PUSH2 0x100 EXP DUP2 SLOAD DUP2 PUSH20 0xFFFFFFFFFFFFFFFFFFFFFFFFFFFFFFFFFFFFFFFF MUL NOT AND SWAP1 DUP4 PUSH20 0xFFFFFFFFFFFFFFFFFFFFFFFFFFFFFFFFFFFFFFFF AND MUL OR SWAP1 SSTORE POP PUSH1 0x0 PUSH1 0x1 DUP2 SWAP1 SSTORE POP POP PUSH2 0xF5C DUP1 PUSH2 0xB7 PUSH1 0x0 CODECOPY PUSH1 0x0 RETURN INVALID PUSH1 0x80 PUSH1 0x40 MSTORE PUSH1 0x4 CALLDATASIZE LT PUSH2 0x55 JUMPI PUSH1 0x0 CALLDATALOAD PUSH1 0xE0 SHR DUP1 PUSH4 0x9660513 EQ PUSH2 0x5A JUMPI DUP1 PUSH4 0xD0AA44A EQ PUSH2 0xC4 JUMPI DUP1 PUSH4 0x481C6A75 EQ PUSH2 0xF2 JUMPI DUP1 PUSH4 0x886DC4D3 EQ PUSH2 0x149 JUMPI DUP1 PUSH4 0xD7C81B55 EQ PUSH2 0x19C JUMPI DUP1 PUSH4 0xF5E71F1A EQ PUSH2 0x1C7 JUMPI JUMPDEST PUSH1 0x0 DUP1 REVERT JUMPDEST CALLVALUE DUP1 ISZERO PUSH2 0x66 JUMPI PUSH1 0x0 DUP1 REVERT JUMPDEST POP PUSH2 0x93 PUSH1 0x4 DUP1 CALLDATASIZE SUB PUSH1 0x20 DUP2 LT ISZERO PUSH2 0x7D JUMPI PUSH1 0x0 DUP1 REVERT JUMPDEST DUP2 ADD SWAP1 DUP1 DUP1 CALLDATALOAD SWAP1 PUSH1 0x20 ADD SWAP1 SWAP3 SWAP2 SWAP1 POP POP POP PUSH2 0x227 JUMP JUMPDEST PUSH1 0x40 MLOAD DUP1 DUP6 PUSH1 0xFF AND PUSH1 0xFF AND DUP2 MSTORE PUSH1 0x20 ADD DUP5 DUP2 MSTORE PUSH1 0x20 ADD DUP4 DUP2 MSTORE PUSH1 0x20 ADD DUP3 DUP2 MSTORE PUSH1 0x20 ADD SWAP5 POP POP POP POP POP PUSH1 0x40 MLOAD DUP1 SWAP2 SUB SWAP1 RETURN JUMPDEST PUSH2 0xF0 PUSH1 0x4 DUP1 CALLDATASIZE SUB PUSH1 0x20 DUP2 LT ISZERO PUSH2 0xDA JUMPI PUSH1 0x0 DUP1 REVERT JUMPDEST DUP2 ADD SWAP1 DUP1 DUP1 CALLDATALOAD SWAP1 PUSH1 0x20 ADD SWAP1 SWAP3 SWAP2 SWAP1 POP POP POP PUSH2 0x2A5 JUMP JUMPDEST STOP JUMPDEST CALLVALUE DUP1 ISZERO PUSH2 0xFE JUMPI PUSH1 0x0 DUP1 REVERT JUMPDEST POP PUSH2 0x107 PUSH2 0x62A JUMP JUMPDEST PUSH1 0x40 MLOAD DUP1 DUP3 PUSH20 0xFFFFFFFFFFFFFFFFFFFFFFFFFFFFFFFFFFFFFFFF AND PUSH20 0xFFFFFFFFFFFFFFFFFFFFFFFFFFFFFFFFFFFFFFFF AND DUP2 MSTORE PUSH1 0x20 ADD SWAP2 POP POP PUSH1 0x40 MLOAD DUP1 SWAP2 SUB SWAP1 RETURN JUMPDEST PUSH2 0x182 PUSH1 0x4 DUP1 CALLDATASIZE SUB PUSH1 0x40 DUP2 LT ISZERO PUSH2 0x15F JUMPI PUSH1 0x0 DUP1 REVERT JUMPDEST DUP2 ADD SWAP1 DUP1 DUP1 CALLDATALOAD PUSH1 0xFF AND SWAP1 PUSH1 0x20 ADD SWAP1 SWAP3 SWAP2 SWAP1 DUP1 CALLDATALOAD SWAP1 PUSH1 0x20 ADD SWAP1 SWAP3 SWAP2 SWAP1 POP POP POP PUSH2 0x64F JUMP JUMPDEST PUSH1 0x40 MLOAD DUP1 DUP3 ISZERO ISZERO ISZERO ISZERO DUP2 MSTORE PUSH1 0x20 ADD SWAP2 POP POP PUSH1 0x40 MLOAD DUP1 SWAP2 SUB SWAP1 RETURN JUMPDEST CALLVALUE DUP1 ISZERO PUSH2 0x1A8 JUMPI PUSH1 0x0 DUP1 REVERT JUMPDEST POP PUSH2 0x1B1 PUSH2 0x772 JUMP JUMPDEST PUSH1 0x40 MLOAD DUP1 DUP3 DUP2 MSTORE PUSH1 0x20 ADD SWAP2 POP POP PUSH1 0x40 MLOAD DUP1 SWAP2 SUB SWAP1 RETURN JUMPDEST CALLVALUE DUP1 ISZERO PUSH2 0x1D3 JUMPI PUSH1 0x0 DUP1 REVERT JUMPDEST POP PUSH2 0x20D PUSH1 0x4 DUP1 CALLDATASIZE SUB PUSH1 0x40 DUP2 LT ISZERO PUSH2 0x1EA JUMPI PUSH1 0x0 DUP1 REVERT JUMPDEST DUP2 ADD SWAP1 DUP1 DUP1 CALLDATALOAD PUSH1 0xFF AND SWAP1 PUSH1 0x20 ADD SWAP1 SWAP3 SWAP2 SWAP1 DUP1 CALLDATALOAD SWAP1 PUSH1 0x20 ADD SWAP1 SWAP3 SWAP2 SWAP1 POP POP POP PUSH2 0x778 JUMP JUMPDEST PUSH1 0x40 MLOAD DUP1 DUP3 ISZERO ISZERO ISZERO ISZERO DUP2 MSTORE PUSH1 0x20 ADD SWAP2 POP POP PUSH1 0x40 MLOAD DUP1 SWAP2 SUB SWAP1 RETURN JUMPDEST PUSH1 0x0 DUP1 PUSH1 0x0 DUP1 PUSH1 0x2 PUSH1 0x0 DUP7 DUP2 MSTORE PUSH1 0x20 ADD SWAP1 DUP2 MSTORE PUSH1 0x20 ADD PUSH1 0x0 KECCAK256 PUSH1 0x2 ADD PUSH1 0x0 SWAP1 SLOAD SWAP1 PUSH2 0x100 EXP SWAP1 DIV PUSH1 0xFF AND PUSH1 0x2 PUSH1 0x0 DUP8 DUP2 MSTORE PUSH1 0x20 ADD SWAP1 DUP2 MSTORE PUSH1 0x20 ADD PUSH1 0x0 KECCAK256 PUSH1 0x5 ADD SLOAD PUSH1 0x2 PUSH1 0x0 DUP9 DUP2 MSTORE PUSH1 0x20 ADD SWAP1 DUP2 MSTORE PUSH1 0x20 ADD PUSH1 0x0 KECCAK256 PUSH1 0x6 ADD SLOAD PUSH1 0x2 PUSH1 0x0 DUP10 DUP2 MSTORE PUSH1 0x20 ADD SWAP1 DUP2 MSTORE PUSH1 0x20 ADD PUSH1 0x0 KECCAK256 PUSH1 0x7 ADD SLOAD SWAP4 POP SWAP4 POP SWAP4 POP SWAP4 POP SWAP2 SWAP4 POP SWAP2 SWAP4 JUMP JUMPDEST PUSH1 0x0 CALLER SWAP1 POP PUSH1 0x0 DUP1 SWAP1 SLOAD SWAP1 PUSH2 0x100 EXP SWAP1 DIV PUSH20 0xFFFFFFFFFFFFFFFFFFFFFFFFFFFFFFFFFFFFFFFF AND PUSH20 0xFFFFFFFFFFFFFFFFFFFFFFFFFFFFFFFFFFFFFFFF AND DUP2 PUSH20 0xFFFFFFFFFFFFFFFFFFFFFFFFFFFFFFFFFFFFFFFF AND EQ ISZERO PUSH2 0x36D JUMPI PUSH1 0x40 MLOAD PUSH32 0x8C379A000000000000000000000000000000000000000000000000000000000 DUP2 MSTORE PUSH1 0x4 ADD DUP1 DUP1 PUSH1 0x20 ADD DUP3 DUP2 SUB DUP3 MSTORE PUSH1 0x1A DUP2 MSTORE PUSH1 0x20 ADD DUP1 PUSH32 0x4D616E616765722063616E6E6F742062657420612076616C7565000000000000 DUP2 MSTORE POP PUSH1 0x20 ADD SWAP2 POP POP PUSH1 0x40 MLOAD DUP1 SWAP2 SUB SWAP1 REVERT JUMPDEST PUSH1 0x0 DUP1 SHL PUSH1 0x2 PUSH1 0x0 PUSH1 0x1 SLOAD DUP2 MSTORE PUSH1 0x20 ADD SWAP1 DUP2 MSTORE PUSH1 0x20 ADD PUSH1 0x0 KECCAK256 PUSH1 0x0 ADD PUSH1 0x0 DUP4 PUSH20 0xFFFFFFFFFFFFFFFFFFFFFFFFFFFFFFFFFFFFFFFF AND PUSH20 0xFFFFFFFFFFFFFFFFFFFFFFFFFFFFFFFFFFFFFFFF AND DUP2 MSTORE PUSH1 0x20 ADD SWAP1 DUP2 MSTORE PUSH1 0x20 ADD PUSH1 0x0 KECCAK256 PUSH1 0x0 ADD SLOAD EQ PUSH2 0x43D JUMPI PUSH1 0x40 MLOAD PUSH32 0x8C379A000000000000000000000000000000000000000000000000000000000 DUP2 MSTORE PUSH1 0x4 ADD DUP1 DUP1 PUSH1 0x20 ADD DUP3 DUP2 SUB DUP3 MSTORE PUSH1 0x19 DUP2 MSTORE PUSH1 0x20 ADD DUP1 PUSH32 0x506C6179657220616C726561647920626574206E756D62657200000000000000 DUP2 MSTORE POP PUSH1 0x20 ADD SWAP2 POP POP PUSH1 0x40 MLOAD DUP1 SWAP2 SUB SWAP1 REVERT JUMPDEST PUSH1 0x2 PUSH1 0x0 PUSH1 0x1 SLOAD DUP2 MSTORE PUSH1 0x20 ADD SWAP1 DUP2 MSTORE PUSH1 0x20 ADD PUSH1 0x0 KECCAK256 PUSH1 0x7 ADD SLOAD CALLVALUE GT PUSH2 0x4CA JUMPI PUSH1 0x40 MLOAD PUSH32 0x8C379A000000000000000000000000000000000000000000000000000000000 DUP2 MSTORE PUSH1 0x4 ADD DUP1 DUP1 PUSH1 0x20 ADD DUP3 DUP2 SUB DUP3 MSTORE PUSH1 0x1C DUP2 MSTORE PUSH1 0x20 ADD DUP1 PUSH32 0x596F7520426574206C657373207468656E206D696E696D756D42657400000000 DUP2 MSTORE POP PUSH1 0x20 ADD SWAP2 POP POP PUSH1 0x40 MLOAD DUP1 SWAP2 SUB SWAP1 REVERT JUMPDEST DUP2 PUSH1 0x2 PUSH1 0x0 PUSH1 0x1 SLOAD DUP2 MSTORE PUSH1 0x20 ADD SWAP1 DUP2 MSTORE PUSH1 0x20 ADD PUSH1 0x0 KECCAK256 PUSH1 0x0 ADD PUSH1 0x0 DUP4 PUSH20 0xFFFFFFFFFFFFFFFFFFFFFFFFFFFFFFFFFFFFFFFF AND PUSH20 0xFFFFFFFFFFFFFFFFFFFFFFFFFFFFFFFFFFFFFFFF AND DUP2 MSTORE PUSH1 0x20 ADD SWAP1 DUP2 MSTORE PUSH1 0x20 ADD PUSH1 0x0 KECCAK256 PUSH1 0x0 ADD DUP2 SWAP1 SSTORE POP CALLVALUE PUSH1 0x2 PUSH1 0x0 PUSH1 0x1 SLOAD DUP2 MSTORE PUSH1 0x20 ADD SWAP1 DUP2 MSTORE PUSH1 0x20 ADD PUSH1 0x0 KECCAK256 PUSH1 0x0 ADD PUSH1 0x0 DUP4 PUSH20 0xFFFFFFFFFFFFFFFFFFFFFFFFFFFFFFFFFFFFFFFF AND PUSH20 0xFFFFFFFFFFFFFFFFFFFFFFFFFFFFFFFFFFFFFFFF AND DUP2 MSTORE PUSH1 0x20 ADD SWAP1 DUP2 MSTORE PUSH1 0x20 ADD PUSH1 0x0 KECCAK256 PUSH1 0x1 ADD DUP2 SWAP1 SSTORE POP PUSH1 0x2 PUSH1 0x0 PUSH1 0x1 SLOAD DUP2 MSTORE PUSH1 0x20 ADD SWAP1 DUP2 MSTORE PUSH1 0x20 ADD PUSH1 0x0 KECCAK256 PUSH1 0x1 ADD DUP2 SWAP1 DUP1 PUSH1 0x1 DUP2 SLOAD ADD DUP1 DUP3 SSTORE DUP1 SWAP2 POP POP SWAP1 PUSH1 0x1 DUP3 SUB SWAP1 PUSH1 0x0 MSTORE PUSH1 0x20 PUSH1 0x0 KECCAK256 ADD PUSH1 0x0 SWAP1 SWAP2 SWAP3 SWAP1 SWAP2 SWAP1 SWAP2 PUSH2 0x100 EXP DUP2 SLOAD DUP2 PUSH20 0xFFFFFFFFFFFFFFFFFFFFFFFFFFFFFFFFFFFFFFFF MUL NOT AND SWAP1 DUP4 PUSH20 0xFFFFFFFFFFFFFFFFFFFFFFFFFFFFFFFFFFFFFFFF AND MUL OR SWAP1 SSTORE POP POP CALLVALUE PUSH1 0x2 PUSH1 0x0 PUSH1 0x1 SLOAD DUP2 MSTORE PUSH1 0x20 ADD SWAP1 DUP2 MSTORE PUSH1 0x20 ADD PUSH1 0x0 KECCAK256 PUSH1 0x6 ADD PUSH1 0x0 DUP3 DUP3 SLOAD ADD SWAP3 POP POP DUP2 SWAP1 SSTORE POP POP POP JUMP JUMPDEST PUSH1 0x0 DUP1 SWAP1 SLOAD SWAP1 PUSH2 0x100 EXP SWAP1 DIV PUSH20 0xFFFFFFFFFFFFFFFFFFFFFFFFFFFFFFFFFFFFFFFF AND DUP2 JUMP JUMPDEST PUSH1 0x0 PUSH2 0x65B DUP4 DUP4 PUSH2 0x869 JUMP JUMPDEST ISZERO PUSH2 0x767 JUMPI PUSH1 0x0 PUSH1 0x2 PUSH1 0x0 DUP5 DUP2 MSTORE PUSH1 0x20 ADD SWAP1 DUP2 MSTORE PUSH1 0x20 ADD PUSH1 0x0 KECCAK256 PUSH1 0x4 ADD SLOAD PUSH1 0x2 PUSH1 0x0 DUP6 DUP2 MSTORE PUSH1 0x20 ADD SWAP1 DUP2 MSTORE PUSH1 0x20 ADD PUSH1 0x0 KECCAK256 PUSH1 0x6 ADD SLOAD PUSH1 0x2 PUSH1 0x0 DUP7 DUP2 MSTORE PUSH1 0x20 ADD SWAP1 DUP2 MSTORE PUSH1 0x20 ADD PUSH1 0x0 KECCAK256 PUSH1 0x0 ADD PUSH1 0x0 CALLER PUSH20 0xFFFFFFFFFFFFFFFFFFFFFFFFFFFFFFFFFFFFFFFF AND PUSH20 0xFFFFFFFFFFFFFFFFFFFFFFFFFFFFFFFFFFFFFFFF AND DUP2 MSTORE PUSH1 0x20 ADD SWAP1 DUP2 MSTORE PUSH1 0x20 ADD PUSH1 0x0 KECCAK256 PUSH1 0x1 ADD SLOAD MUL DUP2 PUSH2 0x6EF JUMPI INVALID JUMPDEST DIV SWAP1 POP CALLER PUSH20 0xFFFFFFFFFFFFFFFFFFFFFFFFFFFFFFFFFFFFFFFF AND PUSH2 0x8FC DUP3 SWAP1 DUP2 ISZERO MUL SWAP1 PUSH1 0x40 MLOAD PUSH1 0x0 PUSH1 0x40 MLOAD DUP1 DUP4 SUB DUP2 DUP6 DUP9 DUP9 CALL SWAP4 POP POP POP POP ISZERO DUP1 ISZERO PUSH2 0x738 JUMPI RETURNDATASIZE PUSH1 0x0 DUP1 RETURNDATACOPY RETURNDATASIZE PUSH1 0x0 REVERT JUMPDEST POP DUP1 PUSH1 0x2 PUSH1 0x0 DUP6 DUP2 MSTORE PUSH1 0x20 ADD SWAP1 DUP2 MSTORE PUSH1 0x20 ADD PUSH1 0x0 KECCAK256 PUSH1 0x5 ADD PUSH1 0x0 DUP3 DUP3 SLOAD SUB SWAP3 POP POP DUP2 SWAP1 SSTORE POP PUSH1 0x1 SWAP2 POP POP PUSH2 0x76C JUMP JUMPDEST PUSH1 0x0 SWAP1 POP JUMPDEST SWAP3 SWAP2 POP POP JUMP JUMPDEST PUSH1 0x1 SLOAD DUP2 JUMP JUMPDEST PUSH1 0x0 DUP1 PUSH1 0x0 SWAP1 SLOAD SWAP1 PUSH2 0x100 EXP SWAP1 DIV PUSH20 0xFFFFFFFFFFFFFFFFFFFFFFFFFFFFFFFFFFFFFFFF AND PUSH20 0xFFFFFFFFFFFFFFFFFFFFFFFFFFFFFFFFFFFFFFFF AND CALLER PUSH20 0xFFFFFFFFFFFFFFFFFFFFFFFFFFFFFFFFFFFFFFFF AND EQ PUSH2 0x81F JUMPI PUSH1 0x40 MLOAD PUSH32 0x8C379A000000000000000000000000000000000000000000000000000000000 DUP2 MSTORE PUSH1 0x4 ADD DUP1 DUP1 PUSH1 0x20 ADD DUP3 DUP2 SUB DUP3 MSTORE PUSH1 0x23 DUP2 MSTORE PUSH1 0x20 ADD DUP1 PUSH2 0xEBC PUSH1 0x23 SWAP2 CODECOPY PUSH1 0x40 ADD SWAP2 POP POP PUSH1 0x40 MLOAD DUP1 SWAP2 SUB SWAP1 REVERT JUMPDEST PUSH2 0x828 DUP4 PUSH2 0xBBA JUMP JUMPDEST PUSH2 0x830 PUSH2 0xC77 JUMP JUMPDEST PUSH1 0x1 PUSH1 0x0 DUP2 SLOAD DUP1 SWAP3 SWAP2 SWAP1 PUSH1 0x1 ADD SWAP2 SWAP1 POP SSTORE POP DUP2 PUSH1 0x2 PUSH1 0x0 PUSH1 0x1 SLOAD DUP2 MSTORE PUSH1 0x20 ADD SWAP1 DUP2 MSTORE PUSH1 0x20 ADD PUSH1 0x0 KECCAK256 PUSH1 0x7 ADD DUP2 SWAP1 SSTORE POP PUSH1 0x1 SWAP1 POP SWAP3 SWAP2 POP POP JUMP JUMPDEST PUSH1 0x0 DUP3 PUSH1 0xFF AND PUSH1 0x1 DUP2 LT ISZERO DUP1 ISZERO PUSH2 0x881 JUMPI POP PUSH1 0xC DUP2 GT ISZERO JUMPDEST PUSH2 0x8F3 JUMPI PUSH1 0x40 MLOAD PUSH32 0x8C379A000000000000000000000000000000000000000000000000000000000 DUP2 MSTORE PUSH1 0x4 ADD DUP1 DUP1 PUSH1 0x20 ADD DUP3 DUP2 SUB DUP3 MSTORE PUSH1 0x1E DUP2 MSTORE PUSH1 0x20 ADD DUP1 PUSH32 0x546865206E756D626572206973206E6F742066726F6D203120746F2031320000 DUP2 MSTORE POP PUSH1 0x20 ADD SWAP2 POP POP PUSH1 0x40 MLOAD DUP1 SWAP2 SUB SWAP1 REVERT JUMPDEST PUSH1 0x2 PUSH1 0x0 DUP5 DUP2 MSTORE PUSH1 0x20 ADD SWAP1 DUP2 MSTORE PUSH1 0x20 ADD PUSH1 0x0 KECCAK256 PUSH1 0x0 ADD PUSH1 0x0 CALLER PUSH20 0xFFFFFFFFFFFFFFFFFFFFFFFFFFFFFFFFFFFFFFFF AND PUSH20 0xFFFFFFFFFFFFFFFFFFFFFFFFFFFFFFFFFFFFFFFF AND DUP2 MSTORE PUSH1 0x20 ADD SWAP1 DUP2 MSTORE PUSH1 0x20 ADD PUSH1 0x0 KECCAK256 PUSH1 0x2 ADD PUSH1 0x0 SWAP1 SLOAD SWAP1 PUSH2 0x100 EXP SWAP1 DIV PUSH1 0xFF AND ISZERO PUSH2 0x9CA JUMPI PUSH1 0x40 MLOAD PUSH32 0x8C379A000000000000000000000000000000000000000000000000000000000 DUP2 MSTORE PUSH1 0x4 ADD DUP1 DUP1 PUSH1 0x20 ADD DUP3 DUP2 SUB DUP3 MSTORE PUSH1 0x1E DUP2 MSTORE PUSH1 0x20 ADD DUP1 PUSH32 0x506C6179657220616C726561647920726563656976652061206D6F6E65790000 DUP2 MSTORE POP PUSH1 0x20 ADD SWAP2 POP POP PUSH1 0x40 MLOAD DUP1 SWAP2 SUB SWAP1 REVERT JUMPDEST PUSH1 0x0 DUP4 LT ISZERO DUP1 ISZERO PUSH2 0x9DC JUMPI POP PUSH1 0x1 SLOAD DUP4 LT JUMPDEST PUSH2 0xA4E JUMPI PUSH1 0x40 MLOAD PUSH32 0x8C379A000000000000000000000000000000000000000000000000000000000 DUP2 MSTORE PUSH1 0x4 ADD DUP1 DUP1 PUSH1 0x20 ADD DUP3 DUP2 SUB DUP3 MSTORE PUSH1 0x11 DUP2 MSTORE PUSH1 0x20 ADD DUP1 PUSH32 0x47616D65206973206E6F7420656E646564000000000000000000000000000000 DUP2 MSTORE POP PUSH1 0x20 ADD SWAP2 POP POP PUSH1 0x40 MLOAD DUP1 SWAP2 SUB SWAP1 REVERT JUMPDEST PUSH1 0x2 PUSH1 0x0 DUP5 DUP2 MSTORE PUSH1 0x20 ADD SWAP1 DUP2 MSTORE PUSH1 0x20 ADD PUSH1 0x0 KECCAK256 PUSH1 0x2 ADD PUSH1 0x0 SWAP1 SLOAD SWAP1 PUSH2 0x100 EXP SWAP1 DIV PUSH1 0xFF AND PUSH1 0xFF AND DUP5 PUSH1 0xFF AND EQ PUSH2 0xACF JUMPI PUSH1 0x40 MLOAD PUSH32 0x8C379A000000000000000000000000000000000000000000000000000000000 DUP2 MSTORE PUSH1 0x4 ADD DUP1 DUP1 PUSH1 0x20 ADD DUP3 DUP2 SUB DUP3 MSTORE PUSH1 0x27 DUP2 MSTORE PUSH1 0x20 ADD DUP1 PUSH2 0xEDF PUSH1 0x27 SWAP2 CODECOPY PUSH1 0x40 ADD SWAP2 POP POP PUSH1 0x40 MLOAD DUP1 SWAP2 SUB SWAP1 REVERT JUMPDEST PUSH1 0x0 DUP5 PUSH1 0x40 MLOAD PUSH1 0x20 ADD DUP1 DUP3 PUSH1 0xFF AND PUSH1 0xFF AND DUP2 MSTORE PUSH1 0x20 ADD SWAP2 POP POP PUSH1 0x40 MLOAD PUSH1 0x20 DUP2 DUP4 SUB SUB DUP2 MSTORE SWAP1 PUSH1 0x40 MSTORE DUP1 MLOAD SWAP1 PUSH1 0x20 ADD KECCAK256 SWAP1 POP PUSH1 0x2 PUSH1 0x0 DUP6 DUP2 MSTORE PUSH1 0x20 ADD SWAP1 DUP2 MSTORE PUSH1 0x20 ADD PUSH1 0x0 KECCAK256 PUSH1 0x0 ADD PUSH1 0x0 CALLER PUSH20 0xFFFFFFFFFFFFFFFFFFFFFFFFFFFFFFFFFFFFFFFF AND PUSH20 0xFFFFFFFFFFFFFFFFFFFFFFFFFFFFFFFFFFFFFFFF AND DUP2 MSTORE PUSH1 0x20 ADD SWAP1 DUP2 MSTORE PUSH1 0x20 ADD PUSH1 0x0 KECCAK256 PUSH1 0x0 ADD SLOAD DUP2 EQ PUSH2 0xBAE JUMPI PUSH1 0x40 MLOAD PUSH32 0x8C379A000000000000000000000000000000000000000000000000000000000 DUP2 MSTORE PUSH1 0x4 ADD DUP1 DUP1 PUSH1 0x20 ADD DUP3 DUP2 SUB DUP3 MSTORE PUSH1 0x22 DUP2 MSTORE PUSH1 0x20 ADD DUP1 PUSH2 0xF06 PUSH1 0x22 SWAP2 CODECOPY PUSH1 0x40 ADD SWAP2 POP POP PUSH1 0x40 MLOAD DUP1 SWAP2 SUB SWAP1 REVERT JUMPDEST PUSH1 0x1 SWAP3 POP POP POP SWAP3 SWAP2 POP POP JUMP JUMPDEST DUP1 PUSH1 0xFF AND PUSH1 0x1 DUP2 LT ISZERO DUP1 ISZERO PUSH2 0xBD0 JUMPI POP PUSH1 0xC DUP2 GT ISZERO JUMPDEST PUSH2 0xC42 JUMPI PUSH1 0x40 MLOAD PUSH32 0x8C379A000000000000000000000000000000000000000000000000000000000 DUP2 MSTORE PUSH1 0x4 ADD DUP1 DUP1 PUSH1 0x20 ADD DUP3 DUP2 SUB DUP3 MSTORE PUSH1 0x1E DUP2 MSTORE PUSH1 0x20 ADD DUP1 PUSH32 0x546865206E756D626572206973206E6F742066726F6D203120746F2031320000 DUP2 MSTORE POP PUSH1 0x20 ADD SWAP2 POP POP PUSH1 0x40 MLOAD DUP1 SWAP2 SUB SWAP1 REVERT JUMPDEST DUP2 PUSH1 0x2 PUSH1 0x0 PUSH1 0x1 SLOAD DUP2 MSTORE PUSH1 0x20 ADD SWAP1 DUP2 MSTORE PUSH1 0x20 ADD PUSH1 0x0 KECCAK256 PUSH1 0x2 ADD PUSH1 0x0 PUSH2 0x100 EXP DUP2 SLOAD DUP2 PUSH1 0xFF MUL NOT AND SWAP1 DUP4 PUSH1 0xFF AND MUL OR SWAP1 SSTORE POP POP POP JUMP JUMPDEST PUSH1 0x0 PUSH1 0x2 PUSH1 0x0 PUSH1 0x1 SLOAD DUP2 MSTORE PUSH1 0x20 ADD SWAP1 DUP2 MSTORE PUSH1 0x20 ADD PUSH1 0x0 KECCAK256 PUSH1 0x1 ADD SWAP1 POP PUSH1 0x0 DUP2 DUP1 SLOAD SWAP1 POP SWAP1 POP PUSH1 0x0 DUP1 SWAP1 POP JUMPDEST DUP2 DUP2 LT ISZERO PUSH2 0xE81 JUMPI PUSH1 0x0 PUSH1 0x2 PUSH1 0x0 PUSH1 0x1 SLOAD DUP2 MSTORE PUSH1 0x20 ADD SWAP1 DUP2 MSTORE PUSH1 0x20 ADD PUSH1 0x0 KECCAK256 PUSH1 0x0 ADD PUSH1 0x0 DUP6 DUP5 DUP2 SLOAD DUP2 LT PUSH2 0xCD2 JUMPI INVALID JUMPDEST SWAP1 PUSH1 0x0 MSTORE PUSH1 0x20 PUSH1 0x0 KECCAK256 ADD PUSH1 0x0 SWAP1 SLOAD SWAP1 PUSH2 0x100 EXP SWAP1 DIV PUSH20 0xFFFFFFFFFFFFFFFFFFFFFFFFFFFFFFFFFFFFFFFF AND PUSH20 0xFFFFFFFFFFFFFFFFFFFFFFFFFFFFFFFFFFFFFFFF AND PUSH20 0xFFFFFFFFFFFFFFFFFFFFFFFFFFFFFFFFFFFFFFFF AND DUP2 MSTORE PUSH1 0x20 ADD SWAP1 DUP2 MSTORE PUSH1 0x20 ADD PUSH1 0x0 KECCAK256 PUSH1 0x0 ADD SLOAD SWAP1 POP PUSH1 0x2 PUSH1 0x0 PUSH1 0x1 SLOAD DUP2 MSTORE PUSH1 0x20 ADD SWAP1 DUP2 MSTORE PUSH1 0x20 ADD PUSH1 0x0 KECCAK256 PUSH1 0x2 ADD PUSH1 0x0 SWAP1 SLOAD SWAP1 PUSH2 0x100 EXP SWAP1 DIV PUSH1 0xFF AND PUSH1 0x40 MLOAD PUSH1 0x20 ADD DUP1 DUP3 PUSH1 0xFF AND PUSH1 0xFF AND DUP2 MSTORE PUSH1 0x20 ADD SWAP2 POP POP PUSH1 0x40 MLOAD PUSH1 0x20 DUP2 DUP4 SUB SUB DUP2 MSTORE SWAP1 PUSH1 0x40 MSTORE DUP1 MLOAD SWAP1 PUSH1 0x20 ADD KECCAK256 DUP2 EQ ISZERO PUSH2 0xE73 JUMPI PUSH1 0x2 PUSH1 0x0 PUSH1 0x1 SLOAD DUP2 MSTORE PUSH1 0x20 ADD SWAP1 DUP2 MSTORE PUSH1 0x20 ADD PUSH1 0x0 KECCAK256 PUSH1 0x3 ADD PUSH1 0x0 DUP2 SLOAD DUP1 SWAP3 SWAP2 SWAP1 PUSH1 0x1 ADD SWAP2 SWAP1 POP SSTORE POP PUSH1 0x2 PUSH1 0x0 PUSH1 0x1 SLOAD DUP2 MSTORE PUSH1 0x20 ADD SWAP1 DUP2 MSTORE PUSH1 0x20 ADD PUSH1 0x0 KECCAK256 PUSH1 0x0 ADD PUSH1 0x0 DUP6 DUP5 DUP2 SLOAD DUP2 LT PUSH2 0xDE4 JUMPI INVALID JUMPDEST SWAP1 PUSH1 0x0 MSTORE PUSH1 0x20 PUSH1 0x0 KECCAK256 ADD PUSH1 0x0 SWAP1 SLOAD SWAP1 PUSH2 0x100 EXP SWAP1 DIV PUSH20 0xFFFFFFFFFFFFFFFFFFFFFFFFFFFFFFFFFFFFFFFF AND PUSH20 0xFFFFFFFFFFFFFFFFFFFFFFFFFFFFFFFFFFFFFFFF AND PUSH20 0xFFFFFFFFFFFFFFFFFFFFFFFFFFFFFFFFFFFFFFFF AND DUP2 MSTORE PUSH1 0x20 ADD SWAP1 DUP2 MSTORE PUSH1 0x20 ADD PUSH1 0x0 KECCAK256 PUSH1 0x1 ADD SLOAD PUSH1 0x2 PUSH1 0x0 PUSH1 0x1 SLOAD DUP2 MSTORE PUSH1 0x20 ADD SWAP1 DUP2 MSTORE PUSH1 0x20 ADD PUSH1 0x0 KECCAK256 PUSH1 0x4 ADD PUSH1 0x0 DUP3 DUP3 SLOAD ADD SWAP3 POP POP DUP2 SWAP1 SSTORE POP JUMPDEST POP DUP1 DUP1 PUSH1 0x1 ADD SWAP2 POP POP PUSH2 0xCA2 JUMP JUMPDEST POP PUSH1 0x2 PUSH1 0x0 PUSH1 0x1 SLOAD DUP2 MSTORE PUSH1 0x20 ADD SWAP1 DUP2 MSTORE PUSH1 0x20 ADD PUSH1 0x0 KECCAK256 PUSH1 0x6 ADD SLOAD PUSH1 0x2 PUSH1 0x0 PUSH1 0x1 SLOAD DUP2 MSTORE PUSH1 0x20 ADD SWAP1 DUP2 MSTORE PUSH1 0x20 ADD PUSH1 0x0 KECCAK256 PUSH1 0x5 ADD DUP2 SWAP1 SSTORE POP POP POP JUMP INVALID 0x4f PUSH15 0x6C79206D616E616765722063616E20 PUSH4 0x616C6C20 PUSH21 0x6869732066756E6374696F6E5573657220696E7075 PUSH21 0x20646F6573206E6F74206D617463682077696E6E69 PUSH15 0x672076616C75655573657220696E70 PUSH22 0x7420646F6573206E6F74206D61746368206974732068 PUSH2 0x7368 LOG2 PUSH6 0x627A7A723158 KECCAK256 0x28 0xc9 0xb2 0x5c 0xca 0x4b DUP16 LOG4 SAR SWAP3 ORIGIN PUSH8 0xE10E4D0A0A2B675C 0x2e BALANCE 0xc0 PUSH22 0xE1E29A7F9D9FE49164736F6C634300050C0032000000 "
        },
        "gasEstimates": {
            "creation": {
                "codeDepositCost": "786400",
                "executionCost": "infinite",
                "totalCost": "infinite"
            },
            "external": {
                "gameId()": "471",
                "getGameById(uint256)": "1561",
                "manager()": "475",
                "newGame(uint8,uint256)": "infinite",
                "receiveMoney(uint8,uint256)": "infinite",
                "setUserBetAndHash(bytes32)": "103779"
            },
            "internal": {
                "checkUserValue(uint8,uint256)": "infinite",
                "setGame()": "infinite",
                "setServerValue(uint8)": "infinite"
            }
        },
        "methodIdentifiers": {
            "gameId()": "d7c81b55",
            "getGameById(uint256)": "09660513",
            "manager()": "481c6a75",
            "newGame(uint8,uint256)": "f5e71f1a",
            "receiveMoney(uint8,uint256)": "886dc4d3",
            "setUserBetAndHash(bytes32)": "0d0aa44a"
        }
    },
    "userdoc": {
        "methods": {}
    }
}